:020000040800F2
:10000000780E0020C9010008F9030008A9030008C0
:10001000F50300088502000801090008000000003F
:100020000000000000000000000000008907000838
:100030008902000800000000930600089D080008DF
:10004000E3010008E3010008E3010008E301000800
:10005000E3010008E3010008E3010008E3010008F0
:10006000E3010008E3010008E3010008E3010008E0
:10007000E3010008E3010008E3010008E3010008D0
:10008000E3010008E3010008E3010008E3010008C0
:10009000E3010008E3010008E3010008E3010008B0
:1000A000E3010008E3010008E3010008E3010008A0
:1000B000E3010008E3010008E3010008E301000890
:1000C000E3010008E3010008E3010008E301000880
:1000D000E3010008E3010008E3010008E301000870
:1000E000E3010008E3010008E301000800F002F862
:1000F00000F05AF80AA090E8000C82448344AAF168
:100100000107DA4501D100F04FF8AFF2090EBAE865
:100110000F0013F0010F18BFFB1A43F0010318473B
:1001200064080000840800000A444FF0000C10F836
:10013000013B13F0070408BF10F8014B1D1108BF65
:1001400010F8015B641E05D010F8016B641E01F805
:10015000016BF9D113F0080F1EBF10F8014BAD1C55
:100160000C1B09D16D1E58BF01F801CBFAD505E073
:1001700014F8016B01F8016B6D1EF9D59142D6D3CD
:10018000704700000023002400250026103A28BFF5
:1001900078C1FBD8520728BF30C148BF0B607047F9
:1001A0001FB51FBD10B510BD00F036F81146FFF7A2
:1001B000F7FF00F0C9FB00F054F803B4FFF7F2FFBB
:1001C00003BC00F059F8000009488047094800477F
:1001D000FEE7FEE7FEE7FEE7FEE7FEE7FEE7FEE7F7
:1001E000FEE7FEE704480549054A064B7047000054
:1001F000A1080008ED00000878080020780E002013
:10020000780A0020780A0020704770477047000085
:1002100000487047180800207546FFF7F9FFAE4602
:1002200005006946534620F00700854618B020B502
:10023000FFF7D8FFBDE820404FF000064FF0000761
:100240004FF000084FF0000B21F00701AC46ACE87E
:10025000C009ACE8C009ACE8C009ACE8C0098D46EB
:10026000704710B50446AFF300802046BDE810404B
:10027000FFF7A3BF7047000001491820ABBEFEE79F
:100280002600020000BFFEE770472DE9F04102465C
:1002900000250026002000230024002791F803C039
:1002A0000CF00F0591F803C00CF0100CBCF1000F1E
:1002B00003D091F802C04CEA050591F800C0BCF1EA
:1002C000000F31D0146800202BE04FF0010C0CFA25
:1002D00000F3B1F800C00CEA03069E4220D183006F
:1002E0004FF00F0C0CFA03F7BC4305FA03FC4CEA81
:1002F000040491F803C0BCF1280F06D14FF0010CA3
:100300000CFA00FCC2F814C00AE091F803C0BCF17A
:10031000480F05D14FF0010C0CFA00FCC2F810C0D8
:10032000401C0828D1D31460B1F800C0BCF1FF0F05
:1003300034DD546800202EE000F1080C4FF0010875
:1003400008FA0CF3B1F800C00CEA03069E4221D172
:1003500083004FF00F0C0CFA03F7BC4305FA03FCC3
:100360004CEA040491F803C0BCF1280F05D100F158
:10037000080C08FA0CF8C2F8148091F803C0BCF11C
:10038000480F07D100F1080C4FF0010808FA0CF8EB
:10039000C2F81080401C0828CED35460BDE8F0811C
:1003A000416170470161704700BFFEE7F8B506463E
:1003B0000D4614460121304600F06CF9ADF80040BE
:1003C00010208DF8030003208DF8020069462846AE
:1003D000FFF75BFF21462846FFF7E4FFF8BD00006A
:1003E00010B54FF4005202491020FFF7DFFF10BD97
:1003F0000010014000BFFEE77047000070B5002408
:100400000CE0002506E00020074901EBC501085576
:10041000681CC5B2802DF6DB601CC4B2082CF0DB72
:1004200000F0A6F870BD000018040020F0B51446D6
:1004300000267F2801DC3F2900DDF0BD0B46CF17E9
:1004400001EB5777FF10C7F10707FAB2CF1701EB9F
:100450005777FF10A1EBC707FDB2C5F107070123CE
:10046000BB40DEB24CB10A4B03EBC0039B5C334391
:10047000074F07EBC007BB5408E0054B03EBC00375
:100480009B5CB343024F07EBC007BB5400BFD4E7EC
:100490001804002010B500F00DF910BD10B5FFF7DD
:1004A000F9FF0021AE2000F0ECF80021D52000F08B
:1004B000E8F80021502000F0E4F80021A82000F026
:1004C000E0F800213F2000F0DCF80021D32000F00C
:1004D000D8F80021084600F0D4F80021402000F0B0
:1004E000D0F800218D2000F0CCF80021142000F07D
:1004F000C8F80021202000F0C4F80021022000F0FC
:10050000C0F80021A12000F0BCF80021C02000F0BC
:10051000B8F80021DA2000F0B4F80021122000F031
:10052000B0F80021812000F0ACF80021EF2000F0AD
:10053000A8F80021D92000F0A4F80021F12000F053
:10054000A0F80021DB2000F09CF80021302000F012
:1005500098F80021A42000F094F80021A62000F0D3
:1005600090F80021AF2000F08CF8FFF747FF10BD96
:1005700070B500241CE004F1B001C8B2002100F005
:1005800080F80021084600F07CF80021102000F0DF
:1005900078F8002508E0084901EBC501085D012154
:1005A00000F06FF8681CC5B2802DF4DB601CC4B28B
:1005B000082CE0DB70BD0000180400202DE9FE4F80
:1005C00007460D4690469B460C9C7F2F01DC3F2D35
:1005D00001DDBDE8FE8FB9462E462046E21704EB4A
:1005E0005272D2102146E31704EB5373DB10A4EBD5
:1005F000C3030BB1012300E000231A4402FB0BF2FA
:1006000092B201924FF0000A36E098F80000029092
:100610000020009026E0029800F0800028B13146CA
:1006200048460D9AFFF702FF09E00D9808B901202E
:1006300000E00020024631464846FFF7F7FE0298E8
:100640004006000E0290701CC6B2701BA04205D17D
:100650002E4609F1010000F0FF0906E00098401C59
:1006600080B2009000980828D5DB00BF08F101088F
:100670000AF101001FFA80FA01988245C5DB00BF2C
:10068000A7E770B504460D462946204600F042F81B
:1006900070BD704729B1064A92690243044B9A61C2
:1006A00004E0034A92698243014B9A61704700005B
:1006B0000010024008B501210420FFF7EBFFB02035
:1006C000ADF8000010208DF8030003208DF8020023
:1006D00069460E48FFF7D9FDB0210C48FFF762FECE
:1006E00001210820FFF7D6FF0320ADF800001020FD
:1006F0008DF8030003208DF8020069460448FFF7D7
:10070000C4FD03210248FFF74DFE08BD000801406B
:10071000000C014070B504460E4626B1022118486F
:10072000FFF740FE03E002211548FFF739FE1021D4
:100730001448FFF735FE002517E020211148FFF788
:100740002FFE04F0800020B180210E48FFF72AFE22
:1007500003E080210B48FFF723FE20210948FFF723
:1007600021FE6006040E681CC5B2082DE5DB1021D1
:100770000448FFF717FE02210148FFF713FE70BD82
:10078000000C014000080140704710B500F002F86D
:1007900010BD00000CB500200190009033480068A7
:1007A00040F480303149086000BF3048006800F4F0
:1007B000003000900198401C0190009818B90198F1
:1007C000B0F5A06FF1D12948006800F4003010B1F5
:1007D0000120009001E0002000900098012843D102
:1007E0002348006840F0100021490860084600686E
:1007F00020F0030008600846006840F0020008602E
:100800001A484068194948600846406848600846E8
:10081000406840F4806048600846406820F47C10DE
:1008200048600846406840F4E810486008460068A0
:1008300040F08070086000BF0C48006800F0007055
:100840000028F9D00948406820F0030007494860B3
:100850000846406840F00200486000BF0348406816
:1008600000F00C000828F9D10CBD00000010024077
:1008700000200240042808D14FF0E021096941F02E
:1008800004014FF0E022116107E04FF0E021096917
:1008900021F004014FF0E022116170477047000021
:1008A00010B51348006840F001001149086008467F
:1008B0004068104908400E494860084600680E49E3
:1008C00008400B4908600846006820F48020086052
:1008D0000846406820F4FE0048604FF41F0088601E
:1008E000FFF753FF4FF000600449086010BD00009F
:1008F000001002400000FFF8FFFFF6FE08ED00E0E8
:1009000000BFFEE710B56FF00400FFF7B3FF0A4821
:1009100000680A49B0FBF1F0094908700846007800
:1009200000EB4001C1EBC0104FF6FF7101EAC000BF
:100930000449088010BD00000404002000127A0061
:1009400000000020020000201CB5FFF7DBFFFFF7CE
:1009500047FDFFF7A3FDFFF751FD01204021802354
:10096000064ACDE9001000210846FFF727FEFFF7F1
:10097000FFFD00200249086000BFFEE704000020E0
:10098000B4012242A409000800000020180400005D
:1009900028010008B40B000818040020600A0000B9
:1009A0008401000851221E13038012A42260130147
:1009B00006125C3240122334180190122043D006F4
:1009C000120E431008550F80203244C4A048550130
:1009D000404084631AC06304805A01087211720B8C
:1009E000720A1A04024112141210233FFE120C164E
:1009F0000207E1C7F019661379841A3E161A0352EA
:100A00001407E0301A0E4A140170203A7A8812C096
:100A10004278130780397119B911329C19A523271F
:100A2000BF1B80180B1A011A19CC12381A70112921
:100A30000B121232021A406432B81A807A3A200835
:100A40003A02EB1945494C112A012F410A15800839
:100A50005A4008BA501012103A40485A3808DA780A
:100A60001089386908DA0148548105E03AC26D21DD
:100A7000428212C03B010435113A020812204B0693
:100A8000086F430C1012583A180812261A30EE213B
:100A90003C41C1C008115A3ED7294329306A806FB2
:100AA000F90821395A6910197B5A06084A0CB01105
:100AB0005A1808396A11126052644A205A191049AA
:100AC000085A10425A58086308025A840872445956
:100AD0000F11720B1981C908698962A06A40105907
:100AE000D163A1506A08E169080A152008AA6010BC
:100AF0001303F14230130C1C29483C08B006103D8A
:100B000010600380DF12802AC00819852A60081946
:100B1000AD2A20081A062329082204330A181A28A5
:100B20003B2A08401903291819082A0418190C2A05
:100B3000041819082A020829434A0A7C29105A0174
:100B4000081A0E0823010C141A20021A02081EBDEE
:100B5000600780015C1B40400812061501AF2007AA
:100B600013010A2B1331281D03900695E41E010181
:100B7000C01A0ACC12012B7DF95012012B9F1A507A
:100B80001B0180412958212A18085A03EC19103AF0
:100B90000388299E299889082A09B019973A08C814
:100BA000511BA24A1861000900010203040607084C
:040BB0000900000038
:04000005080000ED02
:00000001FF
