:020000040800F2
:10000000700A002089010008D5040008990400083E
:10001000D104000861020008512B00080000000014
:10002000000000000000000000000000212A00087D
:100030006502000800000000352900083D2A00087C
:10004000A3010008A3010008A3010008A301000800
:10005000A3010008A3010008A3010008A3010008F0
:10006000A3010008A3010008A3010008A3010008E0
:10007000A3010008A3010008A3010008A3010008D0
:10008000A3010008A3010008A3010008A3010008C0
:10009000A3010008A3010008A3010008A3010008B0
:1000A000A3010008A3010008A3010008A3010008A0
:1000B000A3010008A3010008A3010008A301000890
:1000C000A3010008A3010008A3010008A301000880
:1000D000A3010008A3010008A3010008A301000870
:1000E000A3010008A3010008A301000800F002F822
:1000F00000F03AF80AA090E8000C82448344AAF188
:100100000107DA4501D100F02FF8AFF2090EBAE885
:100110000F0013F0010F18BFFB1A43F0010318473B
:100120002045000040450000103A24BF78C878C13F
:10013000FAD8520724BF30C830C144BF04680C60ED
:10014000704700000023002400250026103A28BF35
:1001500078C1FBD8520728BF30C148BF0B60704739
:100160001FB51FBD10B510BD00F044F81146FFF7D4
:10017000F7FF02F011FD00F062F803B4FFF7F2FFA1
:1001800003BC00F067F800000948804709480047B1
:10019000FEE7FEE7FEE7FEE7FEE7FEE7FEE7FEE737
:1001A000FEE7FEE704480549054A064B7047000094
:1001B000412A0008ED00000870040020700A0020A9
:1001C000700600207006002070477047704710B519
:1001D00000F008F8006810BD10B5044600F002F801
:1001E000046010BD004870470800002000487047B8
:1001F000080000207546FFF7F9FFAE460500694686
:10020000534620F00700854618B020B5FFF7CAFF17
:10021000BDE820404FF000064FF000074FF0000807
:100220004FF0000BAC46ACE8C009ACE8C009ACE844
:10023000C009ACE8C00921F007018D46704710B530
:100240000446AFF300802046BDE81040FFF795BF9D
:100250007047000001491820ABBEFEE726000200EF
:10026000FEE70000704700002DE9F04F83B07F26C5
:100270003F274FF001084FF0000900BF013E013F4A
:10028000F4B2FDB23F201F2122462B46CDF800805C
:1002900000F03CFC01F01AFE3F201F2122462B46B5
:1002A000CDF8009000F032FC1E2DE7D801243F204D
:1002B0001F213C221E23009402F048F93F201F21F9
:1002C0001E221423009401F095FE0025002600BF95
:1002D000B7B23F201F211E2214230097019400F083
:1002E00033F901F0F3FD3F201F211E221423009754
:1002F000019500F029F9B32F06F10106E8D3002497
:1003000001250026B7B23F201F211E22142300978B
:10031000019501F023FC01F0D9FD3F201F211E2291
:1003200014230097019401F019FCB32F06F1010684
:10033000E8D34FF00A09002701200024E1B2B1F10F
:10034000140518BF0546002908BF012528064FF0EF
:10035000010008BF4FF0FF30814404445FFA89FA7E
:100360005FFA84FB1FFA87F83F201F2152465B4645
:100370000126CDF80080019601F0F0FB01F0A6FD0A
:100380003F201F2152465B460026CDF80080019693
:1003900001F0E4FB0137B8F1B30F2846CED30124B6
:1003A0003F201F213C221E23009402F0F5F93F203C
:1003B0001F213C221E23009402F096F93F201F21AA
:1003C0003C221E23009401F0A7FD03B0BDE8F08F8E
:1003D0002DE9F047CA7802F00F0CD30644BF8B78A2
:1003E0004CEA030C09880B0625D082465AF8144BB8
:1003F00000F1100E00254FF001094FF00F08002703
:1004000006E000BF1E600137082F05F1040511D07A
:1004100009FA07F60E42F6D008FA05F324EA0303B8
:100420000CFA05F41C43282A5346EBD0482AEAD19B
:100430007346E7E70460B1F5807F38BFBDE8F08719
:10044000436800F1100E00F1140900254FF4807A82
:100450004FF00F08002705E034600137082F05F141
:10046000040512D00AFA07F404EA0106A642F4D100
:1004700008FA05F6B3430CFA05F63343282A4E462C
:10048000EAD0482AE9D17646E6E74360BDE8F0873E
:100490004161704701617047FEE7000010B582B00E
:1004A0001020012102F048FA42F2000041F200045B
:1004B000C1F20300C4F20104019001A92046FFF734
:1004C00087FF20464FF40051FFF7E4FF02B010BD54
:1004D000FEE7000070470000F0B581B040F268010F
:1004E000C2F2000100200A46002300BF6FF0070798
:1004F000D6190837B7F57E7F3072F9D10133082B52
:1005000002F10102F2D1A1F108040025A5F1500089
:10051000C0B2002102F048FA0020002102F044FAA3
:100520001020002102F040FA8026274617F8080F15
:10053000012102F039FA013EF8D10135082D04F10C
:100540000104E3D101B0F0BD2DE9F04F8BB00546B9
:10055000DDE9149B03FB03F0984616460C46089011
:1005600003F0B1F9049006FB06F00F46079003F084
:10057000AAF94FFA88F68A463319CDF800908146D9
:10058000284621462A460A940995CDF804B000F081
:100590006DFB304603F097F90023CBF6E0730022A1
:1005A0004FF0000B02F00EFF4A465346049DCDF873
:1005B0001890CDF814A003F029FA2A463B4603F020
:1005C000C7FC0028039762D1C8F10000444603F03D
:1005D0007AF90023C3F6D0730022B846002702F050
:1005E000F1FE02460B46DDE9051003F00FFA2A463C
:1005F000434602F0E7FE02F0B3FE089D80464FF04E
:10060000000B37E00221079AA1EB460101FB020033
:100610002546651E03F030FD0146404603F01AFCF6
:100620002C466EB2149D80460BF1010B09980A9975
:100630004FFA8BF70095159D3A187318019500F045
:1006400015FB089D781C684303F03DF98146304650
:100650008A4603F038F900230022CBF6E07302F05B
:10066000B1FEDDE9053203F0D1F94A46534603F005
:1006700061FC68B14046002103F094FC032101EBCA
:100680004701002801FB05F0BCD02546C2E74446DF
:100690004FFA8BF003F017F90023C3F6E073002242
:1006A00002F090FE4FFA84FABAF1010F65DBDDE942
:1006B000033280460F46741E03F0A8F9079D0646D4
:1006C00004FB05F06043894603F0FDF804460691FB
:1006D0003046494642463B4603F098F9069B22467F
:1006E00002F070FE064608980F46684303F0EBF8E8
:1006F00002460B463046394603F092FA02F030FECD
:100700004FF003080646A8EB4A000AF1010700FB78
:1007100005F44FEA450928E04FFA8BF00221079AC9
:1007200001EB4000A8EB4A015143089A0BF1010B81
:1007300000FB021003F0A0FC0146304603F08AFBE8
:10074000064609984FFA8BF10A180A99149DCB199D
:10075000023B0095159D1BB2AAF1010A019500F01C
:1007600085FA013F012F4C4407DD3046002103F09C
:100770000BFC0028D0D02046DCE70BB0BDE8F08FA2
:100780002DE9F04F83B0161AB3EB010E344613D0A7
:10079000002E3ED0012EA8BFBEF1000F6BDC012E53
:1007A000C0F28E81BEF1FF3F00F38A81CEF1000ED0
:1007B000C3EB4106022560E0002E48BF7442002EC4
:1007C00048BF10460722A2EBD1038A43012707FA4C
:1007D00002F240F2680EDBB26FEA020C0026C2F2AF
:1007E000000E04E0013635B2AC42C0F266813F290A
:1007F000F8D887197DB2002DF4D40C9DFFB2002DDE
:100800000EEBC705EF5C0CBF07EA0C071743EF546C
:10081000E8E740F26805BEF1000F7246C2F200053B
:1008200048BFCEF10002BEF1000F48BF19460023B9
:1008300047B24FF0070E4FF0010C05EBC00004E08B
:1008400001331CB2A242C0F23881002FF8D4CC1878
:10085000E5B23F2DF4D8AEEBD5052EEA04040C9E8C
:100860000CFA04F4EDB2002E465D0CBF26EA040437
:1008700034434455E4E701251E461746744509DA1A
:10088000721A0244CB191B1AD2B2141ADAB21035FA
:10089000A2EB010E3F2918D842B2002A15D4072234
:1008A000A2EBD1038A43012707FA02F240F268075C
:1008B0000C9EC2F20007DBB207EBC007002EFE5C05
:1008C0000CBF26EA02023243FA54012CC0F2F58032
:1008D000AEEB04035B0005F01007029305F00F0375
:1008E0000197671CC4EB4E021FFA87FC4FF000090A
:1008F000A3F1010B012411E0EDB240F26806009F64
:10090000C2F2000606EBC706775D27EA0E077755A9
:100910000134A4451A44C64600F0CF8013B2D54333
:10092000ADB2002B029BF04648BF4FEA4E03BBF12D
:10093000070F09EBD539EBD8DFE80BF0052A0405E2
:1009400004040434E4E7019F002F55D105196FB268
:10095000002FDDD401EB0906F7B23F2FD8D84FF0B6
:10096000070E5FFA85FAAEEBD7052EEA06070C9E56
:10097000002E4FF0010606FA07FE00F09280EFB25B
:1009800040F26805C2F2000505EBCA052EE000BF83
:10099000019F002F53D105196FB2002FB8D4A1EBDE
:1009A000090608E0019F002F53D1051B6FB2002FED
:1009B000AED401EB09065FFA86FABAF13F0FA7D869
:1009C000EFB200970727A7EBDA05B7430C9E002E7E
:1009D0004FF0010606FA07FE3FF48EAFEFB240F289
:1009E0006805009EC2F2000505EBC605EE5D46EA0D
:1009F0000E06EE558CE700BF01EB040E5FFA8EF693
:100A00003F2E3FF685AF00EB09077DB2002D3FF585
:100A10007FAF07255FFA87FAA5EBD60625EA0E0712
:100A20000C9D002D4FF0010505FA07FE3BD040F26A
:100A30006805C2F20005F7B205EBCA062CE0A1EB8F
:100A4000040A5FFA8AF53F2D3FF662AF00EB090614
:100A500008E001EB040A5FFA8AF53F2D3FF658AF34
:100A6000A0EB090677B2002F3FF552AFF7B200971F
:100A70000727A7EBD5060C9D27EA0A07002D4FF0A4
:100A8000010505FA07FE16D0F7B240F26805009E90
:100A9000C2F2000505EBC606F55D45EA0E05F55503
:100AA00036E7EDB200E0F5B240F26806C2F20006A9
:100AB00006EBCA0628E7F5B21FE703B0BDE8F08FE2
:100AC000B6F1FF3FD8BFBEF1FF3F12DDB6F1FF3FE9
:100AD0004FF000053FF7D0AEBEF1010FFFF6CCAEF0
:100AE0007442C2EB400708251E467445FFF6C8AEA7
:100AF000D0E67442CEF1000E04250E460746194694
:100B000010467445BFF6C6AEBAE600002DE9F043C4
:100B100081B01E4617460446B0EB520F88461AD2E3
:100B2000304602F0E7FE054620460E4602F0E2FEA1
:100B30002A46334602F06AFF054638460E4602F062
:100B4000D9FE02460B462846314602F0F7FC02F079
:100B50008BFE06466700B8EB560F1CD2F8B202F0C7
:100B6000C9FE4FEA4809074648460D4602F0ABFE6B
:100B70003A462B4602F04AFF054630460F4602F041
:100B8000B9FE02460B462846394602F0D7FC02F071
:100B90006BFE07464E46F8B204EB5000802816D391
:100BA000F0B202F0A7FE05464FF48070A0EB4407B8
:100BB00038460E4602F087FE2A46334602F026FFEC
:100BC0002A46334602F0BAFC02F04EFE0646F0B268
:100BD000DDF8209008EB5000402815D3F8B202F061
:100BE00089FE05468020A0EB480630460F4602F0FD
:100BF0006AFE2A463B4602F009FF2A463B4602F0BF
:100C00009DFC02F031FE0746F8B2F2B2A4EB5001AF
:100C1000A8EB520704EB500008EB5202CEB2C4B26C
:100C2000D5B23046294622462B46CDF80090FFF734
:100C3000A7FDFFB23046394622463B46CDF800902C
:100C4000FFF79EFD3046294632463B46CDF80090E0
:100C5000FFF796FD2046294622463B46CDF80090F8
:100C6000FFF78EFD01B0BDE8F08300002DE9F04FE5
:100C700089B08B460191129905460790084698461F
:100C8000914602F037FE4AF6E3024DF64673CCF287
:100C90006232C3F6917302F0B9FE02F061FB03F019
:100CA000ADF804460F4602F00BFB02F059FB064676
:100CB0002046394602F0B6FA02F052FB8246A9EB12
:100CC000050005B22846A8EB0B0703F0D5F931461D
:100CD000044603F065FA00902046514603F060FA9E
:100CE0003FB28146384603F0C7F93146044603F067
:100CF00057FA83462046514603F052FA804668422E
:100D000003F0BAF93146044603F04AFA059020464A
:100D1000514603F045FA0490784203F0ADF93146AC
:100D2000044603F03DFA08902046514603F038FA95
:100D3000CDE9029048465946CDF818B003F0FCFAC8
:100D40000546079803F0B0F983462846594603F054
:100D500081F803F075F9064644B20098414605460D
:100D6000CDF81C8003F076F80746019803F09CF953
:100D700082463846DDF84C80514603F06BF803F0AC
:100D80005FF9002C18D43F2816D80722A2EBD00117
:100D900022EA0000012202FA00F040F26802C2F2E8
:100DA0000002C9B202EBC602B8F1000F535C0CBFDF
:100DB00023EA0000184350540298089903F0BCFA43
:100DC000594603F047F803F03BF9064644B228467B
:100DD000039D294603F03EF8514603F03BF803F02B
:100DE0002FF9DDE90479002C18D43F2816D8072202
:100DF000A2EBD00122EA0000012202FA00F040F248
:100E00006802C2F20002C9B202EBC602B8F1000FDA
:100E1000535C0CBF23EA000018435054089938462D
:100E200003F08AFA594603F015F803F009F906466B
:100E300044B24846294603F00DF8514603F00AF83B
:100E400003F0FEF8002C18D43F2816D80722A2EB96
:100E5000D00122EA0000012202FA00F040F268020A
:100E6000C2F20002C9B202EBC602B8F1000F535C35
:100E70000CBF23EA0000184350540699384603F08B
:100E80005BFA594602F0E6FF03F0DAF807990446E8
:100E900046B2484602F0DEFF514602F0DBFF03F0A7
:100EA000CFF8002E1DD43F281BD80722A2EBD0017B
:100EB00022EA0000012202FA00F040F26802C2F2C7
:100EC0000002B8F1000FC9B202EBC40205D0535CB6
:100ED0001843505409B0BDE8F08F535C23EA00007A
:100EE000505409B0BDE8F08FF0B5DDE90554DDF8E8
:100EF0001CC015446AB22344002A5FFA85FE19D447
:100F0000DCB23F2C16D80726A6EBD40526EA03044C
:100F1000012606FA04F440F26806C2F20006EDB2B9
:100F200006EBCE06BCF1000F775D0CBF27EA040488
:100F30003C437455002AC3EB410118D4CCB23F2C7A
:100F400015D80726A6EBD40526EA0104012606FAE1
:100F500004F440F26806C2F20006EDB206EBCE07DA
:100F60007E5DBCF1000F0CBFA64326437E55C2EB4D
:100F7000400042B2002AC0B219D4CDB23F2D16D8DB
:100F8000072740F26806A7EBD50527EA01010127EC
:100F9000C2F2000607FA01F1EFB206EBC006BCF19F
:100FA000000FF55D0CBF25EA01012943F155002A28
:100FB0001DD4D9B23F2988BFF0BD0727A7EBD102C6
:100FC00027EA0301012303FA01F140F26803C2F2A8
:100FD0000003BCF1000FD2B203EBC00003D0835C6E
:100FE00019438154F0BD835C23EA01018154F0BDB3
:100FF0002DE9F04F8DB089461699834608469A46EA
:1010000016460B9202F076FC4AF6E3024DF6467362
:10101000CCF26232C3F6917302F0F8FC02F0A0F950
:1010200002F0ECFE07460C4602F04AF902F098F98D
:1010300005463846214602F0F5F802F091F980465F
:10104000A6EB0B0003F018F82946044603F0A8F8B5
:1010500003902046414603F0A3F80C90AAEB090048
:101060004F46CDF80490CDF81CA003F005F82946B2
:10107000044603F095F806462046414603F090F8F2
:101080000AEB0B0907EB0B0A0990A9EB0A0002F027
:10109000F3FF2946044603F083F8049020464146B6
:1010A00003F07EF808900B98ABEB000002F0E4FF31
:1010B0002946074603F074F80A903846414603F083
:1010C0006FF80B90AAEB090002F0D6FF29460746FD
:1010D00003F066F806903846414603F061F8059043
:1010E000DDF804900798A9EB000002F0C5FF29463F
:1010F000074603F055F802903846414603F050F891
:1011000007460C983146079603F016F905465846EF
:1011100002F0CAFF82462846514602F09BFE02F0CA
:101120008FFF054646B203980999834602F092FE66
:101130000446484602F0B8FF80462046414602F089
:1011400089FE02F07DFF002E18D43F2816D8072212
:10115000A2EBD00122EA0000012202FA00F040F2E4
:101160006802179BC2F20002C9B202EBC502002B53
:10117000535C0CBF23EA00001843505408985946AA
:1011800003F0DAF8514602F065FE02F059FF049EC2
:101190000C99054644B2304602F05CFE414602F02E
:1011A00059FE02F04DFF002C18D43F2816D8072214
:1011B000A2EBD00122EA0000012202FA00F040F284
:1011C0006802179BC2F20002C9B202EBC502002BF3
:1011D000535C0CBF23EA00001843505408980A9946
:1011E00003F0AAF8514602F035FE02F029FF0B99F0
:1011F000054644B2304602F02DFE414602F02AFE7A
:1012000002F01EFF029E002C18D43F2816D8072299
:10121000A2EBD00122EA0000012202FA00F040F223
:101220006802179BC2F20002C9B202EBC502002B92
:10123000535C0CBF23EA0000184350540C9831460D
:1012400003F07AF8514602F005FE02F0F9FE054679
:1012500044B25846394602F0FDFD414602F0FAFD1F
:1012600002F0EEFE002C18D43F2816D80722A2EB7D
:10127000D00122EA0000012202FA00F040F26802E6
:10128000179BC2F20002C9B202EBC502002B535CED
:101290000CBF23EA0000184350540B98314603F06A
:1012A0004BF8514602F0D6FD02F0CAFEDDF8289058
:1012B000054644B24846394602F0CCFD414602F0AC
:1012C000C9FD02F0BDFEDDE90576002C18D43F28EB
:1012D00016D80722A2EBD00122EA0000012202FA6E
:1012E00000F040F26802179BC2F20002C9B202EBA2
:1012F000C502002B535C0CBF23EA00001843505476
:101300003846494603F018F8514602F0A3FD02F0B2
:1013100097FE0B99044645B2304602F09BFD4146CC
:1013200002F098FD02F08CFE002D18D43F2816D84C
:101330000722A2EBD00122EA0000012202FA00F00B
:1013400040F26802179BC2F20002C9B202EBC4026B
:10135000002B535C0CBF23EA00001843505438465E
:10136000594602F0E9FF514602F074FD02F068FEB2
:101370000C99044645B2304602F06CFD414602F03D
:1013800069FD02F05DFE002D18D43F2816D8072213
:10139000A2EBD00122EA0000012202FA00F040F2A2
:1013A0006802179BC2F20002C9B202EBC402002B12
:1013B000535C0CBF23EA0000184350540B98079964
:1013C00002F0BAFF514602F045FD02F039FE0999DC
:1013D000044645B2484602F03DFD414602F03AFD62
:1013E00002F02EFE002D1CD43F281AD80722A2EBB3
:1013F000D00122EA00000122179B02FA00F040F21D
:101400006802C2F20002C9B202EBC4022BB1535C03
:10141000184350540DB0BDE8F08F535C23EA000030
:1014200050540DB0BDE8F08F2DE9F04F83B00DF1B1
:10143000300C9CE8301005EB030AA7184FFA87F828
:10144000B8F1000F5FFA87FE1DD45FFA8AF73F2FCD
:1014500019D8A9460725A5EBD70625EA0A070125CD
:10146000BCF1000F05FA07FCF7B240F26806C2F2C1
:10147000000606EBCE06F55D0CBF25EA0C0545EA35
:101480000C05F5554D46471A1F4427440E1A4FFACE
:1014900087FB16442E44BBF1000F5FFA87F9CDF8A5
:1014A00000E00193029627D4F7B23F2F24D82B46B1
:1014B0000725A5EBD70CB5430E9E012707FA05FEBD
:1014C00066B140F26806C2F200065FFA8CF506EBE0
:1014D000C906775D47EA0E0777550BE040F26806CC
:1014E000C2F200065FFA8CF706EBC906F55D25EA45
:1014F0000E05F5550C9C1D46821A5718BBF1000FBE
:10150000A7EB050E22D45FFA8EF53F2D1ED80726D5
:101510000E9FA6EBD50526EA0E06012303FA06F375
:1015200057B1EEB240F26805C2F2000505EBC905FD
:10153000AF5D1F43AF5509E040F26806C2F20006F6
:10154000EFB206EBC906F55D9D43F555B8F1000F06
:10155000DDF83880CAEB410626D4F5B23F2D23D8FA
:101560000727A7EBD505B7430124B8F1000F04FA0C
:1015700007FC0CD0EFB240F26805009BC2F20005F8
:1015800005EBC305EC5D44EA0C04EC550BE0ECB252
:1015900040F26805009BC2F2000505EBC3052F5D14
:1015A00027EA0C072F550C9C0244121B55B2002D44
:1015B0005FFA82FC18D4F2B23F2A15D80724A4EBB4
:1015C000D202B443012606FA04F440F26806C2F2DD
:1015D0000006D2B206EBCC06B8F1000FB75C0CBF28
:1015E00027EA04043C43B45408440C99019A11447A
:1015F000401A41B20029C0B21AD45FFA8EF23F2AD3
:1016000016D80723A3EBD20223EA0E03012707FA19
:1016100003F340F26807C2F20007D2B207EBC0073B
:10162000B8F1000FBE5C0CBF26EA03033343BB5482
:10163000029F002919D4F9B23F2916D80723A3EB3A
:10164000D10223EA0701012303FA01F140F2680302
:10165000C2F20003D2B203EBC000B8F1000F835C0A
:101660000CBF23EA010119438154002D1FD45FFAF6
:101670008AF03F281BD80722A2EBD00122EA0A00F9
:10168000012202FA00F040F26802C2F20002B8F150
:10169000000FC9B202EBCC0205D0535C1843505482
:1016A00003B0BDE8F08F535C23EA0000505403B050
:1016B000BDE8F08F2DE9F04F87B0DDE910689B465B
:1016C00015468146A0EB52045B0800EB520201EB89
:1016D0005B005D45B246069104940592039038BFC5
:1016E0006B08B6EB5B0F88BF9A46A1EB5B07B6EBC6
:1016F000550F88BF9A460AEB0403A2EB0A01DCB23D
:10170000CEB2C1B2204632460B46CDF80080FFF77C
:1017100037F8F9B2204632460B46CDF80080FFF785
:101720002FF803980AEB0701A0EB0A00C4B2049853
:10173000CEB2C0B2214602463346CDF80080FFF754
:101740001FF805982146C0B202463346CDF8008006
:10175000FFF716F8069FCAEB55010AEB0700CAEB24
:101760005B02D5B2CEB2C3B2484639464A46CDE94D
:101770000065CDF80880FFF757FEBAF1000F2BD0B7
:10178000CAF1010B012400BF4FFA8BF0002820465C
:10179000AAF1010158BF8A4658BF401A0BEB40001E
:1017A0000AEB070100F1010B04EB0900CDE900652C
:1017B000CBB23946BC4637462E46119DC2B248468A
:1017C0005FFA8AF8029535463E466746FFF72CFEDB
:1017D0000134E0B24045D7D907B0BDE8F08F000032
:1017E0002DE9F04F8BB0DDE9147B0990A0EB520995
:1017F0005E08A1EB530500EB520001EB530A9A423D
:10180000CDE907120A9306950590CDF810A038BFD0
:101810005608B7EB530FB84688BFB046B7EB520F28
:101820005FFA89F7C4B2EDB23846294622462B4604
:1018300088BFB046CDF800B0FEF7A2FF5FFA8AF687
:101840003846314622463346CDF800B0FEF798FFC1
:10185000384629463A463346CDF800B0FEF790FFA9
:101860002046294622463346CDF800B0FEF788FFD1
:1018700008EB0900BBFA8BF15FFA80FB4FEA5119C4
:10188000384629465A462B46CDF80090FEF778FF99
:1018900005982946A0EB08005FFA80FA20465246D8
:1018A0002B46CDF80090FEF76BFF384631465A467E
:1018B0003346CDF80090FEF763FF2046314652468E
:1018C0003346CDF80090FEF75BFF0698294640446A
:1018D0005FFA80FB38463A465B46CDF80090FEF74B
:1018E0004FFF04983146A0EB08005FFA80FA3846B3
:1018F0003A46079F5346CDF80090FEF741FF204639
:10190000294622465B46CDF80090FEF739FF204677
:101910003146099E22465346CDF80090FEF730FF2F
:1019200008990A9A08EB0700C8EB5101C8EB52026C
:10193000159DD4B25FFA81FAC3B2304639463246B9
:10194000CDE900A40295FFF76FFDB8F1000F2AD092
:10195000C8F10109012500BF4FFA89F00028284687
:10196000A8F1010158BF884658BF401A09EB400052
:1019700000F10109A81908EB0701CDE900A4CBB2D9
:10198000C2B230463946A44634463E46159F5FFAF9
:1019900088FB0297374626466446FFF745FD01352A
:1019A000E8B25845D8D90BB0BDE8F08F2DE9F04F1B
:1019B0008BB0CDE90710A0EB5209A1EB530600EB69
:1019C0005200DDE9148B5FFA89F7C4B2F5B20992CF
:1019D0000A93059001EB530A3846294622462B46C6
:1019E0000696CDF810A0CDF800B0FEF7C9FE5FFA5C
:1019F0008AF63846314622463346CDF800B0FEF727
:101A0000BFFE384629463A463346CDF800B0FEF7C9
:101A1000B7FE2046294622463346CDF800B0FEF7F1
:101A2000AFFE09EB0800BBFA8BF15FFA80FB4FEACF
:101A30005119384629465A462B46CDF80090FEF7F4
:101A40009FFE05982946A0EB08005FFA80FA204621
:101A500052462B46CDF80090FEF792FE38463146AE
:101A60005A463346CDF80090FEF78AFE20463146AE
:101A700052463346CDF80090FEF782FE069829467E
:101A800040445FFA80FB38463A465B46CDF800900A
:101A9000FEF776FE04983146A0EB08005FFA80FA64
:101AA00038463A46079F5346CDF80090FEF768FE49
:101AB0002046294622465B46CDF80090FEF760FEA0
:101AC00020463146089E22465346CDF80090FEF748
:101AD00057FE09990A9A08EB0700C8EB5101C8EBB9
:101AE0005202159DD4B25FFA81FAC3B2304639462C
:101AF0003246CDE900A40295FFF796FCB8F1000F3D
:101B000029D0C8F1010901254FFA89F0002828469B
:101B1000A8F1010158BF884658BF401A09EB4000A0
:101B200000F10109A81908EB0701CDE900A4CBB227
:101B3000C2B230463946A44634463E46159F5FFA47
:101B400088FB0297374626466446FFF76DFC013551
:101B5000E8B25845D8D90BB0BDE8F08F2DE9F04F69
:101B60008BB00546DDE9149B03FB03F0984616464F
:101B70000C46089001F0A7FE049006FB06F00F4605
:101B8000079001F0A0FE4FFA88F68A463319CDF887
:101B900000908146284621462A460A940995CDF8A8
:101BA00004B0FFF725FA304601F08DFE0023CBF696
:101BB000E07300224FF0000B01F004FC4A4653464C
:101BC000049DCDF81890CDF814A001F01FFF2A460F
:101BD0003B4602F0BDF90028039762D1C8F100002E
:101BE000444601F070FE0023C3F6D0730022B846CD
:101BF000002701F0E7FB02460B46DDE9051001F086
:101C000005FF2A46434601F0DDFB01F0A9FB089DD4
:101C100080464FF0000B37E00221079AA1EB460106
:101C200001FB02002546651E02F026FA01464046E9
:101C300002F010F92C466EB2149D80460BF1010B98
:101C400009980A994FFA8BF70095159D3A18731861
:101C50000195FFF7CDF9089D781C684301F033FE2C
:101C6000814630468A4601F02EFE00230022CBF644
:101C7000E07301F0A7FBDDE9053201F0C7FE4A463B
:101C8000534602F057F968B14046002102F08AF944
:101C9000032101EB4701002801FB05F0BCD02546DC
:101CA000C2E744464FFA8BF001F00DFE0023C3F665
:101CB000E073002201F086FB4FFA84FABAF1010FBB
:101CC00065DBDDE9033280460F46741E01F09EFE9F
:101CD000079D064604FB05F06043894601F0F3FDCD
:101CE000044606913046494642463B4601F08EFE88
:101CF000069B224601F066FB064608980F4668439D
:101D000001F0E1FD02460B463046394601F088FFFE
:101D100001F026FB4FF003080646A8EB4A000AF143
:101D2000010700FB05F44FEA450928E04FFA8BF064
:101D30000221079A01EB4000A8EB4A015143089A9F
:101D40000BF1010B00FB021002F096F90146304640
:101D500002F080F8064609984FFA8BF10A180A99A2
:101D6000149DCB19023B0095159D1BB2AAF1010AE7
:101D70000195FFF73DF9013F012F4C4407DD304647
:101D8000002102F001F90028D0D02046DCE70BB09A
:101D9000BDE8F08FF0B581B000F0DAFDAE20002193
:101DA000002400F001FED520002100F0FDFD5020B0
:101DB000002100F0F9FDA820002100F0F5FD3F20F2
:101DC000002100F0F1FDD320002100F0EDFD002006
:101DD000002100F0E9FD4020002100F0E5FD8D200C
:101DE000002100F0E1FD1420002100F0DDFD2020A5
:101DF000002100F0D9FD0220002100F0D5FDA12036
:101E0000002100F0D1FDC020002100F0CDFDDA203E
:101E1000002100F0C9FD1220002100F0C5FD812045
:101E2000002100F0C1FDEF20002100F0BDFDD92010
:101E3000002100F0B9FDF120002100F0B5FDDB200C
:101E4000002100F0B1FD3020002100F0ADFDA42004
:101E5000002100F0A9FDA620002100F0A5FDAF2083
:101E6000002100F0A1FD40F26800C2F20000A0F1E4
:101E700008052846002100BF80220346013A03F8E6
:101E8000084FFBD10131082900F10100F4D10024F1
:101E9000A4F15000C0B2002100F086FD0020002116
:101EA00000F082FD1020002100F07EFD80262F46EC
:101EB00017F8080F012100F077FD013EF8D1013439
:101EC000082C05F10105E3D101B0F0BD70B540F279
:101ED00068050024C2F20005A4F15000C0B2002140
:101EE00000F062FD0020002100F05EFD10200021C6
:101EF00000F05AFD6FF00706A819007A012100F0E2
:101F000053FD0836B6F57E7FF6D10134082C05F175
:101F1000010508BF70BDDFE72DE9F04F87B00390E2
:101F2000109805919A421946B0FA80F006930492EF
:101F300038BF114600294FEA501648D0DDE903A802
:101F4000DDE9057B4FF00009029100BF109D5FFAAB
:101F500089F45046394642465B4600940195FFF7A6
:101F600025FDFFF7B3FF5046394642465B460094D5
:101F70000196FFF71BFD02994C4609F101095FFA32
:101F800089F08842E2D3200624D0DDF84090DDE9D4
:101F9000058ADDE9037B00BF3546E6B23846414697
:101FA0005A4653460096CDF80490FFF7FFFCFFF722
:101FB0008DFF384641465A46534600962E460195B7
:101FC000FFF7F4FC013C2006E6D1002406E0FF24E4
:101FD0002006DAD1DDE9058ADDE9037BE0B2009075
:101FE000384641465A4653460196FFF7DFFC07B094
:101FF000BDE8F08F2DE9F04F9FB003FB03F681465B
:1020000030461C4615468B4601F05DFC05FB05F786
:10201000CDE91110384601F056FC804660428A46F0
:1020200001F051FC0023C3F6D073002201F0CAF97D
:1020300002460B4640465146CDF86480CDF860A07C
:1020400001F0E4FCDDE9113201F0BCF901F088F99E
:10205000099006FB07F015961B97002601F033FC4C
:102060000D9055EA04000C9100F06C82A9EB05017B
:102070002898069104EB0B01059105EB09010491E9
:10208000ABEB0401B0FA80F00391400929461A90A5
:10209000002D18BF01211B98002240001C90CDE9A3
:1020A0000754CDF850B0CDF85C9000BF0F9110925E
:1020B000A91AA21B06EB0B00D2B2C9B2289FCDE928
:1020C0001D12CDE90012C3B2484659464A460E9346
:1020D0000297FEF709FF75B2284601F0F4FB0023D2
:1020E0000022CBF6E0734FF0000801F06BF9DDE958
:1020F000183201F08BFCDDE9113201F029FF0028D4
:102100001396169552D1DDF824A0DDF854900027DF
:102110004FF00008B34635E001F0AEFF01465046EF
:1021200001F098FE1D9B82461798149908F101084A
:1021300000931E9B08EB00070BEB01020193D3B247
:10214000FAB2289F0297FEF7CFFE4FFA88F7781C65
:1021500000FB09F001F0B7FB4FFA8BF50446284667
:102160000E4601F0B0FB00230022CBF6E07301F035
:1021700029F9DDE9183201F049FC2246334601F025
:10218000D9FEA0B15046002101F00CFF032101EB64
:102190004701002801FB09F0BED102211B9AA1EBE7
:1021A000450101FB0200ABF1010BB5E7B3464FFA65
:1021B00088F001F088FB00230022C3F6E07301F0F1
:1021C00001F94FFA8BFADDF850B0179FDDF8A090B7
:1021D000BAF1010F62DBDDE9113204460E46013D22
:1021E00001F014FC81461B980A916843684301F092
:1021F0006AFB0B910A9905464846DDF8A0902246F5
:10220000334601F003FC0B9B2A4601F0DBF8DDE9C5
:102210000C3201F005FD01F0A3F8054603201B99DF
:10222000A0EB4A000AF1010401FB00F62EE000BF1A
:102230004FFA88F0022101EB400003211B9AA1EB29
:102240004A015143159A08F1010800FB021001F000
:1022500013FF0146284601F0FDFD1D9A04EB0B011A
:1022600000921E9A054608EB070002390192C2B29D
:10227000CBB238465946AAF1010ACDF80890FEF7CC
:1022800033FE1C98013C012C064407DD2846002142
:1022900001F07AFE0028CBD03046D8E70698109B94
:1022A000139E0599049A1844891BD21AC5B25FFA85
:1022B00082FACCB22846214652462346CDF80090F9
:1022C000FEF75EFA0398524630445FFA80F82846DB
:1022D00041464346CDF80090FEF752FA2846214683
:1022E0002A464346CDF80090FEF74AFA504621466A
:1022F00052464346CDF80090FEF742FAFFF7E6FD5E
:102300001A9E28462146524623460096FEF738FA82
:1023100028464146524643460096FEF731FA284683
:1023200021462A4643460096FEF72AFA50462146A1
:10233000524643460096FEF723FA1D980E9B0090E6
:102340001E985946019038463A460296FEF7CCFD53
:10235000169801F0B8FA00230022CBF6E0734FF094
:10236000000A01F02FF8DDE9183201F04FFBDDE93A
:10237000113201F0EDFD002854D1099DDDF84C80AB
:10238000159C00274FF0000A36E000BF179E01F0B1
:1023900073FE0146284601F05DFD1D9A0AF1010A0F
:1023A00000921E9A05460AEB060008EB0B011A9FE5
:1023B0000192CBB2C2B2304659460297FEF794FD65
:1023C0004FFA8AF7781C604301F07DFA81464FFA94
:1023D00088F00E46169001F076FA00230022CBF624
:1023E000E07300F0EFFFDDE9183201F00FFB4A4621
:1023F000334601F09FFDB8B12846002101F0D2FD1F
:10240000032101EB4701002801FB04F0BED1169A1D
:102410000221A1EB42011B9AA8F1010801FB020075
:10242000B4E700BFDDF84C804FFA8AF001F04BFAB8
:1024300000230022C3F6E07300F0C4FF4FFA88F8CF
:10244000DDF85C90B8F1010F64DB04461698DDE915
:102450001132471E20460D4601F0D8FA83461B98DC
:102460000E467843784301F02EFA074616915846F7
:10247000DDF850B0314622462B4601F0C7FA169BD4
:102480003A4600F09FFFDDE90C3201F0C9FB00F095
:1024900067FF054603201B99A0EB480008F10104E3
:1024A00001FB00F72EE000BF4FFA8AF0022101EB9A
:1024B000400003211B9AA1EB48015143159A0AF1F0
:1024C000010A00FB021001F0D7FD0146284601F089
:1024D000C1FC1D9A04EB0B0100921E9A05460AEB03
:1024E000090002391A9E0192C2B2CBB2484659463F
:1024F000A8F101080296FEF7F7FC1C98013C012C9C
:10250000074407DD2846002101F03EFD0028CBD01E
:102510003846D8E70F98109A139E00F00100079DE7
:102520000244F1B2D0B2A9424FF0000138BF0136E7
:10253000A84238BF0121089CFFF4B8ADF0B2A04218
:10254000FFF4B4AD1FB0BDE8F08F00002DE9F04FEF
:1025500089B00F468146129C184619469A4238BFE8
:102560001046089388BF114603914108B4FA84F0DD
:1025700015464FEA501B4FF0000A06911ED0DDF8B9
:10258000208000BF5FFA8AF6484639462A4643460D
:1025900000960194FFF78EF8FFF798FC48463946FD
:1025A0002A4643460096CDF804B0FFF783F8069913
:1025B0000AF1010A5FFA8AF08842E3D35B46DDF84C
:1025C0000CB0CDF81C90ABF1010B5FFA8BF0884298
:1025D000CDE904352ED95FFA8AF03A46029000BF61
:1025E000089B284659469D4284BF58461946029D7D
:1025F000C6B2CFB248461146914632463B46009598
:102600000194FFF757F8FFF761FC07983B46049FDA
:102610004946324600950197FFF74CF8ABF1010BA4
:1026200006994A46059DDDF81C905FFA8BF08842BA
:10263000D6D801E03A461F4603995FFA8BF08842EC
:102640002DD25FFA8AF00690DDF81880089B594673
:102650009D4284BF5D461946EEB2CFB24846114650
:10266000154632463B46CDF800800194FFF722F82C
:10267000FFF72CFC07983B46049F29463246CDF8CD
:1026800000800197FFF716F803990BF1010B2A461A
:10269000059DDDF81C905FFA8BF08842D6D35FEA87
:1026A0000A601ED0B846089FA34614465FFA8AF611
:1026B000484621462A463B460096CDF804B0FEF730
:1026C000F9FFFFF703FC484621462A463B460096A1
:1026D000CDF80480FEF7EEFFAAF1010A5FEA0A6076
:1026E000E4D109B0BDE8F08F2DE9F04F83B08A4600
:1026F00007460C9918469A4238BF10465FEA5009BF
:10270000B1FA81F09B4615464FEA501002901FD057
:102710004FF000080C9C5FFA88F6384651462A466E
:102720005B4600960194FEF7C5FFFFF7CFFB0096CE
:10273000029E384651462A465B460196FEF7BAFF8E
:10274000464608F101085FFA88F04845E2D300E008
:10275000FF26DDF83080DDF80890300618D000BF85
:10276000F4B2384651462A465B460094CDF80480C0
:10277000FEF7A0FFFFF7AAFB384651462A465B4604
:102780000094CDF80490FEF795FF013E3006E7D1A6
:1027900003B0BDE8F08F00002DE9F04F89B00F467F
:1027A0008146129C184619469A4238BF1046089333
:1027B00088BF114603914108B4FA84F015464FEAE8
:1027C000501B4FF0000A06911ED0DDF8208000BF9C
:1027D0005FFA8AF6484639462A46434600960194EF
:1027E000FEF7FEFFFFF772FB484639462A4643468E
:1027F0000096CDF804B0FEF7F3FF06990AF1010A3E
:102800005FFA8AF08842E3D35B46DDF80CB0CDF87E
:102810001C90ABF1010B5FFA8BF08842CDE90435D7
:102820002ED95FFA8AF03A46029000BF089B2846EC
:1028300059469D4284BF58461946029DC6B2CFB242
:1028400048461146914632463B4600950194FEF7B4
:10285000C7FFFFF73BFB07983B46049F49463246BC
:1028600000950197FEF7BCFFABF1010B06994A46B4
:10287000059DDDF81C905FFA8BF08842D6D801E008
:102880003A461F4603995FFA8BF088422DD25FFAD1
:102890008AF00690DDF81880089B59469D4284BF57
:1028A0005D461946EEB2CFB248461146154632464D
:1028B0003B46CDF800800194FEF792FFFFF706FB40
:1028C00007983B46049F29463246CDF80080019781
:1028D000FEF786FF03990BF1010B2A46059DDDF8F3
:1028E0001C905FFA8BF08842D6D35FEA0A601ED054
:1028F000B846089FA34614465FFA8AF64846214622
:102900002A463B460096CDF804B0FEF769FFFFF774
:10291000DDFA484621462A463B460096CDF804801B
:10292000FEF75EFFAAF1010A5FEA0A60E4D109B08E
:10293000BDE8F08F70470000002941F21801C4F291
:1029400002010A680CBF22EA0000104308607047C9
:10295000B0B582B004200121FFF7EEFFB02040F6B1
:102960000004C1F20300C4F2010401AD019020464D
:102970002946FDF72DFD2046B021FDF78BFD0820EF
:102980000121FFF7D9FF0320C1F2030004F58064A1
:10299000019020462946FDF71BFD20460321FDF747
:1029A00079FD02B0B0BD000070B540F60004C4F27D
:1029B00001040546002904F580604FF0020102D0B1
:1029C000FDF768FD01E0FDF763FD20461021FDF7EE
:1029D0005FFD00260DE000BF20468021FDF758FD79
:1029E00020462021FDF756FD6D00072E06F1010659
:1029F0000CD220462021FDF74BFD68B2B0F1FF3F1D
:102A0000EADC20468021FDF745FDE9E7204610215C
:102A1000FDF740FD04F580600221FDF73BFD70BD30
:102A2000704700004EF21001CEF200010A6804283F
:102A300022F0040208BF04320A60704770470000A9
:102A400082B041F20400C4F2020050F8041C0022DB
:102A500041F0010140F8041C0168CFF6FF0211406B
:102A6000016050F8041C4FF6FF72CFF6F662114079
:102A700040F8041C50F8041C21F4802140F8041C88
:102A8000016821F4FE0101604FF41F014160002143
:102A90000191009150F8041C41F4803140F8041C6D
:102AA00050F8041C01F400310091019901310191A9
:102AB000009919B90199B1F5A06FF1D150F8041C32
:102AC000890354BF0021012100910099012936D1C9
:102AD00042F20001C4F202010A6842F010020A60E8
:102AE0000A6822F007020A600A6842F002020A60DD
:102AF0000168016001680160016841F48061016062
:102B0000016821F47C110160016841F4E811016061
:102B100050F8041C41F0807140F8041C50F8041C6B
:102B20008901FBD5016821F003010160016841F0D2
:102B300002010160016801F00C010829FAD14EF68A
:102B40000850CEF200004FF00061016002B0704703
:102B5000FEE7000080B56FF00400FFF763FF40F26E
:102B60000000C2F2000000684DF68361C4F21B3120
:102B7000A0FB010140F26A42480DC2F2000210704F
:102B8000C1F347504FF47A71484340F26841C2F2B2
:102B90000001088080BD0000FFF7DCFFFDF77EFC30
:102BA000FFF7F8F8FDF798FC40F2B410C4F22220C9
:102BB00000210160FDF758FBFCE7490050EAC12005
:102BC00018BF04204A0D18BF40F0010040F2FF7208
:102BD000B2EB515F08BF40F00200012808BF05209A
:102BE000704700002DE9F74F144694B00021C4E966
:102BF00002111599079121F00045C9498D4206DC63
:102C00001599C4E9000117B00020BDE8F08FC5494F
:102C1000DFF814A3A9423CDD0799C44E0029C44F34
:102C2000C44A1599534619DD00F0FAFF554506D000
:102C3000C14AC24B00F0F4FFC4E900010AE04FF0C2
:102C4000D352BE4B00F0ECFF32463B4600F0E8FFAB
:102C5000C4E9000117B00120BDE8F08F00F0B2FB1D
:102C6000554506D0B44AB54B00F0ACFBC4E90001B1
:102C70000AE04FF0D352B14B00F0A4FB32463B4682
:102C800000F0A0FBC4E9000117B04FF0FF30BDE831
:102C9000F08FAB49A942159978DB21F000418346BA
:102CA0008846A84AA84B00F0B1FE0022A74B00F0CE
:102CB00089FB00F0D9FD099000F005FE06460F469D
:102CC0009C4A534600F0A2FE43465A4600F09CFF41
:102CD00080468A46984A994B3046394600F096FE1F
:102CE0002A0D01250B924246534600F08DFF032D1D
:102CF000C4E9000139D00B98C1F30A51401A05EB21
:102D000045111139814230DA9148C346784400EBCD
:102D10000510CDF80CA00C90D0E9002330463946C0
:102D200000F074FE02460B46049106905846039943
:102D300000F076FF80468A4602460B4658460399C5
:102D400000F06EFF049B069A00F06AFF83460C9821
:102D500003913946D0E90223304600F057FE5A4627
:102D6000039B00F05DFF6D1CBDE707980028A2BF24
:102D7000099817B0BDE8F08F616881F0004161608B
:102D8000099817B04042BDE8F08FFFE784461598D8
:102D9000C1F31301C0F30A50A0F2F5304FEA6018F6
:102DA00000F01F06C6F12000139000200690079047
:102DB00041F4801E05206D4676B1664A08EB00019D
:102DC0007A4452F8213002EB8101B3404A681399EA
:102DD00022FA01F1194305E05F4908EB000279444A
:102DE00051F82210A1FB0E27A1FB0C131A449A42A2
:102DF00034BF0123002303EB070A05EB8003D3E96B
:102E000001B70F448F4234BF0121002193448B440A
:102E100011B1934502D903E0934501D2012100E0AD
:102E20000021C3E901B7514445F82010011EA0F16B
:102E30000100C1DC0298059F00F10050800F129044
:102E40000298DDE90356800000F03DFD83462846E8
:102E50000D9100F04FFD6FF01D0201F014FBCDE964
:102E60000E01304600F046FD6FF03D0201F00BFB15
:102E700080468A46384600F03DFD6FF05D0201F065
:102E800002FB074642465346119100F09BFADDE9EA
:102E90000E2300F097FA5A460D9B00F093FA002596
:102EA0000E465A4628460D9B00F0BAFEDDE90E2379
:102EB00000F0B6FE4246534600F0B2FE3A46119B81
:102EC00000F0A2FEDFF898A0244A534600F09EFDD1
:102ED00007468846234A244B3146284600F096FD93
:102EE0003A46434600F06EFA074688464FF0A8423D
:102EF00053463146284600F089FD3A46434600F0E5
:102F000061FA159A12F0004F04D0129A81F0004134
:102F100052421292C4E90001129817B0BDE8F08F36
:102F2000FB21E93F7CD90240FB21F93F7370032E5E
:102F30008A19A33B000040543163621A61B4D03D4A
:102F4000FB21394183C8C96D305FE43F0000E03F99
:102F500038180000B417000096170000182D4454CC
:102F6000FB21F93D3326A611460B113C2DE9FF4DFF
:102F700021F0004807460C46B8F1795F08DA00F006
:102F800073FC002801BF0020324904B0BDE8F08D79
:102F90003A4623461046194600F038FD05460246DB
:102FA0002D480E460B460621784400F05DF82A466F
:102FB000334600F02BFDDDE9022382468B4638467E
:102FC000214600F023FD04460F4652465B46284644
:102FD000314600F01BFD22463B4600F021FE07462D
:102FE0008A464FF0FF322846314601F04CFA1B4A20
:102FF00090450ADA3A46534600F012FE04B0002229
:10300000BDE8F04D134B00F0FFBD154A4245A8BF87
:10301000A8F500154FF00004B8BF124D22462B460C
:1030200000F0FEFD0646884622462B460020094950
:1030300000F0F6FD04460D463A46534630464146FA
:1030400000F0EEFD04B022462B46BDE8F04D00F046
:10305000DBBD00000000F03F6C1500003333D33FB0
:103060000000E93F0000D23F2DE9F0414F1E00EB88
:10307000C7010446D1E9000115461E4637F0060295
:103080000DD02A46334600F0C1FC7F1E04EBC70377
:10309000D3E9002300F096F937F00602F1D1022FB0
:1030A00025D0042F13D0062F18BFBDE8F0812A4683
:1030B000334600F0ABFCD4E90A2300F083F92A463A
:1030C000334600F0A3FCD4E9082300F07BF92A463C
:1030D000334600F09BFCD4E9062300F073F92A463E
:1030E000334600F093FCD4E9042300F06BF92A4640
:1030F000334600F08BFCD4E9022300F063F92A4642
:10310000334600F083FCD4E90023BDE8F04100F031
:1031100059B900002DE9FF4D054621F0004084B06B
:103120000C46B0F1795F0BDA2846FFF746FD04281C
:1031300008BF00F06FF8284608B02146BDE8F08DC2
:103140002A460B46104600F061FC06460F462A460A
:10315000234600F05BFC804626488A4632463B46C2
:1031600005217844FFF780FF83461098029160B3F1
:10317000214A224B4046514600F048FCCDE900016F
:103180005A4640465146029B00F040FC8246884623
:10319000DDE906014FF0FF3201F075F95246434672
:1031A00000F03EFD32463B4600F030FCDDE90623F0
:1031B00000F036FDDDE9002300F032FD08B02A46BC
:1031C0002346BDE8F04D00F01FBD0B465A46304681
:1031D000394600F01BFC084A084B00F0F3F8424661
:1031E000534600F013FC08B02A462346BDE8F04DD4
:1031F00000F0E8B8B2140000495555555555C5BF03
:10320000012201F040B9002213461046114600F099
:1032100095B90000024A0020110701F034B90000FE
:1032200001FDFFFF00B5244B21F0004287B09A4218
:10323000DCBF0022134629DD204B9A4208D140B959
:103240004FF00100FCF7C8FFFFF7DDFF07B000BD3E
:1032500003DBFFF7D5FF07B000BD02AAFFF7C2FCF2
:1032600010F0030104BF0DF1080C9CE80F000DD015
:10327000012001290ED0022914D00DF1080C009074
:103280009CE80F00FFF746FF07B000BDFFF76EFE9A
:1032900007B000BD0DF1080C00909CE80F00FFF78F
:1032A00039FF05E00DF1080C9CE80F00FFF75EFE0A
:1032B00007B081F0004100BDFB21E93F0000F07F35
:1032C00000B5254B21F0004287B09A4203DC002272
:1032D000134600922BE0214B9A4208D140B94FF09F
:1032E0000100FCF779FFFFF78EFF07B000BD03DB9D
:1032F000FFF786FF07B000BD02AAFFF773FC10F0CE
:1033000003014FF001000DD0012914D002291AD079
:103310000DF1080C9CE80F00FFF728FE07B081F0C4
:10332000004100BD0DF1080C00909CE80F00FFF774
:10333000F1FE07B000BD0DF1080C9CE80F00FFF78F
:1033400015FE07B000BD0DF1080C00909CE80F00C1
:10335000FFF7E0FEE2E70000FB21E93F0000F07F1D
:1033600021F0004201F00043A2F16052B2F5801F4B
:1033700028BFD2F17F6C0BD95FEA001C43EAC2027E
:1033800042EB507018BF704728BF20F00100704713
:10339000B2F5801FBCBF184670474FEA410C1CF5C0
:1033A000001F02D2084600F0C2BF70B500F0D8FB83
:1033B00000000089FFF7F6BF4FF00040A0F5800045
:1033C0007047000010B591EA030F48BF83F0004337
:1033D00000F12E84841A71EB030C05D2121943EB11
:1033E0000C03001B61EB0C014FEA1154A4EB135CBE
:1033F000DFF81CE11EEA430F18BF9EEA445F00F0AD
:10340000748021EA045123EA0E0343F48013DCF1B3
:10341000200E32D322FA0CFE10EB0E0023FA0CFE23
:1034200041EB0E01CCF1200E03FA0EFE10EB0E0064
:10343000CCF1200E51F10001B1F5801F32D201EB29
:10344000045112FA0EF2BDE8104058BF7047401CFC
:1034500038BF5FEA420218BF7047002814BF20F04F
:10346000010041F100014FEA410313F5001F38BF8D
:103470007047A1F1C04100F0C1BB012A43EB030238
:10348000ACF1200CDCF11F0E32BF4FF0000E23FA1E
:103490000CF310EB030041EB0451B4EB115FD0D0FF
:1034A000A1EB045101F58011490801EB04515FEAD9
:1034B00030000ED350F1000038BF12FA0EFE08D1D2
:1034C000BDE81040C9E7401C38BF5FEA4202CAD1DC
:1034D000C3E7BDE810404FEA410313F5001F38BFB2
:1034E0007047A1F1C04100F089BB9EEA445F08D05B
:1034F00011EA5E0FBDE8104004BF01F0004100205A
:103500007047BDE8104070B500F02AFB64FBBE3E7A
:103510000000E0FF02494FF0000000F082BF00BF52
:103520000000F87F491058BFC1F140415B1058BFFF
:10353000C3F140438B42EFF3008070472DE9C04157
:1035400030B4DFF8A4C23CEA111418BF3CEA1314EB
:1035500000F0ED801CEA111481EA030544EAD574F9
:1035600018BF1CEA131500F0C880A4EB050404F191
:103570007F7404F500344FF0004545EAC12145EA67
:10358000C32341EA505143EA52534FEAC0204FEA65
:10359000C222994208BF904200F09D804FEA136515
:1035A0000FF24416765D4FEA134506FB05F7C7F1A7
:1035B000807706FB07F74FEAD737A7FB0368764209
:1035C000A7FB06CEC8F5803838BFA8F1010807FB75
:1035D00008E6A6FB028C4FF0000EE6FB03CEDCF102
:1035E000000CCEF1004E38BFAEF1010EA6FB0C5818
:1035F0004FF00007E6FB0E87A1FB08C6A0FB07CE35
:1036000016EB0E064FF0000545F10005E1FB0765DE
:1036100015F1E04E7EBFA4F580345FEA46066D41A9
:1036200016F1800745F100054FEA172747EA0567BD
:103630004FEA15254FEA0666A6F1DE46B6F1805F31
:1036400020D9384605EBC47124F0010C01EB0C11B4
:10365000BCF1FE6F02D8F0BCBDE8008124425CBF23
:1036600001F5801E9EEAC47F02D4F0BCBDE8008153
:10367000244200F13980A1F1C041F0BCBDE8004115
:1036800000F0BCBA4FEAD02040EA41504FEAD121C5
:103690004FEAD22242EA43524FEAD323A7FB0286E3
:1036A00007FB036605FB02661EEA0E0F58BFA6EB7A
:1036B0000056B6EB00564FEA520E4EEAC37E18EBA8
:1036C0000E0E56EB530EBCD518EB02085E417F1C64
:1036D00055F10005B5E74FF480154FF000074FF0A6
:1036E00000064FF00008ACE701F1C04101F00041D5
:1036F0004FF00000F0BCBDE800810CEA131511EAA0
:103700000C1F00D00CE013EA0C1F00F026804FF0D5
:10371000000081EA030101F00041F0BCBDE8008136
:10372000F0BCBDE8004181EA030100F067BAF0BCDB
:10373000BDE8004170B500F013FA00BF097EFC3E01
:1037400000F007B84FF0000081EA030101F00041EA
:10375000704781EA030100F051BAF0BCBDE80041B6
:1037600022494FF000007047FFFDFBF9F7F5F4F236
:10377000F0EEEDEBE9E8E6E4E3E1E0DEDDDBDAD80C
:10378000D7D5D4D3D1D0CFCDCCCBCAC8C7C6C5C46A
:10379000C2C1C0BFBEBDBCBBBAB9B8B7B6B5B4B381
:1037A000B2B1B0AFAEADACABAAA9A8A8A7A6A5A46C
:1037B000A3A3A2A1A09F9F9E9D9C9C9B9A99999830
:1037C0009797969595949393929191908F8F8E8ED3
:1037D0008D8C8C8B8B8A8989888887878685858460
:1037E00084838382828181800000FF070000F87F4C
:1037F00051EA030C17D41CF5801F58BFBCF5801F7D
:1038000000F10680994218BF704708BF9042704788
:1038100007D711F5801F58BF13F5801F19D499429F
:103820007047894270471CF5801F08D5BCF5801F82
:10383000F7D58B4218BF704708BF824270474FF4DC
:10384000001C1CEB410F38BF1CEB430F01D28B4215
:10385000704770B500F084F9922449004FF0005190
:103860004FF08053FFF75EBE4FEA41034FEA5353D8
:10387000A3F58063D3F11E03C8BFD3F1210C0CDD87
:103880004FF0004242EAC12242EA505232FA03FCAF
:103890008CEAE17CACEBE1707047102BC4BF0020D8
:1038A000704703F5787CBCF1FF3F04D06FF0004215
:1038B00082EA2100704770B500F052F949922480E5
:1038C00000207047F2E710F0004248BF4042B0FAD3
:1038D00080F310FA03F10AD0C3F11D0303F58063EE
:1038E00002EB03524FEA415002EBD12170474FF0F7
:1038F00000007047B0FA80F310FA03F10AD0C3F168
:103900001D0303F580634FEA03524FEA415002EB77
:10391000D12170474FF000007047000051EA030CBE
:1039200017D41CF5801F58BFBCF5801F00F106801E
:10393000994218BF704708BF9042704707D711F5EA
:10394000801F58BF13F5801F19D4994270478942D0
:1039500070471CF5801F08D5BCF5801FF7D58B423A
:1039600018BF704708BF824270474FF4001C1CEB21
:10397000410F38BF1CEB430F01D28B42704770B52B
:1039800000F0EEF8922449004FF080514FF00053C0
:10399000FFF7C8BD51EA030C17D41CF5801F58BFB0
:1039A000BCF5801F00F10680994218BF704708BF20
:1039B0009042704707D711F5801F58BF13F5801F3D
:1039C00019D499427047894270471CF5801F08D569
:1039D000BCF5801FF7D58B4218BF704708BF8242E5
:1039E00070474FF4001C1CEB410F38BF1CEB430F1A
:1039F00001D28B42704770B500F0B2F892244900B2
:103A00004FF000514FF08053FFF78CBD70B5DFF8D9
:103A100048C11CEA111E1EBF1CEA13159EEA0C0FBA
:103A200095EA0C0F00F06F8081EA03044EEAD47E21
:103A3000AE4421EA4C1123EA4C1341F4801143F4C3
:103A40008013AEF17F7EA1FB024CA0FB036536190B
:103A500055EB0C05A1FB034C4CF10003A0FB021C31
:103A600016EB0C06654153F10003094218BF46F0FE
:103A7000010613F4007F0BD14FEA03314FEA053002
:103A800041EA155140EA165034036FF003020AE090
:103A90004FEAC3214FEAC52041EA555140EA56504A
:103AA000F4026FF0020202EB2E4201EB025585EAAE
:103AB000CE710AD05FEA440C18BF24F0004450F1E4
:103AC000000041F1000120EAD47040F2FE7C624522
:103AD00000D270BDA84214BF4FF080444FF0404464
:103AE000002E08BF0024BEF1806FA8BFA1F1C04125
:103AF000BDE8704080F2828001F1C04101F00041D8
:103B00004FF0000070470CEA13159EEA0C0F18BF27
:103B100095EA0C0F06D081EA030E4FF000000EF07C
:103B2000004170BD00F01CF88900013E00F007B8AC
:103B300000F009B84FEA430C5FEA5C5C08D081EA08
:103B4000030100F05BB84FEA410C5FEA5C5CF6D120
:103B500002494FF0000070470000FF070000F87FA7
:103B60000EF1020E2EF0030E5EF8046B364205D401
:103B7000012A43EB030515F5001F12D8012841EB7C
:103B8000010C1CF5001F0CD80ED14FEAD17C0CEBB8
:103B90004C0C0CF1020C15F5001F08BF4CEBD37C4C
:103BA00004E04FF0080C01E04FEAD37C0CEB4C052D
:103BB00026FA05F606F00706B6F1040C06D20EEB5F
:103BC000860CBDE870404CF0010C6047DFE80CF05B
:103BD000090B02024FF00041A1F500214FF0000057
:103BE00070BD19461046012851EB010418BFD4F5E9
:103BF000001484BF002001F0004170BD0808A0F54A
:103C000000114FEA3101704710B591EA030F81F0BE
:103C100000413FF5DFAB83F0004300F009B800003E
:103C200010B591EA030F48BF83F000433FF5D2ABD4
:103C3000841A71EB030C07D28CF0004C121943EB81
:103C40000C03001B61EB0C014FEA1154A4EB135C55
:103C5000DFF8A4E11EEA430F18BF9EEA445F00F0BC
:103C6000B48021EA045123EA6E035242C3EB6E038F
:103C700038BF5B1EDCF1200E25D322FA0CFE10EBC0
:103C80000E0043FA0CFE41EB0E01CCF1200E03FABC
:103C90000EFE10EB0E00CCF1200E51F1000129D4E4
:103CA00001EB045112FA0EF2BDE8104058BF704704
:103CB000401C1CBFB2F1004F704700280CBF491CCC
:103CC00020F00100704712EB020E43EB030218BF15
:103CD0004FF0010E4EEA4202ACF1200CDCF11E0E58
:103CE00056D943FA0CFE10EB0E00CCF11E0E51F12A
:103CF000FF31D5D50EF1010E12FA0EFE404141EB17
:103D0000010101EB445C5FEA5C5C10D901EB0451FA
:103D100010EBDE7038BFBEF1004FBDE8104018BF99
:103D2000704700280CBF491C20F00100704734D2B6
:103D30004FEAD42C24F4006411F500111BD0B1FA21
:103D400081F20B3AA41AA41ED2F12003914030FA5A
:103D500003F31943904001EBCC7101EB0451002CAB
:103D6000BDE81040A8BF704701F1C04101F000411B
:103D70004FF000007047B0FA80F310FA03F102D15F
:103D8000BDE810407047E41A173C4805C90AE2E74D
:103D900001EB0451BDE81040704749104FEA300074
:103DA00001EB0451BDE8104002E04FF00001704704
:103DB0004A0008BF0042F8D0B2F5001F28BF704784
:103DC00001F000414FF0000070479EEA445F07D0C9
:103DD00011EA5E0FBDE8104004BF002100207047CB
:103DE000BDE8104070B5FFF7BBFE00BF40DFF63EF8
:103DF000104683F0004170470000E0FF43004FEAA7
:103E0000D30C4FEA3C0C43401FBF40070CF16051FC
:103E100013F0FE4F70471CF0006F03D10CF000410F
:103E2000002070470CF0004343EA507040EACC0099
:103E300010B500F036FA00BF000000924FEA000112
:103E4000FFF7DCBE4FF00041A1F500214FF000006C
:103E50007047000090EA010F48BF81F0004100F177
:103E60007282421A3CBF801A89184FEAD052A2EBE4
:103E7000D1534FF07F4C1CEA410F18BF9CEA026FF0
:103E800000F03B804FF0004C4CEA00204CEA01214E
:103E900021FA03FC10EB0C0C1ED202F1FF325FEA98
:103EA0001C2040EBC25038BF70471CF07F0F4FEA18
:103EB000400C18BFBCF17F4F38BF7047C3F12003DF
:103EC000994008BF20F00100BCF17F4F38BF704718
:103ED000A0F1C04000F02BBA4FEA3C00000A40EBD2
:103EE000C25028BF1CF0FF0F4FEA400CE6D018BFAD
:103EF000BCF17F4F38BF7047EAE79CEA026F05D0FC
:103F000010EA5C0F08BF00F00040704710B500F0E9
:103F1000C8F900BF64FBBE3E10B5FFF769FC0CBFDB
:103F20000120002010BD10B5FFF762FC14BF012076
:103F3000002010BD10B5FFF7F1FC8CBF0120002060
:103F400010BD10B5FFF7EAFC2CBF0120002010BD0A
:103F500010B5FFF71FFD94BF0120002010BD10B564
:103F6000FFF718FD34BF0120002010BD10B500F090
:103F700033F80CBF0120002010BD10B500F02CF864
:103F800014BF0120002010BD10B500F0A1F88CBFB7
:103F90000120002010BD10B500F09AF82CBF0120C0
:103FA000002010BD10B500F0C7F894BF012000201C
:103FB00010BD10B500F0C0F834BF0120002010BDC6
:103FC000401058BFC0F14040491058BFC1F14041B6
:103FD0008142EFF30080704750EA010C00F113803A
:103FE0001CF5000F58BFBCF5000F01D48842704784
:103FF00007D710F5000F58BF11F5000F15D48842F0
:104000007047894270471CF5000F04D5BCF5000FBE
:10401000F7D5814270474FF0807C1CEB400F38BFD2
:104020001CEB410F01D28142704710B500F039F905
:10403000922449004FF000504FF08051FFF7C0BF6D
:1040400041000B0ED3F19E0208D950F400034FEA51
:10405000032323FA02F048BF4042704710B500F036
:1040600020F900BF49922480002070476FF0004281
:1040700082EA20007047000010F0004148BF404233
:10408000B0FA80F310FA03F2C3F19D030BD051EAAA
:10409000C35101EB1220530638BF704700F10100F5
:1040A00008BF20F001007047B0FA80F310FA03F265
:1040B000C3F19D030AD0D90501EB1220530638BF86
:1040C000704700F1010008BF20F0010070470000B8
:1040D00050EA010C00F113801CF5000F58BFBCF52D
:1040E000000F01D48842704707D710F5000F58BF62
:1040F00011F5000F15D488427047894270471CF5AE
:10410000000F04D5BCF5000FF7D5814270474FF082
:10411000807C1CEB400F38BF1CEB410F01D2814269
:10412000704710B500F0BDF8922449004FF0805060
:104130004FF00051FFF744BF50EA010C00F113802B
:104140001CF5000F58BFBCF5000F01D48842704722
:1041500007D710F5000F58BF11F5000F15D488428E
:104160007047894270471CF5000F04D5BCF5000F5D
:10417000F7D5814270474FF0807C1CEB400F38BF71
:104180001CEB410F01D28142704710B500F089F855
:10419000922449004FF000504FF08051FFF710BFBC
:1041A0004FF47F0C1CEAD0121EBF1CEAD11392EA16
:1041B0000C0F93EA0C0F00F0478090EA010F48BF04
:1041C00042F480724FF0004C4CEA00204CEA01218E
:1041D00002EB0302A0FB0113A2F50002002918BFA5
:1041E00043F001035B0028BF4FEA330342EB224256
:1041F0005FEA132C4CEBC2502EBFBCEB436FB2F501
:104200007C0F70474FEA036CBCF1004F08BF20F0F1
:104210000100B2F57C0F38BF70470BD582F0FF026A
:1042200012F5803FC8BF704700F1C040D8BF00F012
:104230000040704700F5000C5FEA4C0C48BF704727
:10424000B0F1C04000F073B80CEAD11390EA010F4E
:1042500048BF42F48072624538BF634504D280EAA9
:10426000010000F00040704710B500F01AF800BFE0
:104270008900013E00F007B800F009B85FEA410C80
:104280005FEA1C6C08D080EA010000F050B85FEAD9
:10429000400C5FEA1C6CF6D14FF00040A0F58000A6
:1042A00070470EF1020E2EF0030E5EF8044B24420E
:1042B00004D44FEA4102B2F17F4F11D84FEA4003D4
:1042C000B3F17F4F0CD80ED14FEAD07C0CEB4C0CE5
:1042D0000CF1020CB2F17F4F08BF4CEBD17C04E033
:1042E0004FF0080C01E04FEAD17C0CEB4C0324FAB0
:1042F00003F404F00704B4F1040C06D20EEB840CB2
:10430000BDE810404CF0010C6047DFE80CF00708F6
:1043100002024FF00040A0F5800010BD08464200A8
:1043200018BFD2F1807288BF00F0004010BDFF219D
:1043300041EAD050C005704790EA010F48BF81F0B4
:1043400000413FF58EAD421A04D882F00042A0EB46
:10435000020011444FEAD052A2EBD1534FF07F4CF0
:104360001CEA410F18BF9CEA026F4AD04FF0004C84
:104370004CEA00204CEA012121FA03FCB0EB0C0CC2
:104380000FD412F0FE0F36D05FEA4C001DD500129C
:1043900040EBC25038BF70471CF03F0F18BF70474A
:1043A0000BE05FEA1C20A2F1010240EBC25038BFD3
:1043B00070471CF07F0F18BF7047C3F1200399406E
:1043C00014BF401E20F0010070474FEA12238008FE
:1043D00008BF7047B0FA80FCA2EB0C02CCF1280CAD
:1043E00060FA0CF093EA122F04BF00EBC250704742
:1043F0004FEAC3707047130A5FEADC1008BF7047CA
:10440000F6E79CEA026F04D010EA5C0F08BF0020B8
:10441000704710B5FFF745FF40DFF63E81F00040E2
:1044200070470CF00F03092B08BF082000F05980DB
:104430000A2B0BD0082B18BF704708BF1CF0400F89
:104440000AD04FF000004FF0000170471CF0400F01
:1044500018BF4FF0004070471CF0100F08D000F05C
:104460007F4220F0704342EAD3014FEA4370704725
:1044700000F0604021F07F4242EA000201F07F40FC
:1044800040EA727070474FF0FF0C4CF4E06C1CEA8D
:1044900011531CBF9CEA030C9445C2BFDA4201EBE6
:1044A00002517047002B0DD0BCF1000F0FD001F06E
:1044B0000041002AA4BF41F0E04141F07F614FF08C
:1044C0000000704701F000414FF00000704750EAD3
:1044D00001334FF09B0C18BF4CF0806C7FF41AA88E
:1044E00070471CF4801F11D01CF4E02F03D06FEA3A
:1044F000CC31490070474FF04050EFF3008222F07A
:10450000704242EA000282F3008870474FF00000D8
:1045100070470000000000004C5555555555A53F0B
:104520007751C1166CC156BF9015CB19A001FA3E48
:10453000AD529C804F7E92BEC4B1B4BD9EEE213E72
:10454000D43888BEE9FAA8BD00004054FB21F93FE9
:104550003163621A61B4D03D0000601A61B4D03D8D
:104560007370032E8A19A33B0000002E8A19A33B07
:10457000C14920259A837B3900000000000000001B
:104580006E83F9A22915444ED15727FCC0DD34F5BE
:10459000999562DB4190433CAB6351FE61C5BBDE44
:1045A0003A6E24B7E0D24D42EA2E49061C92D10958
:1045B0001CEB1DFE3EA729B1F53582E88444BB2ED5
:1045C00026709CE9417E5FB439D69139F439538322
:1045D0008B5F849C3B28F9BDFF97F81F0F9805DE81
:1045E0008B112FEF1F6D0A5ACF7E366DB709CB277F
:1045F000663F464F2DEA5F9EC7BA27757BF1E5EB14
:10460000F739073DEA92528AB15FFB6B085D8D1F57
:104610004630035600000000A6F810111111813F2A
:10462000D561C119A0012ABF7DFEB157E31DC73E68
:10463000EB9C2B8AE6E55ABE7CD5CF5A3AD9E53DAC
:104640006046000800000020080000002801000863
:104650006846000808000020680A000044010008BD
:0846600000A24A040000000062
:04000005080000ED02
:00000001FF
