:020000040800F2
:10000000484F0020C9010008ED0300089D030008C7
:10001000E903000879020008DB1300080000000073
:100020000000000000000000000000004110000877
:100030007D020008000000006B0800085511000850
:10004000E3010008E3010008E3010008E301000800
:10005000E3010008E3010008E3010008E3010008F0
:10006000E3010008E3010008E3010008E3010008E0
:10007000E3010008E3010008E3010008E3010008D0
:10008000E3010008E3010008E3010008E3010008C0
:10009000E3010008E3010008E3010008E3010008B0
:1000A000E3010008E3010008E3010008E3010008A0
:1000B000E3010008E3010008E3010008E301000890
:1000C000E3010008E3010008E3010008E301000880
:1000D000E3010008B9110008E3010008E30100088A
:1000E000E3010008E3010008E301000800F002F862
:1000F00000F05AF80AA090E8000C82448344AAF168
:100100000107DA4501D100F04FF8AFF2090EBAE865
:100110000F0013F0010F18BFFB1A43F0010318473B
:10012000C02D0000E02D00000A444FF0000C10F834
:10013000013B13F0070408BF10F8014B1D1108BF65
:1001400010F8015B641E05D010F8016B641E01F805
:10015000016BF9D113F0080F1EBF10F8014BAD1C55
:100160000C1B09D16D1E58BF01F801CBFAD505E073
:1001700014F8016B01F8016B6D1EF9D59142D6D3CD
:10018000704700000023002400250026103A28BFF5
:1001900078C1FBD8520728BF30C148BF0B607047F9
:1001A0001FB51FBD10B510BD00F038F81146FFF7A0
:1001B000F7FF01F05FF900F056F803B4FFF7F2FF24
:1001C00003BC01F00CF900000948804709480047CA
:1001D000FEE7FEE7FEE7FEE7FEE7FEE7FEE7FEE7F7
:1001E000FEE7FEE704480549054A064B7047000054
:1001F00059110008ED00000848490020484F002030
:10020000484B0020484B00207047704770477047AC
:100210007047000000487047E84800207546FFF727
:10022000F9FFAE4605006946534620F007008546B3
:1002300018B020B5FFF7D6FFBDE820404FF000060C
:100240004FF000074FF000084FF0000B21F00701BE
:10025000AC46ACE8C009ACE8C009ACE8C009ACE801
:10026000C0098D46704710B50446AFF300802046A4
:10027000BDE81040FFF7A1BF00BFFEE770472DE9C2
:10028000F04102460025002600200023002400271C
:1002900091F803C00CF00F0591F803C00CF0100C9E
:1002A000BCF1000F03D091F802C04CEA050591F8AB
:1002B00000C0BCF1000F31D0146800202BE04FF0DB
:1002C000010C0CFA00F3B1F800C00CEA03069E42E0
:1002D00020D183004FF00F0C0CFA03F7BC4305FA52
:1002E00003FC4CEA040491F803C0BCF1280F06D1CA
:1002F0004FF0010C0CFA00FCC2F814C00AE091F8AF
:1003000003C0BCF1480F05D14FF0010C0CFA00FC02
:10031000C2F810C0401C0828D1D31460B1F800C046
:10032000BCF1FF0F34DD546800202EE000F1080C12
:100330004FF0010808FA0CF3B1F800C00CEA03060C
:100340009E4221D183004FF00F0C0CFA03F7BC43FF
:1003500005FA03FC4CEA040491F803C0BCF1280F31
:1003600005D100F1080C08FA0CF8C2F8148091F8D5
:1003700003C0BCF1480F07D100F1080C4FF0010891
:1003800008FA0CF8C2F81080401C0828CED354603C
:10039000BDE8F081416170470161704700BFFEE731
:1003A000F8B506460D4614460121304600F06EFAB7
:1003B000ADF8004010208DF8030003208DF80200F6
:1003C00069462846FFF75BFF21462846FFF7E4FF12
:1003D000F8BD000010B54FF4005202491020FFF79D
:1003E000DFFF10BD0010014000BFFEE770470000B6
:1003F00070B5002100230F22C47804B3154C246883
:1004000004F4E064C4F5E064210AC1F10403CA40C5
:10041000447804FA03F184781440214309010E4C16
:100420000678A155047804F01F050124AC40057836
:100430006D11AD0005F1E025C5F8004109E0047833
:1004400004F01F050124AC40044D0678761145F8F0
:10045000264070BD0CED00E000E400E080E100E02B
:1004600070B500240CE0002506E00020074901EBF0
:10047000C5010855681CC5B2802DF6DB601CC4B2EE
:10048000082CF0DB00F0A6F870BD00001405002079
:10049000F0B5144600267F2801DC3F2900DDF0BDC1
:1004A0000B46CF1701EB5777FF10C7F10707FAB2DA
:1004B000CF1701EB5777FF10A1EBC707FDB2C5F1CE
:1004C00007070123BB40DEB24CB10A4B03EBC0036C
:1004D0009B5C3343074F07EBC007BB5408E0054B59
:1004E00003EBC0039B5CB343024F07EBC007BB5455
:1004F00000BFD4E71405002010B500F00BFD10BDBF
:1005000010B5FFF7F9FF0021AE2000F0A6F9002199
:10051000D52000F0A2F90021502000F09EF9002122
:10052000A82000F09AF900213F2000F096F9002160
:10053000D32000F092F90021084600F08EF9002146
:10054000402000F08AF900218D2000F086F900217A
:10055000142000F082F90021202000F07EF9002113
:10056000022000F07AF90021A12000F076F90021A4
:10057000C02000F072F90021DA2000F06EF90021AD
:10058000122000F06AF90021812000F066F90021B4
:10059000EF2000F062F90021D92000F05EF900217F
:1005A000F12000F05AF90021DB2000F056F900217B
:1005B000302000F052F90021A42000F04EF9002173
:1005C000A62000F04AF90021AF2000F046F9FFF71D
:1005D00047FF10BD70B500241CE004F1B001C8B2A3
:1005E000002100F03AF90021084600F036F9002118
:1005F000102000F032F9002508E0084901EBC501A0
:10060000085D012100F029F9681CC5B2802DF4DBDA
:10061000601CC4B2082CE0DB70BD00001405002093
:100620002DE9FE4F07460D4690469B460C9C7F2FBA
:1006300001DC3F2D01DDBDE8FE8FB9462E46204688
:10064000E21704EB5272D2102146E31704EB537306
:10065000DB10A4EBC3030BB1012300E000231A4419
:1006600002FB0BF292B201924FF0000A36E098F8CA
:10067000000002900020009026E0029800F0800028
:1006800028B1314648460D9AFFF702FF09E00D9860
:1006900008B9012000E00020024631464846FFF735
:1006A000F7FE02984006000E0290701CC6B2701B46
:1006B000A04205D12E4609F1010000F0FF0906E035
:1006C0000098401C80B2009000980828D5DB00BF3D
:1006D00008F101080AF101001FFA80FA0198824529
:1006E000C5DB00BFA7E700002DE9F84F80460F46A5
:1006F00016461C46BA462046E31704EB5373DB103C
:1007000021464FEAE47C04EB5C7C4FEAEC0CA4EB62
:10071000CC0CBCF1000F02D04FF0010C01E04FF007
:10072000000C6344224604EBD27C4FEA6C0C03FBC2
:100730000CF303F0FF0BA6F12000C6B200254EE03B
:100740000C2C07D106EB4600274901EB8000405DE9
:10075000009013E0102C05D1244800EB0610405DFA
:1007600000900BE0182C07D106EBC600204901EBE6
:100770008000405D009001E0BDE8F88F4FF0000977
:1007800027E0009800F0800028B1394640460A9AD8
:10079000FFF77EFE09E00A9808B9012000E000207A
:1007A000024639464046FFF773FE00984006000EA9
:1007B0000090781CC7B2A7EB0A00A04205D15746AB
:1007C00008F1010000F0FF0806E009F1010000F067
:1007D000FF09B9F1080FD4DB00BF681CC5B25D4545
:1007E000AEDB00BFC8E700001D170008911B000822
:1007F000812100082DE9F84306460F4615461C46A0
:10080000DDF8208021E004EBD4714910C1F18001B2
:10081000B14202DA00263819C7B2C4F14000B8422A
:1008200004DA002006460746FFF71AFECDF80080DE
:100830002A78234639463046FFF756FF204604EB18
:10084000D07106EB6101CEB26D1C28787E2802DCE7
:1008500028782028D7DABDE8F88370B504460D461D
:100860002946204600F0B2FB70BD704729B1064A08
:10087000D2690243044BDA6104E0034AD26982433D
:10088000014BDA61704700000010024029B1064AAE
:1008900092690243044B9A6104E0034A92698243DD
:1008A000014B9A61704700000010024030B50021F2
:1008B0000022002400232D4D6D6805F00C0121B1AC
:1008C000042905D0082923D105E0294D056022E03F
:1008D000274D05601FE0254D6D6805F47012234D0E
:1008E0006D6805F48034022505EB92421CB9214D58
:1008F000554305600BE01D4D6D6805F400351DB1D5
:100900001C4D5543056002E0194D5543056002E05A
:10091000174D056000BF00BF144D6D6805F0F00174
:100920000909154D6B5C0568DD4045600F4D6D682C
:1009300005F4E061090A104D6B5C4568DD40856097
:100940000A4D6D6805F46051C90A0B4D6B5C456832
:10095000DD40C560054D6D6805F44041890B074DCC
:100960006B5CC568B5FBF3F5056130BD0010024056
:1009700000127A0000093D00000000201000002055
:1009800010B5012002490860FF2000F05BF910BD9E
:10099000B081214270B505464FF6FF7401E0601E3C
:1009A00084B2FF2000F04EF9A84201D0002CF6D10D
:1009B0000CB9FF2070BD0020FCE70000F8B500F086
:1009C00017F900F04AF9002504E0FF2000F03AF999
:1009D000681C85B20A2DF8DB142600BF9522002181
:1009E000084600F078F90446012C04D0301EA6F128
:1009F00001018EB2F2D1002051490870012C4AD178
:100A000087224FF4D571082000F065F9012847D1FD
:100A1000002506E0FF2000F015F90DF80500681C20
:100A200085B2042DF6DB9DF80200012879D19DF8EE
:100A30000300AA2875D14FF6FE7600BF01220021DF
:100A4000372000F048F901229107292000F043F9EE
:100A5000044624B1301EA6F101018EB2EED1002E63
:100A60005FD0012200213A2000F035F9002858D14A
:100A7000002506E0FF2000F0E5F80DF80500681CF1
:100A800085B2042DF6DB9DF8000000F0400018B19F
:100A900006202B49087044E004202949087040E0F2
:100AA00001220021372000F016F90122002129201F
:100AB00000F011F90446012C17DC022020490870CF
:100AC0004FF6FE7600BF01220021372000F003F927
:100AD00001220021292000F0FEF80446BCB1301E9E
:100AE000A6F101018EB2EED111E001201449087087
:100AF0004FF6FE7600BF01220021104600F0EBF811
:100B0000044624B1301EA6F101018EB2F3D12EB1FC
:100B100001225102102000F0DEF810B10020084937
:100B20000870FFF72DFF00F093F80548007808B132
:100B30000020F8BD0CB12046FBE7AA20F9E7000031
:100B4000340400202DE9F04106460F4615461948A9
:100B50000078062800D07F02012D0CD101223946F1
:100B6000112000F0B8F80446FCB96902304600F0E4
:100B700023F8044619E001223946122000F0ABF8B0
:100B8000044600BF4FF40071304600F015F80446EB
:100B900006F50076681EC0B2051E01D0002CF1D00B
:100BA000012200210C2000F096F8FFF7E9FE204614
:100BB000BDE8F0813404002070B504460D46FE20E7
:100BC000FFF7E8FE08B1012070BD04E0FF2000F04F
:100BD00059F92070641C281EA5F101018DB2F5D1D0
:100BE000FF2000F02FF8FF2000F02CF80020EBE7AA
:100BF00008B501210820FFF749FE4FF46040ADF829
:100C0000000010208DF8030003208DF802006946D3
:100C10000A48FFF734FB4FF460410848FFF7BCFB7C
:100C20004FF48050ADF8000069460448FFF727FBF9
:100C300000F0E6F801200249086008BD000C014000
:100C4000B081214210B50446204600F01BF910BDCA
:100C500010B5002000F040F910BD10B5382000F0AC
:100C60003BF910BD10B500200549086000F06FF891
:100C700008B9002010BDFFF783FE0120FAE700004D
:100C8000B081214270B506460D4600F060F808B10B
:100C9000012070BD2846FFF7D5FFFD2D19D0002497
:100CA00004E0305D00F0EEF8601C84B2B4F5007F23
:100CB000F7DBFF20FFF7C6FFFF20FFF7C3FFFF2092
:100CC000FFF7C0FF044604F01F00052801D00220F2
:100CD000DFE70020DDE72DE9F04105460C46174629
:100CE0004FF00008FFF74CFEFFF7BCFF10B1FF20EC
:100CF000BDE8F08145F04000FFF7A4FF200EFFF7AC
:100D0000A1FFC4F30740FFF79DFFC4F30720FFF7DF
:100D100099FFE0B2FFF796FF3846FFF793FF0C2DDF
:100D200002D1FF20FFF78EFF4FF01F0800BFFF200A
:100D3000FFF788FF064606F0800030B1B8F10000EA
:100D4000A8F1010101F0FF08F1D13046D0E710B55C
:100D5000002400BFFF20FFF775FFFF2801D100200E
:100D600010BD641C6FF07F408442F3D30120F7E78D
:100D70002DE9F04106460F46154620480078062822
:100D800000D07F02012D0CD1012239461820FFF737
:100D9000A2FF04466CBBFE213046FFF773FF0446FA
:100DA00027E016480078012809D0012200213720C9
:100DB000FFF791FF012229461720FFF78CFF012240
:100DC00039461920FFF787FF044694B900BFFC217C
:100DD0003046FFF757FF044606F50076681EC0B29E
:100DE000051E01D0002CF2D0FD210020FFF74AFFA4
:100DF0000446FFF7C5FD2046BDE8F081340400201D
:100E000008B501218803FFF731FD01210820FFF714
:100E10003DFD4FF46040ADF8000018208DF8030050
:100E200003208DF8020069461348FFF728FA4FF4B3
:100E300060411148FFF7B0FA0020104908804FF4D4
:100E400082704880002088800220C88001200881AC
:100E500040024881382088810020C881072008820C
:100E6000074800F095F80121054800F047F8FF20F9
:100E700000F008F808BD0000000C01401409002033
:100E80000038004070B50546002405E0601CC4B27F
:100E9000C82C01DD002070BD02210E4800F06AF868
:100EA0000028F3D029460B4800F070F8002405E034
:100EB000601CC4B2C82C01DD0020ECE7012105480C
:100EC00000F058F80028F3D0024800F05CF8C0B2F7
:100ED000E1E700000038004010B504460548848171
:100EE0000146054800F054F80121034800F006F8D7
:100EF00010BD0000140900200038004021B1028814
:100F000042F04002028004E002884FF6BF731A40AC
:100F10000280704708B501210420FFF7B7FCB0201C
:100F2000ADF8000010208DF8030003208DF80200BA
:100F300069460E48FFF7A3F9B0210C48FFF72CFAD9
:100F400001210820FFF7A2FC0320ADF800001020CB
:100F50008DF8030003208DF8020069460448FFF76E
:100F60008EF903210248FFF717FA08BD0008014077
:100F7000000C01400246002013890B400BB10120F8
:100F800000E00020704701468889704781817047E2
:100F900010B50022028802F441520B884C8823438A
:100FA0008C882343CC8823430C8923434C892343D7
:100FB0008C892343CC8923431A430280838B4FF2CD
:100FC000FF74234083830B8A038210BD70B50446EF
:100FD0000E4626B102211848FFF7DEF903E0022190
:100FE0001548FFF7D7F910211448FFF7D3F900256A
:100FF00017E020211148FFF7CDF904F0800020B15F
:1010000080210E48FFF7C8F903E080210B48FFF765
:10101000C1F920210948FFF7BFF96006040E681CDA
:10102000C5B2082DE5DB10210448FFF7B5F9022110
:101030000148FFF7B1F970BD000C01400008014004
:10104000704710B500F002F810BD00000CB500208C
:10105000019000903348006840F4803031490860C6
:1010600000BF3048006800F4003000900198401C38
:101070000190009818B90198B0F5A06FF1D12948F6
:10108000006800F4003010B10120009001E0002061
:1010900000900098012843D12348006840F01000D8
:1010A000214908600846006820F0030008600846EF
:1010B000006840F0020008601A484068194948601A
:1010C0000846406848600846406840F480604860D0
:1010D0000846406820F47C1048600846406840F4A8
:1010E000E81048600846006840F08070086000BF63
:1010F0000C48006800F000700028F9D009484068EA
:1011000020F00300074948600846406840F00200AC
:10111000486000BF0348406800F00C000828F9D17F
:101120000CBD00000010024000200240042808D13D
:101130004FF0E021096941F004014FF0E022116114
:1011400007E04FF0E021096921F004014FF0E022AF
:10115000116170477047000010B51348006840F0F7
:1011600001001149086008464068104908400E49CE
:101170004860084600680E4908400B490860084668
:10118000006820F4802008600846406820F4FE00D3
:1011900048604FF41F008860FFF753FF4FF0006076
:1011A0000449086010BD0000001002400000FFF874
:1011B000FFFFF6FE08ED00E010B540F225511D4896
:1011C00000F04AF810B31B4800F002F9C4B21A4804
:1011D000008800F40040C8B91748008800F4804037
:1011E00060B10A2C03D000201349088020E0124887
:1011F000008840F400401049088019E00D2C06D109
:101200000D48008840F480400B49088010E00A48EF
:101210000088C0F30D0009490C5407480088401CA1
:101220000549088008460088C72801DD002008809D
:1012300010BD0000003801401C0000204C040020BC
:1012400021B1828942F40052828104E082894DF604
:10125000FF731A408281704770B502460024002354
:101260000025002040F66A16B14200D100BFC1F34C
:10127000421501F01F03012606FA03F3012D02D1E6
:101280009689334006E0022D02D1168A334001E0F0
:10129000968A33400C12012606FA04F4168834406C
:1012A00013B10CB1012000E0002070BDF0B5034681
:1012B000002400260025002040F66A17B94200D11C
:1012C00000BF1846C1F3421401F01F06012707FAB8
:1012D00006F5012C01D10C3004E0022C01D11030B4
:1012E00000E014301AB107682F43076002E0076876
:1012F000AF430760F0BD00002DE9F04786B005461A
:101300000E460024A24600BFA1460027B08900B1C6
:1013100000BF2F462C8A4CF6FF700440F08804432F
:101320002C82AC894EF6F3100440B0883189084312
:10133000718908430443AC81AC8A4FF6FF400440F6
:10134000B0890443AC8201A8FFF7B0FA1F48874276
:1013500002D1DDF810A001E0DDF80CA0A88900F4AE
:10136000004040B10AEBCA0000EB0A1031684900A6
:10137000B0FBF1F807E00AEBCA0000EB0A10316895
:101380008900B0FBF1F86420B8FBF0F004012009FB
:10139000642101FB1089A88900F4004040B132208B
:1013A00000EBC900B0FBF1F000F00700044308E0D7
:1013B000322000EB09106421B0FBF1F000F00F00C7
:1013C00004432C8106B0BDE8F087000000380140DE
:1013D00001468888C0F30800704700BFFEE700BFE1
:1013E0007047000010B56FF00400FFF79FFE0A4839
:1013F00000680A49B0FBF1F0094908700846007816
:1014000000EB4001C1EBC0104FF6FF7101EAC000D4
:101410000449088010BD00002004002000127A005A
:1014200014000020160000200146114A12884A4389
:101430004FF0E0235A6100229A611A46126942F085
:1014400001021A6100BF4FF0E022106900F00102B2
:101450001AB100F48032002AF5D04FF0E022126970
:1014600022F001024FF0E0231A6100229A617047D6
:1014700016000020ADF5826D4A480068CDF80C04D6
:10148000FFF7B0FFFEF7A6FF4FF4E13000F0F6F8EB
:10149000FFF736F800F0BAF8002043490860FEF77D
:1014A000DFFF0120102341A2002100900846FFF732
:1014B000A1F9FFF78FF84FF47A70FFF7B5FF24E03A
:1014C000FF2C1ED19DF80C0400F00200C8B19DF85D
:1014D0000C0420F00200CDF80C04FEF7C1FF01203F
:1014E000102338A2002100900846FFF783F901205D
:1014F000102337A2194600900020FFF77BF9FFF771
:1015000069F84FF4FA70FFF78FFFFFF757FA041EE0
:10151000D6D19DF80C0440F00100CDF80C04FEF784
:101520009FFF0120102332A2002100900846FFF700
:1015300061F9FFF74FF84FF47A70FFF775FFFEF788
:101540008FFF01201849086000BF022200212D48AA
:10155000FFF70EFC0028F8D100BF0222002103A8EB
:10156000FFF7F0FA0028F8D101204021802303AAD8
:10157000CDE9001000210846FFF752F8FFF72AF8DE
:101580000EE00020084908604FF4FA70FFF74CFFA6
:1015900001201D49C1F8B4014FF4FA70FFF744FF70
:1015A000EFE700001C170008B40122425344204317
:1015B00061726420696E697469616C697A696E67C9
:1015C0002E2E2E004E6F20534420436172642E0055
:1015D000506C6561736520696E736572742061205B
:1015E0004D4D435F534420436172642E2E2E000004
:1015F0005344204361726420697320726561647989
:10160000210000001E0000200000224200B5094910
:101610004FF47072C868002100F026F805494FF4B5
:1016200070528868002100F01FF8012001490874F9
:1016300000BD0000380400200022002106E0094817
:10164000C06830F8110000B1521C491CB1F5F07FA0
:10165000F5D3642050434FF4F073B0FBF3F0C0B205
:10166000704700003804002030B5034601E003F85D
:10167000011B141EA2F10102F9D130BD10B586B0D4
:101680000446012144F20400FFF700F94FF4007012
:10169000ADF8140003208DF8160018208DF81700FF
:1016A00005A91C48FEF7EBFD4FF48060ADF814006F
:1016B00004208DF8170005A91648FEF7E0FD252047
:1016C0008DF8000003208DF801008DF80200012044
:1016D0008DF803006846FEF78BFE01940020ADF8FC
:1016E0000800ADF80A00ADF80C00ADF810000C20B1
:1016F000ADF80E0001A90848FFF7FEFD012240F2F7
:1017000025510548FFF7D2FD01210348FFF798FD59
:1017100006B010BD00080140003801400200000082
:10172000000000000000000000000000003F40003A
:1017300000000000000000300040003000400000C9
:101740000009000BC03D000BC03D00090018C0247B
:10175000407FE0224031800000180024C01B000DB3
:10176000803240018003801C4027401C80074000DD
:1017700040100060000000000000000000000000B9
:101780000000001F80204040200000402020401F1B
:101790008000000000090006001F8006000900000C
:1017A00000040004003F800400040000000010005A
:1017B00060000000000000000004000400040004B9
:1017C00000040000000000004000000000000000D5
:1017D00000002001C006003800400000001F8020EB
:1017E00040204020401F800000000010403FC0000B
:1017F000400000000018C021402240244018400052
:101800000010802040244024401B80000002000D76
:101810000011003FC0014000003C802440244024CF
:1018200040238000001F8024402440344003800077
:10183000003000200027C03800200000001B80245A
:1018400040244024401B8000001C0022C022402273
:10185000401F800000000000000840000000000061
:101860000000000000046000000000000000000410
:10187000000A001100208040400900090009000909
:10188000000900000000004040208011000A000410
:10189000001800200023402400180000001F8020B2
:1018A00040274029401F400000004007C039000F7A
:1018B0000001C0004020403FC0244024401B800065
:1018C000001F802040204020403080000020403F0A
:1018D000C0204020401F80000020403FC024402EF8
:1018E0004030C0000020403FC024402E00300000A7
:1018F000000F001080204022403380020020403F33
:10190000C0040004003FC02040204020403FC020D1
:1019100040204000000060202020203FC020002008
:101920000020403FC024400B0030C0204020403FFA
:10193000C020400040004000C03FC03C0003C03C0D
:10194000003FC0000020403FC00C4023003FC020AB
:10195000001F802040204020401F80000020403F8A
:10196000C024402400180000001F80214021402096
:10197000E01FA0000020403FC02440260019C00006
:101980004018C02440244022403180000030002014
:10199000403FC020403000000020003F8000400059
:1019A000403F80200020003E0001C007003800209A
:1019B00000380007C03C0007C03800000020403954
:1019C000C0060039C0204000002000384007C03861
:1019D0004020000000304021C02640384020C00098
:1019E00000000000007FE040204020000000007068
:1019F000000C000380004000000000402040207FD9
:101A0000E000000000000020004000200000000076
:101A10000000100010001000100010001000000066
:101A200000400000000000000000000280054005AA
:101A30004003C0004020003FC00440044003800039
:101A40000000000380044004400640000000000342
:101A500080044024403FC000400000038005400552
:101A60004003400000000004401FC02440244020E8
:101A700000000002E0055005500650042020403FC1
:101A8000C00440040003C000400000044027C00020
:101A9000400000000000100010041027E0000000CB
:101AA0000020403FC00140070004C0044020402007
:101AB000403FC000400040000007C0040007C004D1
:101AC0000003C00000044007C00440040003C0003D
:101AD000400000038004400440038000000410071D
:101AE000F004500440038000000000038004400420
:101AF0005007F00010044007C0024004000400003A
:101B000000000006400540054004C000000000043D
:101B1000001F8004400040000004000780004004D3
:101B20004007C000400400070004C0018006000414
:101B300000060001C0070001C006000000044006C6
:101B4000C0010006C0044000000410071004E001BA
:101B500080060004000000044005C0064004400068
:101B6000000000000004007BE040200000000000B6
:101B7000000000FFF000000000000040207BE004B7
:101B800000000000004000800040002000200040D5
:101B90000000000000000000000000000000000045
:101BA000000000000000001FCC000C00000000003E
:101BB00000000008003000600008003000600000F5
:101BC00000022003FC1E20022003FC1E2002200035
:101BD0000000000E1811043FFF10840C7800000074
:101BE000000F0010840F3800C007781884007800B8
:101BF0000000780F8410C411240E9800E4008400C3
:101C000008080068007000000000000000000000EC
:101C10000000000000000007E01818200440020047
:101C200000000040022004181807E0000000000037
:101C3000000240024001800FF0018002400240009B
:101C4000000080008000800FF8008000800080008D
:101C5000000001000D000E00000000000000000068
:101C60000000000080008000800080008000800074
:101C7000800000000C000C000000000000000000CC
:101C80000000000006001800600180060018002017
:101C900000000007F0080810041004080807F0000E
:101CA000000000080408041FFC00040004000000F9
:101CB0000000000E0C10141024104411840E0C00AF
:101CC0000000000C1810041104110412880C70009C
:101CD00000000000E00320042408241FFC0024006E
:101CE0000000001F98108411041104108810700067
:101CF00000000007F0088811041104188800700023
:101D00000000001C00100010FC13001C001000005C
:101D10000000000E3811441084108411440E380065
:101D20000000000700088C10441044088807F000E9
:101D300000000000000000030C030C000000000085
:101D4000000000000000010106000000000000008B
:101D50000000000080014002200410080810040068
:101D60000002200220022002200220022002200085
:101D70000000001004080804100220014000800048
:101D80000000000E001200100C106C10800F0000FC
:101D90000003E00C1813E4142417C4082807D0002B
:101DA000000004003C03C41C40074000E4001C0089
:101DB0000410041FFC1104110411040E88007000AB
:101DC0000003E00C1810041004100410081C10008C
:101DD0000010041FFC100410041004080807F00091
:101DE0000010041FFC1104110417C410040818008B
:101DF0000010041FFC1104110017C010000800009F
:101E00000003E00C181004100410441C780040007B
:101E10000010041FFC10840080008010841FFC1040
:101E2000040000100410041FFC1004100400000043
:101E30000000030001100110011FFE10001000003F
:101E40000010041FFC110403801464181C1004000B
:101E50000010041FFC1004000400040004000C0027
:101E60000010041FFC1F0000FC1F001FFC100400DA
:101E70000010041FFC0C04030000E010181FFC10ED
:101E80000007F00808100410041004080807F00008
:101E90000010041FFC10841080108010800F0000C0
:101EA0000007F0081810241024101C080A07F2007C
:101EB0000010041FFC1104110011C011300E0C00A1
:101EC0000400000E1C11041084108410441C3800FF
:101ED000001800100010041FFC100410001800006F
:101EE0000010001FF810040004000410041FF81074
:101EF0000010001E0011E0001C007013801C001078
:101F0000001FC0103C00E01F0000E0103C1FC0009C
:101F1000001004180C163401C001C01634180C103F
:101F20000410001C00130400FC13041C001000002B
:101F3000000804101C1064108413041C0410180002
:101F4000000000000000007FFE400240024002004E
:101F500000000030000C0003800060001C00030043
:101F60000000004002400240027FFE00000000002E
:101F70000000000000200040004000400020000061
:101F8000000001000100010001000100010001004A
:101F900001000040004000200000000000000000A0
:101FA0000000000098012401440144014400FC00A9
:101FB0000410001FFC008801040104008800700068
:101FC0000000000070008801040104010400880082
:101FD000000000007000880104010411081FFC00CB
:101FE00004000000F8014401440144014400C80019
:101FF000000000010401040FFC1104110411001879
:1020000000000000D601290129012901C9010600AB
:102010000010041FFC008401000100010400FC000A
:102020000400000104190419FC000400040000006D
:10203000000000000300010101190119FE00000069
:102040000010041FFC0024004001B4010C01040036
:10205000000000100410041FFC0004000400000035
:1020600000010401FC0104010001FC010401000065
:10207000FC010401FC008401000100010400FC00DB
:1020800004000000F8010401040104010400F80048
:1020900000010101FF0085010401040088007000B7
:1020A0000000000070008801040104010501FF0028
:1020B000010104010401FC0084010401000180000D
:1020C00000000000CC012401240124012401980017
:1020D0000000000100010007F801040104000000F5
:1020E00000010001F8000400040004010801FC00E4
:1020F00004010001800170000C00100160018001EA
:102100000001F0010C003001C00030010C01F001B1
:102110000000000104018C00740170018C010400B6
:1021200000010101810171000E00180160018001B0
:102130000000000184010C013401440184010C0001
:1021400000000000000000000001003EFC400240D2
:10215000020000000000000000FFFF00000000007F
:10216000000000400240023EFC01000000000000B0
:10217000000000600080008000400040002000203F
:10218000000000000000000000000000000000004F
:10219000000000000000000000000000000000003F
:1021A000000000000000000000000000000000002F
:1021B000000000000F80380FFE380F80380000004C
:1021C000000000000000000000000000000000010E
:1021D00000000600000C000038000031000006007E
:1021E000000C00003800003000000000000000007B
:1021F0000061800067F807F980006180006180005D
:1022000061800061800067F807F98000618000004C
:102210000000000000000001C0E003E0F00630080C
:102220000418081FFFFE040E080787F00381E00072
:10223000000000000001F000060C00040408060C79
:102240007001F9C0000E00003BE000EC1807080820
:10225000040C180003E00000000001E00007F00398
:10226000F818041C0804170807E1D003C0E0002395
:10227000B0003C0800200800001000000000000032
:102280000100003100003200001C000000000000CE
:10229000000000000000000000000000000000003E
:1022A000000000000000000000000000000000002E
:1022B000007F0001FFC00780F00C00181000042010
:1022C00000020000000000002000021000040C00CA
:1022D000180780F001FFC0007F0000000000000030
:1022E00000000000000000000000000000420000AC
:1022F0006600006600003C0000180003FFC00018E4
:1023000000003C0000660000660000420000000083
:102310000008000008000008000008000008000194
:10232000FFC00008000008000008000008000008C6
:102330000000000000000100003100003200001C1D
:10234000000000000000000000000000000000008D
:102350000000000000000000000800000800000865
:102360000000080000080000080000080000080045
:10237000000800000800000000000000000000004D
:1023800000380000380000380000000000000000A5
:10239000000000000000000000000000000000003D
:1023A00000000600001C000070000180000E00000C
:1023B000380000C0000700001C00003000000000D2
:1023C00000000000007F8001FFE00380700600181D
:1023D00004000804000806001803807001FFE000F4
:1023E0007F800000000000000000000100080100E4
:1023F0000801000803FFF807FFF8000008000008C4
:1024000000000800000000000000000001C03802C9
:10241000C058040098040118040218040418061C8B
:102420001803F81801E0F8000000000000000000A8
:1024300001C0E003C0F0040008040808040808060E
:10244000180803F41801E7F00001E00000000000A4
:1024500000000000000300000D00001100006100FA
:1024600000810803010807FFF80FFFF800010800CA
:1024700001080000000000000000E007FCD0060892
:1024800008061008061008061008061838060FF08F
:102490000607C0000000000000000000003F8001AF
:1024A000FFE0038430020818041008041008041028
:1024B00008071810030FF00007C00000000000001C
:1024C00000000003C0000700000600000600F80638
:1024D00007F806180006E0000700000600000000EC
:1024E0000000000001E1E003F7F0063410041808D2
:1024F000041808040C08040C0806161803F3F0016D
:10250000C1E000000000000000F80003FC300306FA
:10251000380402080402080402080404100308F046
:1025200001FFC0007F00000000000000000000006C
:1025300000000000000000000070380070380070DB
:102540003800000000000000000000000000000053
:1025500000000000000000000000000000301A0031
:10256000301C00000000000000000000000000001F
:10257000000000000000000008000014000022001D
:10258000004100008080010040020020040010088B
:1025900000080000000000000021000021000021D0
:1025A0000000210000210000210000210000210086
:1025B00000210000210000000000000000000008D1
:1025C000000804001002002001004000808000414B
:1025D00000002200001400000800000000000000BD
:1025E00003C00004C000040000080038080F3808C9
:1025F00008380810000C300007E00003C00000009D
:1026000000000000003F8000FFE0038070020F1018
:1026100006708804C088048308047F8802C0900381
:10262000012000FE400000080000180001F8003EF4
:102630000801C20007020007E20000FE00001FC8F8
:102640000001F800003800000804000807FFF80740
:10265000FFF8040808040808040808040808061815
:102660000803F41801E7F00001E00000000000009A
:10267000003F8001FFE0038070020018040008049E
:1026800000080400080400100600200780C00000B5
:102690000004000807FFF807FFF80400080400081A
:1026A00004000804001802001003807001FFE0001D
:1026B0007F8000000004000807FFF807FFF8040807
:1026C00008040808040808040808043E0804000870
:1026D00006001801006000000004000807FFF8076A
:1026E000FFF8040808040800040800040800043E79
:1026F000000600000600000180000000000000004D
:10270000003F8001FFE00380700600180400080409
:1027100002080402080203F00783F000020000022E
:102720000004000807FFF807FFF804080800080085
:1027300000080000080000080004080807FFF80768
:10274000FFF8040008000000000000040008040076
:102750000804000807FFF807FFF804000804000851
:102760000400080000000000000000000000060057
:10277000000700000104000104000104000307FF3A
:10278000FE07FFFC04000004000004000004000831
:1027900007FFF807FFF8040C08001800003E0004CB
:1027A000C7800503C80600F80400380400180000BC
:1027B0000804000807FFF807FFF8040008000008F5
:1027C00000000800000800000800000800001800D1
:1027D000006000000004000807FFF807800807FCFD
:1027E00000007FC00003F80007C0007800078008E1
:1027F00007FFF807FFF804000804000807FFF807C0
:10280000000803C00000E000003800001E000007C0
:10281000000001C00400F007FFF804000000000001
:10282000007F8001FFE003807006001804000804A8
:10283000000806001803003001FFE0007F80000060
:102840000004000807FFF807FFF804040804040068
:10285000040400040400040400060C0003F8000152
:10286000F000000000000000007F8001FFE0038016
:10287000700600880400880400C806003C03003E7F
:1028800001FFE6007F8400000004000807FFF8074E
:10289000FFF8040808040800040C00040F00040BEF
:1028A000C00610F003F03801E00800000800000046
:1028B00001E0F803F030063010041808041808048A
:1028C0000C08040C080206180207F00781E000005B
:1028D000000180000600000400000400000400085D
:1028E00007FFF807FFF804000804000004000006D2
:1028F000000001800004000007FFE007FFF0040073
:102900001800000800000800000800000800000887
:1029100004001007FFE004000004000006000007A8
:10292000E00007FE00041FE00001F800003800018D
:10293000E0043E0007C000060000040000040000A0
:1029400007E00007FFC0041FF80007C007F80007F2
:10295000FF80043FF80007C004F8000700000400EF
:102960000000000004000806001807C07805F1C840
:10297000003E00001F800463E80780F8060018048A
:10298000000800000004000006000007800007E0C7
:1029900008047C08001FF80007F800180804E00885
:1029A0000700000600000400000000000100080607
:1029B00000380400F80403E8040F08047C0805F05C
:1029C0000807C008070018040060000000000000AD
:1029D0000000000000000000000000003FFFFE209B
:1029E000000220000220000220000220000200005D
:1029F0000000000000000008000007000000C00008
:102A00000038000006000001C000003000000E0089
:102A10000001000000000000000000200002200073
:102A2000022000022000022000023FFFFE00000002
:102A30000000000000000000000000000000000096
:102A400000000800001000003000002000003000EE
:102A5000001000000800000000000000000000015D
:102A60000000010000010000010000010000010061
:102A70000001000001000001000001000001000051
:102A80000100000000000000000020000020000005
:102A90001000001000000000000000000000000016
:102AA00000000000000000000000F00019F8001B0A
:102AB00018002208002608002408002410003FF80F
:102AC000001FF800000800001800000004000007C4
:102AD000FFF80FFFF0001818001008002008002071
:102AE00008003018001FF0000FC0000000000000B8
:102AF0000007C0001FF00018300020080020080068
:102B00002008003C08001C100000600000000000CD
:102B1000000000000007C0001FF000381800200867
:102B200000200800200804101007FFF80FFFF00035
:102B300000100000000000000000000007C0001F9F
:102B4000F00012300022180022080022080032088B
:102B5000001E10000E2000000000000000200000F9
:102B6000200800200801FFF803FFF80620080420D1
:102B700008042008072000030000000000000000F7
:102B800000000E000E6E001FF30031B10020B100F6
:102B900020B1003191001F13002E1E00200E0030C6
:102BA0000000000004000807FFF80FFFF8001008FD
:102BB000002000002000002008003FF8001FF8005F
:102BC00000080000000000000000000020080020B5
:102BD00008002008063FF8063FF80000080000083B
:102BE00000000800000000000000000000000000DD
:102BF0000003000003002001002001002003063F25
:102C0000FE063FFC00000000000000000000000085
:102C100004000807FFF80FFFF80001880003000018
:102C20002FC00038F80020380020080000080000FD
:102C30000000000000000004000804000804000870
:102C400007FFF80FFFF80000080000080000080068
:102C50000000000000002008003FF8003FF80010CE
:102C600008002000003FF8003FF800100800200096
:102C7000003FF8003FF800000800000000200800B6
:102C80003FF8003FF800100800100000200000206E
:102C900008003FF8001FF8000008000000000000D6
:102CA0000007C0000FF000183000300800200800B6
:102CB0002008003008001830000FF00007C00000A6
:102CC00000000000002001003FFF003FFF00101146
:102CD000002009002008002008003038001FF00004
:102CE0000FC00000000000000007C0001FF0003807
:102CF00018002008002008002009001011001FFF04
:102D0000003FFF0000010000000020080020080034
:102D10002008003FF8003FF80008080010080020D5
:102D2000080020000030000030000000000000001B
:102D3000000000000C78001E180033080023080073
:102D400021080021880021980030F0003860000040
:102D50000000000000200000200000200000FFF024
:102D600003FFF800200800200800200800003000C1
:102D70000000000000000000002000003FF0007F85
:102D8000F8000018000008000008002010003FF8BC
:102D9000007FF00000100000000000000020000094
:102DA0003000003C00003F800023F000007800006D
:102DB00070002380003C0000300000200000200054
:102DC000003C00003FE00023F80000E00027000086
:102DD0003E00003FE00021F80001E0003E0000203E
:102DE00000000000002008002008003838003E687D
:102DF0000027800003C8002CF80038380020180095
:102E00002008000000000000002000003003003C0B
:102E100001003F830023EC000070002380003C0091
:102E20000020000020000000000000000000000062
:102E300038080020380020F80023E8002F88003EE2
:102E40000800380800201800007000000000000092
:102E5000000000000000000000000000000800006A
:102E600014001FF7FC3000062000020000000000E4
:102E70000000000000000000000000000000000052
:102E8000000000FFFFFF0000000000000000000045
:102E900000000000000000000000002000023000E0
:102EA000061FF7FC001400000800000000000000EE
:102EB000000000000000000000000000180000609A
:102EC000000040000040000020000010000008004A
:102ED000000400000400000C0000100000000000CE
:102EE000002F0008000000204C040000280100080A
:102EF0002C3100084C040020FC4A0000840100082A
:102F0000412D0102030404B0090607080902040662
:102F100008221E13038012A41A60261206125C32C5
:102F200040122334180190122043D006120E3A109A
:102F300033550F8020323CC4A0485754404084632E
:102F40001AC06304805A01087211720B720A1A04C3
:102F5000024112141210233FFE120C160207E1C7A1
:102F6000F019661379841A3E161A03521407E030DA
:102F70001A0E4A140170203A7A8812C04278130758
:102F800080397119B911329C19A52327BF1B8018EC
:102F90000B1A011A19CC12381A7011290B1212329D
:102FA000021A406432B81A807A3A20083A02EB19C1
:102FB00045494C112A012F410A1580085A4008BA88
:102FC000501012103A40485A3808DA781089386997
:102FD00008DA0148548105E03AC26D21428212C0EC
:102FE0003B010435113A020812204B06086F430CCE
:102FF0001012583A180812261A30EE213C41C1C06E
:1030000008115A3ED7294329306A806FF9082139BF
:103010005A6910197B5A06084A0CB0115A18083917
:103020006A11126052644A205A191049085A104213
:103030005A58086308025A84087244590F11720BD7
:103040001981C908698962A06A401059D163A150E9
:103050006A08E169080A152008AA60101303F14202
:1030600030130C1C29483C08B006103D106003804A
:10307000DF12802AC00819852A600819AD2A2008A5
:103080001A062329082204330A181A283B2A084062
:103090001903291819082A0418190C2A04181908E0
:1030A0002A020829434A0A7C29105A01081A0E08E4
:1030B00023010C141A20021A02081EBD60078001A9
:1030C0005C1B40400812061501AF200713010A2BB4
:1030D0001331281D03900695E41E0101C01A0ACC85
:1030E00012012B7DF95012012B9F1A501B018041B8
:1030F0002958212A18085A03EC19103A0388299EE6
:10310000299889082A09B019973A08C8711BA24A58
:103110001A6140090102030406070809130D161B72
:0C3120000839041328092C2028455921E7
:04000005080000ED02
:00000001FF
