:020000040800F2
:10000000804E002089010008C50400085D03000837
:10001000C104000839020008931400080000000021
:10002000000000000000000000000000191100089E
:100030003D02000800000000430900082D120008DE
:10004000A3010008A3010008A3010008A301000800
:10005000A3010008A3010008A3010008A3010008F0
:10006000A3010008A3010008A3010008A3010008E0
:10007000A3010008A3010008A3010008A3010008D0
:10008000A3010008A3010008A3010008A3010008C0
:10009000A3010008A3010008A3010008A3010008B0
:1000A000A3010008A3010008A3010008A3010008A0
:1000B000A3010008A3010008A3010008A301000890
:1000C000A3010008A3010008A3010008A301000880
:1000D000A301000891120008A3010008A301000871
:1000E000A3010008A3010008A301000800F002F822
:1000F00000F03AF80AA090E8000C82448344AAF188
:100100000107DA4501D100F02FF8AFF2090EBAE885
:100110000F0013F0010F18BFFB1A43F0010318473B
:10012000402D0000602D0000103A24BF78C878C12F
:10013000FAD8520724BF30C830C144BF04680C60ED
:10014000704700000023002400250026103A28BF35
:1001500078C1FBD8520728BF30C148BF0B60704739
:100160001FB51FBD10B510BD00F038F81146FFF7E0
:10017000F7FF01F0DBF900F056F803B4FFF7F2FFE8
:1001800003BC01F088F9000009488047094800478E
:10019000FEE7FEE7FEE7FEE7FEE7FEE7FEE7FEE737
:1001A000FEE7FEE704480549054A064B7047000094
:1001B00031120008ED00000880480020804E002029
:1001C000804A0020804A002070477047704770477F
:1001D0007047000000487047204800207546FFF730
:1001E000F9FFAE4605006946534620F007008546F4
:1001F00018B020B5FFF7D6FFBDE820404FF000064D
:100200004FF000074FF000084FF0000B21F00701FE
:10021000AC46ACE8C009ACE8C009ACE8C009ACE841
:10022000C0098D46704710B50446AFF300802046E4
:10023000BDE81040FFF7A1BF00BFFEE770472DE902
:10024000F04102460025002600200023002400275C
:1002500091F803C00CF00F0591F803C00CF0100CDE
:10026000BCF1000F03D091F802C04CEA050591F8EB
:1002700000C0BCF1000F31D0146800202BE04FF01B
:10028000010C0CFA00F3B1F800C00CEA03069E4220
:1002900020D183004FF00F0C0CFA03F7BC4305FA92
:1002A00003FC4CEA040491F803C0BCF1280F06D10A
:1002B0004FF0010C0CFA00FCC2F814C00AE091F8EF
:1002C00003C0BCF1480F05D14FF0010C0CFA00FC43
:1002D000C2F810C0401C0828D1D31460B1F800C087
:1002E000BCF1FF0F34DD546800202EE000F1080C53
:1002F0004FF0010808FA0CF3B1F800C00CEA03064D
:100300009E4221D183004FF00F0C0CFA03F7BC433F
:1003100005FA03FC4CEA040491F803C0BCF1280F71
:1003200005D100F1080C08FA0CF8C2F8148091F815
:1003300003C0BCF1480F07D100F1080C4FF00108D1
:1003400008FA0CF8C2F81080401C0828CED354607C
:10035000BDE8F081416170470161704700BFFEE771
:10036000F8B506460D4614460121304600F0FAFA6B
:10037000ADF8004010208DF8030003208DF8020036
:1003800069462846FFF75BFF21462846FFF7E4FF52
:10039000F8BD000010B54FF4005202491020FFF7DD
:1003A000DFFF10BD001001401CB52D480068019012
:1003B00000202C49086000F0BFF8012010232AA279
:1003C00000210090084600F081FA00F06FF94FF428
:1003D0007A7001F085F823E0FF2C1DD19DF8040010
:1003E00000F00200C0B19DF8040020F0020001906E
:1003F00000F0A2F80120102321A20021009008465D
:1004000000F064FA0120102320A219460090002079
:1004100000F05CFA00F04AF94FF4FA7001F060F86D
:1004200000F038FB041ED7D19DF8040040F0010015
:10043000019000F081F8012010231CA200210090FF
:10044000084600F043FA00F031F94FF47A7001F0F9
:1004500047F800F071F80120024908601CBD000057
:100460005C2E0008B4012242534420436172642090
:10047000696E697469616C697A696E672E2E2E00E7
:100480004E6F20534420436172642E00506C6561AE
:10049000736520696E736572742061204D4D435FF2
:1004A000534420436172642E2E2E00005344204397
:1004B00061726420697320726561647921000000B3
:1004C00000BFFEE77047000070B5002100230F2237
:1004D000C47804B3154C246804F4E064C4F5E06403
:1004E000210AC1F10403CA40447804FA03F1847874
:1004F0001440214309010E4C0678A155047804F0FC
:100500001F050124AC4005786D11AD0005F1E02513
:10051000C5F8004109E0047804F01F050124AC404F
:10052000044D0678761145F8264070BD0CED00E0CC
:1005300000E400E080E100E070B500240CE000255C
:1005400006E00020074901EBC5010855681CC5B24B
:10055000802DF6DB601CC4B2082CF0DB00F0A6F89E
:1005600070BD00004C040020F0B5144600267F2822
:1005700001DC3F2900DDF0BD0B46CF1701EB5777BB
:10058000FF10C7F10707FAB2CF1701EB5777FF103B
:10059000A1EBC707FDB2C5F107070123BB40DEB2DF
:1005A0004CB10A4B03EBC0039B5C3343074F07EB93
:1005B000C007BB5408E0054B03EBC0039B5CB3438F
:1005C000024F07EBC007BB5400BFD4E74C04002028
:1005D00010B500F00BFD10BD10B5FFF7F9FF0021BD
:1005E000AE2000F0A6F90021D52000F0A2F90021EC
:1005F000502000F09EF90021A82000F09AF9002177
:100600003F2000F096F90021D32000F092F900215C
:10061000084600F08EF90021402000F08AF9002100
:100620008D2000F086F90021142000F082F90021CD
:10063000202000F07EF90021022000F07AF900214C
:10064000A12000F076F90021C02000F072F900210D
:10065000DA2000F06EF90021122000F06AF9002182
:10066000812000F066F90021EF2000F062F90021FE
:10067000D92000F05EF90021F12000F05AF90021A4
:10068000DB2000F056F90021302000F052F9002163
:10069000A42000F04EF90021A62000F04AF9002124
:1006A000AF2000F046F9FFF747FF10BD70B50024FA
:1006B0001CE004F1B001C8B2002100F03AF90021B9
:1006C000084600F036F90021102000F032F900252C
:1006D00008E0084901EBC501085D012100F029F996
:1006E000681CC5B2802DF4DB601CC4B2082CE0DBB2
:1006F00070BD00004C0400202DE9FE4F07460D465A
:1007000090469B460C9C7F2F01DC3F2D01DDBDE810
:10071000FE8FB9462E462046E21704EB5272D210E5
:100720002146E31704EB5373DB10A4EBC3030BB1B7
:10073000012300E000231A4402FB0BF292B2019263
:100740004FF0000A36E098F8000002900020009078
:1007500026E0029800F0800028B1314648460D9A04
:10076000FFF702FF09E00D9808B9012000E0002022
:10077000024631464846FFF7F7FE02984006000E53
:100780000290701CC6B2701BA04205D12E4609F122
:10079000010000F0FF0906E00098401C80B20090C4
:1007A00000980828D5DB00BF08F101080AF1010014
:1007B0001FFA80FA01988245C5DB00BFA7E7000059
:1007C0002DE9F84F80460F4616461C46BA4620468D
:1007D000E31704EB5373DB1021464FEAE47C04EB90
:1007E0005C7C4FEAEC0CA4EBCC0CBCF1000F02D00B
:1007F0004FF0010C01E04FF0000C6344224604EB83
:10080000D27C4FEA6C0C03FB0CF303F0FF0BA6F158
:100810002000C6B200254EE00C2C07D106EB4600A6
:10082000274901EB8000405D009013E0102C05D1BA
:10083000244800EB0610405D00900BE0182C07D117
:1008400006EBC600204901EB8000405D009001E00E
:10085000BDE8F88F4FF0000927E0009800F0800015
:1008600028B1394640460A9AFFF77EFE09E00A9809
:1008700008B9012000E00020024639464046FFF753
:1008800073FE00984006000E0090781CC7B2A7EBDC
:100890000A00A04205D1574608F1010000F0FF0808
:1008A00006E009F1010000F0FF09B9F1080FD4DBFF
:1008B00000BF681CC5B25D45AEDB00BFC8E70000E5
:1008C0009C160008101B0008002100082DE9F843C1
:1008D00006460F4615461C46DDF8208021E004EB55
:1008E000D4714910C1F18001B14202DA00263819F1
:1008F000C7B2C4F14000B84204DA002006460746F9
:10090000FFF71AFECDF800802A7823463946304694
:10091000FFF756FF204604EBD07106EB6101CEB223
:100920006D1C28787E2802DC28782028D7DABDE8DC
:10093000F88370B504460D462946204600F0B2FB08
:1009400070BD704729B1064AD2690243044BDA618F
:1009500004E0034AD2698243014BDA617047000028
:100960000010024029B1064A92690243044B9A6181
:1009700004E0034A92698243014B9A617047000088
:100980000010024030B500210022002400232D4D2C
:100990006D6805F00C0121B1042905D0082923D187
:1009A00005E0294D056022E0274D05601FE0254D3B
:1009B0006D6805F47012234D6D6805F480340225CE
:1009C00005EB92421CB9214D554305600BE01D4DCE
:1009D0006D6805F400351DB11C4D5543056002E0FE
:1009E000194D5543056002E0174D056000BF00BF7B
:1009F000144D6D6805F0F0010909154D6B5C056833
:100A0000DD4045600F4D6D6805F4E061090A104D49
:100A10006B5C4568DD4085600A4D6D6805F460518A
:100A2000C90A0B4D6B5C4568DD40C560054D6D68BE
:100A300005F44041890B074D6B5CC568B5FBF3F5C8
:100A4000056130BD0010024000127A0000093D002F
:100A5000000000201000002010B5012002490860AD
:100A6000FF2000F05BF910BDB081214270B5054652
:100A70004FF6FF7401E0601E84B2FF2000F04EF9D3
:100A8000A84201D0002CF6D10CB9FF2070BD002087
:100A9000FCE70000F8B500F017F900F04AF900256E
:100AA00004E0FF2000F03AF9681C85B20A2DF8DB5B
:100AB000142600BF95220021084600F078F904466C
:100AC000012C04D0301EA6F101018EB2F2D100201B
:100AD00051490870012C4AD187224FF4D571082062
:100AE00000F065F9012847D1002506E0FF2000F05D
:100AF00015F90DF80500681C85B2042DF6DB9DF88C
:100B00000200012879D19DF80300AA2875D14FF67B
:100B1000FE7600BF01220021372000F048F90122B3
:100B20009107292000F043F9044624B1301EA6F1B4
:100B300001018EB2EED1002E5FD0012200213A20B9
:100B400000F035F9002858D1002506E0FF2000F01C
:100B5000E5F80DF80500681C85B2042DF6DB9DF85C
:100B6000000000F0400018B106202B49087044E056
:100B700004202949087040E001220021372000F0BC
:100B800016F901220021292000F011F90446012C58
:100B900017DC0220204908704FF6FE7600BF0122C4
:100BA0000021372000F003F901220021292000F064
:100BB000FEF80446BCB1301EA6F101018EB2EED1A2
:100BC00011E00120144908704FF6FE7600BF0122A3
:100BD0000021104600F0EBF8044624B1301EA6F1C7
:100BE00001018EB2F3D12EB101225102102000F08A
:100BF000DEF810B1002008490870FFF72DFF00F063
:100C000093F80548007808B10020F8BD0CB12046E3
:100C1000FBE7AA20F9E70000340000202DE9F041AD
:100C200006460F46154619480078062800D07F0270
:100C3000012D0CD101223946112000F0B8F80446EC
:100C4000FCB96902304600F023F8044619E001229D
:100C50003946122000F0ABF8044600BF4FF4007193
:100C6000304600F015F8044606F50076681EC0B25E
:100C7000051E01D0002CF1D0012200210C2000F033
:100C800096F8FFF7E9FE2046BDE8F0813400002029
:100C900070B504460D46FE20FFF7E8FE08B10120BE
:100CA00070BD04E0FF2000F059F92070641C281E7C
:100CB000A5F101018DB2F5D1FF2000F02FF8FF2042
:100CC00000F02CF80020EBE708B501210820FFF721
:100CD00049FE4FF46040ADF8000010208DF803008D
:100CE00003208DF8020069460A48FFF7A8FA4FF47E
:100CF00060410848FFF730FB4FF48050ADF800002A
:100D000069460448FFF79BFA00F0E6F80120024923
:100D1000086008BD000C0140B081214210B50446B6
:100D2000204600F01BF910BD10B5002000F040F97E
:100D300010BD10B5382000F03BF910BD10B50020F3
:100D40000549086000F06FF808B9002010BDFFF7F2
:100D500083FE0120FAE70000B081214270B506460B
:100D60000D4600F060F808B1012070BD2846FFF77D
:100D7000D5FFFD2D19D0002404E0305D00F0EEF821
:100D8000601C84B2B4F5007FF7DBFF20FFF7C6FFDD
:100D9000FF20FFF7C3FFFF20FFF7C0FF044604F06A
:100DA0001F00052801D00220DFE70020DDE72DE944
:100DB000F04105460C4617464FF00008FFF74CFE81
:100DC000FFF7BCFF10B1FF20BDE8F08145F0400007
:100DD000FFF7A4FF200EFFF7A1FFC4F30740FFF7C2
:100DE0009DFFC4F30720FFF799FFE0B2FFF796FFDE
:100DF0003846FFF793FF0C2D02D1FF20FFF78EFF3F
:100E00004FF01F0800BFFF20FFF788FF064606F0DF
:100E1000800030B1B8F10000A8F1010101F0FF0835
:100E2000F1D13046D0E710B5002400BFFF20FFF716
:100E300075FFFF2801D1002010BD641C6FF07F40BA
:100E40008442F3D30120F7E72DE9F04106460F462F
:100E5000154620480078062800D07F02012D0CD1CD
:100E6000012239461820FFF7A2FF04466CBBFE2181
:100E70003046FFF773FF044627E016480078012844
:100E800009D0012200213720FFF791FF01222946D6
:100E90001720FFF78CFF012239461920FFF787FF43
:100EA000044694B900BFFC213046FFF757FF0446C3
:100EB00006F50076681EC0B2051E01D0002CF2D0E7
:100EC000FD210020FFF74AFF0446FFF7C5FD20463D
:100ED000BDE8F0813400002008B501218803FFF748
:100EE00031FD01210820FFF73DFD4FF46040ADF8D2
:100EF000000018208DF8030003208DF802006946D9
:100F00001348FFF79CF94FF460411148FFF724FAAA
:100F10000020104908804FF48270488000208880AB
:100F20000220C88001200881400248813820888141
:100F30000020C88107200882074800F095F80121A9
:100F4000054800F047F8FF2000F008F808BD000051
:100F5000000C01404C0800200038004070B50546E8
:100F6000002405E0601CC4B2C82C01DD002070BD67
:100F700002210E4800F06AF80028F3D029460B48F9
:100F800000F070F8002405E0601CC4B2C82C01DD3C
:100F90000020ECE70121054800F058F80028F3D0C4
:100FA000024800F05CF8C0B2E1E700000038004001
:100FB00010B50446054884810146054800F054F800
:100FC0000121034800F006F810BD00004C08002085
:100FD0000038004021B1028842F04002028004E063
:100FE00002884FF6BF731A400280704708B501218E
:100FF0000420FFF7B7FCB020ADF8000010208DF8FA
:10100000030003208DF8020069460E48FFF717F928
:10101000B0210C48FFF7A0F901210820FFF7A2FC3E
:101020000320ADF8000010208DF8030003208DF898
:10103000020069460448FFF702F903210248FFF75E
:101040008BF908BD00080140000C01400246002059
:1010500013890B400BB1012000E0002070470146CE
:10106000888970478181704710B50022028802F498
:1010700041520B884C8823438C882343CC882343DC
:101080000C8923434C8923438C892343CC892343F4
:101090001A430280838B4FF2FF74234083830B8AB1
:1010A000038210BD70B504460E4626B102211848D1
:1010B000FFF752F903E002211548FFF74BF9102121
:1010C0001448FFF747F9002517E020211148FFF7E2
:1010D00041F904F0800020B180210E48FFF73CF96F
:1010E00003E080210B48FFF735F920210948FFF77D
:1010F00033F96006040E681CC5B2082DE5DB10212B
:101100000448FFF729F902210148FFF725F970BDCE
:10111000000C014000080140704710B500F002F8D3
:1011200010BD00000CB5002001900090334800680D
:1011300040F480303149086000BF3048006800F456
:10114000003000900198401C0190009818B9019857
:10115000B0F5A06FF1D12948006800F4003010B15B
:101160000120009001E0002000900098012843D168
:101170002348006840F010002149086008460068D4
:1011800020F0030008600846006840F00200086094
:101190001A4840681949486008464068486008464F
:1011A000406840F4806048600846406820F47C1045
:1011B00048600846406840F4E81048600846006807
:1011C00040F08070086000BF0C48006800F00070BC
:1011D0000028F9D00948406820F00300074948601A
:1011E0000846406840F00200486000BF034840687D
:1011F00000F00C000828F9D10CBD000000100240DE
:1012000000200240042808D14FF0E021096941F094
:1012100004014FF0E022116107E04FF0E02109697D
:1012200021F004014FF0E022116170477047000087
:1012300010B51348006840F00100114908600846E5
:101240004068104908400E494860084600680E4949
:1012500008400B4908600846006820F480200860B8
:101260000846406820F4FE0048604FF41F00886084
:10127000FFF753FF4FF000600449086010BD000005
:10128000001002400000FFF8FFFFF6FE08ED00E04E
:1012900010B500201349086040F22551124800F0B3
:1012A00037F8F0B1104800F0EFF8C4B20F480188E9
:1012B0000088401C0D4A10800D4844541046008898
:1012C000B0F5806F0DDB002011460880022209482E
:1012D00001880748FFF7B8FD06480088801C0549CB
:1012E000088010BDB4012242003801401C000020DB
:1012F0004C0000203600002021B1828942F40052C7
:10130000828104E082894DF6FF731A408281704722
:1013100070B50246002400230025002040F66A161E
:10132000B14200D100BFC1F3421501F01F030126F5
:1013300006FA03F3012D02D19689334006E0022D0F
:1013400002D1168A334001E0968A33400C120126FE
:1013500006FA04F41688344013B10CB1012000E001
:10136000002070BDF0B503460024002600250020B3
:1013700040F66A17B94200D100BF1846C1F34214C3
:1013800001F01F06012707FA06F5012C01D10C30E8
:1013900004E0022C01D1103000E014301AB10768CB
:1013A0002F43076002E00768AF430760F0BD00000D
:1013B0002DE9F04786B005460E460024A24600BF40
:1013C000A1460027B08900B100BF2F462C8A4CF6F9
:1013D000FF700440F08804432C82AC894EF6F31071
:1013E0000440B08831890843718908430443AC81C3
:1013F000AC8A4FF6FF400440B0890443AC8201A898
:10140000FFF7C0FA1F48874202D1DDF810A001E0C3
:10141000DDF80CA0A88900F4004040B10AEBCA0036
:1014200000EB0A1031684900B0FBF1F807E00AEB65
:10143000CA0000EB0A1031688900B0FBF1F86420A3
:10144000B8FBF0F004012009642101FB1089A88990
:1014500000F4004040B1322000EBC900B0FBF1F0D5
:1014600000F00700044308E0322000EB091064217B
:10147000B0FBF1F000F00F0004432C8106B0BDE892
:10148000F08700000038014001468888C0F308005A
:10149000704700BFFEE700BF7047000010B56FF057
:1014A0000400FFF7AFFE0A4800680A49B0FBF1F0FC
:1014B000094908700846007800EB4001C1EBC010F4
:1014C0004FF6FF7101EAC0000449088010BD00001A
:1014D0002000002000127A001400002016000020D6
:1014E0000146114A12884A434FF0E0235A61002214
:1014F0009A611A46126942F001021A6100BF4FF068
:10150000E022106900F001021AB100F48032002AD2
:10151000F5D04FF0E022126922F001024FF0E023F3
:101520001A6100229A617047160000201CB5FFF76F
:10153000B5FFFEF72FFF4FF4E13000F05FF8FFF743
:101540004BF800F023F8FEF72FFF1BE0002417E014
:10155000002000EB440102220B48FFF75FFB012053
:1015600040218023084ACDE9001000210846FFF7FA
:10157000C3F8FFF79BF87820FFF7B2FF601CC4B2F6
:10158000632CE5DBE2E700004C00002000B50949D0
:101590004FF47072C868002100F026F805494FF436
:1015A00070528868002100F01FF80120014908747A
:1015B00000BD0000380000200022002106E009489C
:1015C000C06830F8110000B1521C491CB1F5F07F21
:1015D000F5D3642050434FF4F073B0FBF3F0C0B286
:1015E000704700003800002030B5034601E003F8E2
:1015F000011B141EA2F10102F9D130BD10B586B055
:101600000446012144F20400FFF7ACF94FF40070E6
:10161000ADF8140003208DF8160018208DF817007F
:1016200005A91C48FEF70BFE4FF48060ADF81400CE
:1016300004208DF8170005A91648FEF700FE2520A6
:101640008DF8000003208DF801008DF802000120C4
:101650008DF803006846FEF737FF01940020ADF8CF
:101660000800ADF80A00ADF80C00ADF810000C2031
:10167000ADF80E0001A90848FFF79AFE012240F2DA
:1016800025510548FFF76EFE01210348FFF734FEA0
:1016900006B010BD00080140003801400000000005
:1016A0000000000000000000000000003F400000BB
:1016B000000000000000300040003000400000004A
:1016C00009000BC03D000BC03D00090018C02440BC
:1016D0007FE0224031800000180024C01B000D80F4
:1016E0003240018003801C4027401C80074000409E
:1016F000100060000000000000000000000000007A
:1017000000001F80204040200000402020401F801B
:1017100000000000090006001F800600090000000C
:10172000040004003F80040004000000001000607A
:101730000000000000000000040004000400040099
:101740000400000000000040000000000000000055
:10175000002001C006003800400000001F8020402B
:10176000204020401F800000000010403FC000408B
:101770000000000018C02140224024401840000012
:1017800010802040244024401B80000002000D00F7
:1017900011003FC0014000003C8024402440244010
:1017A000238000001F802440244034400380000038
:1017B0003000200027C03800200000001B8024409B
:1017C000244024401B8000001C0022C022402240F4
:1017D0001F80000000000000084000000000000022
:1017E0000000000004600000000000000000040091
:1017F0000A0011002080404009000900090009008A
:101800000900000000004040208011000A00040090
:101810001800200023402400180000001F802040F2
:10182000274029401F400000004007C039000F003A
:1018300001C0004020403FC0244024401B800000E5
:101840001F802040204020403080000020403FC0CA
:10185000204020401F80000020403FC024402E40F8
:1018600030C0000020403FC024402E003000000067
:101870000F001080204022403380020020403FC0F3
:10188000040004003FC02040204020403FC02040D2
:10189000204000000060202020203FC020002000C9
:1018A00020403FC024400B0030C0204020403FC0BB
:1018B00020400040004000C03FC03C0003C03C004E
:1018C0003FC0000020403FC00C4023003FC020002C
:1018D0001F802040204020401F80000020403FC04B
:1018E00024402400180000001F802140214020E0F7
:1018F0001FA0000020403FC02440260019C0004027
:1019000018C0244024402240318000003000204094
:101910003FC020403000000020003F8000400040D9
:101920003F80200020003E0001C00700380020005A
:10193000380007C03C0007C038000000204039C014
:10194000060039C0204000002000384007C0384061
:1019500020000000304021C02640384020C0000058
:10196000000000007FE040204020000000007000E8
:101970000C000380004000000000402040207FE079
:1019800000000000000020004000200000000000D7
:1019900000100010001000100010001000000000E7
:1019A00040000000000000000000028005400540EB
:1019B00003C0004020003FC00440044003800000FA
:1019C0000000038004400440064000000000038043
:1019D000044024403FC00040000003800540054013
:1019E00003400000000004401FC0244024402000A9
:1019F000000002E0055005500650042020403FC082
:101A00000440040003C000400000044027C0004020
:101A10000000000000100010041027E0000000008B
:101A200020403FC00140070004C004402040204047
:101A30003FC000400040000007C0040007C0040091
:101A400003C00000044007C00440040003C000407D
:101A5000000003800440044003800000041007F0ED
:101A60000450044003800000000003800440045040
:101A700007F00010044007C002400400040000000A
:101A8000000006400540054004C0000000000400BE
:101A90001F80044000400000040007800040044014
:101AA00007C000400400070004C0018006000400D5
:101AB000060001C0070001C006000000044006C087
:101AC000010006C0044000000410071004E001807B
:101AD000060004000000044005C006400440000069
:101AE0000000000004007BE0402000000000000037
:101AF0000000FFF000000000000040207BE0040038
:101B00000000000040008000400020002000400055
:101B100000000000000000000000000000000000C5
:101B20000000000000001FCC000C000000000000BE
:101B30000000080030006000080030006000000075
:101B4000022003FC1E20022003FC1E2002200000B5
:101B500000000E1811043FFF10840C7800000000F4
:101B60000F0010840F3800C0077818840078000038
:101B700000780F8410C411240E9800E4008400083B
:101B80000800680070000000000000000000000075
:101B900000000000000007E01818200440020000C8
:101BA000000040022004181807E0000000000000B8
:101BB0000240024001800FF001800240024000001C
:101BC0000080008000800FF800800080008000000E
:101BD0000001000D000E00000000000000000000E9
:101BE0000000008000800080008000800080008075
:101BF0000000000C000C00000000000000000000CD
:101C00000000000600180060018006001800200097
:101C1000000007F0080810041004080807F000008E
:101C20000000080408041FFC000400040000000079
:101C300000000E0C10141024104411840E0C00002F
:101C400000000C1810041104110412880C7000001C
:101C5000000000E00320042408241FFC00240000EE
:101C600000001F98108411041104108810700000E7
:101C7000000007F0088811041104188800700000A3
:101C800000001C00100010FC13001C0010000000DD
:101C900000000E3811441084108411440E380000E6
:101CA00000000700088C10441044088807F000006A
:101CB000000000000000030C030C00000000000006
:101CC000000000000001010600000000000000000C
:101CD00000000080014002200410080810040000E9
:101CE0000220022002200220022002200220000006
:101CF00000001004080804100220014000800000C9
:101D000000000E001200100C106C10800F0000007C
:101D100003E00C1813E4142417C4082807D00000AB
:101D20000004003C03C41C40074000E4001C000405
:101D300010041FFC1104110411040E88007000002F
:101D400003E00C1810041004100410081C1000000C
:101D500010041FFC100410041004080807F0000011
:101D600010041FFC1104110417C41004081800000B
:101D700010041FFC1104110017C01000080000001F
:101D800003E00C181004100410441C7800400000FC
:101D900010041FFC10840080008010841FFC1004BD
:101DA0000000100410041FFC1004100400000000C8
:101DB00000030001100110011FFE100010000000C0
:101DC00010041FFC110403801464181C100400008C
:101DD00010041FFC1004000400040004000C0000A8
:101DE00010041FFC1F0000FC1F001FFC100400005B
:101DF00010041FFC0C04030000E010181FFC10006E
:101E000007F00808100410041004080807F0000088
:101E100010041FFC10841080108010800F00000040
:101E200007F0081810241024101C080A07F20000FC
:101E300010041FFC1104110011C011300E0C00041D
:101E400000000E1C11041084108410441C38000083
:101E50001800100010041FFC1004100018000000EF
:101E600010001FF810040004000410041FF81000F4
:101E700010001E0011E0001C007013801C001000F8
:101E80001FC0103C00E01F0000E0103C1FC000001D
:101E90001004180C163401C001C01634180C1004BC
:101EA00010001C00130400FC13041C0010000000B0
:101EB0000804101C1064108413041C041018000083
:101EC0000000000000007FFE4002400240020000CF
:101ED000000030000C0003800060001C00030000C4
:101EE00000004002400240027FFE000000000000AF
:101EF00000000000200040004000400020000000E2
:101F000000010001000100010001000100010001C9
:101F10000000400040002000000000000000000021
:101F200000000098012401440144014400FC000425
:101F300010001FFC008801040104008800700000EC
:101F40000000007000880104010401040088000002
:101F50000000007000880104010411081FFC000447
:101F6000000000F8014401440144014400C800009D
:101F70000000010401040FFC1104110411001800F9
:101F8000000000D601290129012901C9010600002C
:101F900010041FFC008401000100010400FC000487
:101FA00000000104190419FC0004000400000000F2
:101FB0000000000300010101190119FE00000000EA
:101FC00010041FFC0024004001B4010C01040000B7
:101FD0000000100410041FFC0004000400000000B6
:101FE000010401FC0104010001FC0104010000FCEA
:101FF000010401FC008401000100010400FC000454
:10200000000000F8010401040104010400F80000CC
:10201000010101FF00850104010400880070000037
:1020200000000070008801040104010501FF0001A7
:102030000104010401FC008401040100018000008E
:10204000000000CC01240124012401240198000097
:1020500000000100010007F8010401040000000075
:10206000010001F8000400040004010801FC000460
:10207000010001800170000C00100160018001006E
:1020800001F0010C003001C00030010C01F0010032
:1020900000000104018C00740170018C0104000037
:1020A000010101810171000E001801600180010031
:1020B00000000184010C013401440184010C000082
:1020C000000000000000000001003EFC4002400251
:1020D0000000000000000000FFFF00000000000002
:1020E0000000400240023EFC010000000000000031
:1020F00000006000800080004000400020002000C0
:1021000000000000000000000000000000000000CF
:1021100000000000000000000000000000000000BF
:1021200000000000000000000000000000000000AF
:102130000000000F80380FFE380F803800000000CC
:10214000000000000000000000000000000001008E
:10215000000600000C0000380000310000060000FE
:102160000C000038000030000000000000000000FB
:1021700061800067F807F98000618000618000617C
:10218000800061800067F807F9800061800000002E
:1021900000000000000001C0E003E0F00630080489
:1021A00018081FFFFE040E080787F00381E00000F7
:1021B0000000000001F000060C00040408060C708A
:1021C00001F9C0000E00003BE000EC18070808040D
:1021D0000C180003E00000000001E00007F003F825
:1021E00018041C0804170807E1D003C0E00023B05E
:1021F000003C080020080000100000000000000162
:1022000000003100003200001C000000000000004F
:1022100000000000000000000000000000000000BE
:1022200000000000000000000000000000000000AE
:102230007F0001FFC00780F00C0018100004200090
:10224000020000000000002000021000040C001832
:102250000780F001FFC0007F0000000000000000C8
:1022600000000000000000000000000042000066C6
:1022700000006600003C0000180003FFC0001800CA
:10228000003C000066000066000042000000000004
:10229000080000080000080000080000080001FF16
:1022A000C000080000080000080000080000080046
:1022B00000000000000100003100003200001C009E
:1022C000000000000000000000000000000000000E
:1022D00000000000000000000800000800000800E6
:1022E00000080000080000080000080000080000C6
:1022F00008000008000000000000000000000000CE
:102300003800003800003800000000000000000025
:1023100000000000000000000000000000000000BD
:10232000000600001C000070000180000E00003854
:102330000000C0000700001C00003000000000008A
:10234000000000007F8001FFE00380700600180499
:10235000000804000806001803807001FFE0007FF9
:1023600080000000000000000000010008010008DB
:1023700001000803FFF807FFF8000008000008004C
:10238000000800000000000000000001C03802C08A
:1023900058040098040118040218040418061C18B4
:1023A00003F81801E0F80000000000000000000140
:1023B000C0E003C0F0040008040808040808061878
:1023C0000803F41801E7F00001E00000000000003D
:1023D000000000000300000D00001100006100007B
:1023E000810803010807FFF80FFFF800010800014A
:1023F000080000000000000000E007FCD00608080C
:10240000061008061008061008061838060FF00611
:1024100007C0000000000000000000003F8001FF36
:10242000E00384300208180410080410080410089F
:10243000071810030FF00007C000000000000000A4
:10244000000003C0000700000600000600F80607B1
:10245000F806180006E00007000006000000000073
:1024600000000001E1E003F7F0063410041808044E
:102470001808040C08040C0806161803F3F001C130
:10248000E000000000000000F80003FC3003063804
:102490000402080402080402080404100308F001FE
:1024A000FFC0007F000000000000000000000000EE
:1024B0000000000000000000703800703800703824
:1024C000000000000000000000000000000000000C
:1024D000000000000000000000000000301A003082
:1024E0001C000000000000000000000000000000D0
:1024F000000000000000000800001400002200009E
:10250000410000808001004002002004001008000B
:102510000800000000000000210000210000210050
:102520000021000021000021000021000021000006
:102530002100002100000000000000000000080051
:1025400008040010020020010040008080004100CB
:10255000002200001400000800000000000000033A
:10256000C00004C000040000080038080F38080844
:10257000380810000C300007E00003C00000000025
:10258000000000003F8000FFE0038070020F100693
:10259000708804C088048308047F8802C090030107
:1025A0002000FE400000080000180001F8003E086E
:1025B00001C20007020007E20000FE00001FC80081
:1025C00001F800003800000804000807FFF807FFC2
:1025D000F80408080408080408080408080618088D
:1025E00003F41801E7F00001E00000000000000023
:1025F0003F8001FFE003807002001804000804001F
:10260000080400080400100600200780C000000035
:1026100004000807FFF807FFF80400080400080496
:10262000000804001802001003807001FFE0007F22
:102630008000000004000807FFF807FFF8040808FE
:10264000040808040808040808043E0804000806F2
:10265000001801006000000004000807FFF807FFF1
:10266000F8040808040800040800040800043E00F8
:1026700006000006000001800000000000000000CD
:102680003F8001FFE0038070060018040008040288
:10269000080402080203F00783F0000200000200B1
:1026A00004000807FFF807FFF80408080008000006
:1026B000080000080000080004080807FFF807FFEA
:1026C000F8040008000000000000040008040008EE
:1026D00004000807FFF807FFF804000804000804D6
:1026E00000080000000000000000000000060000DC
:1026F0000700000104000104000104000307FFFEBD
:1027000007FFFC04000004000004000004000807A8
:10271000FFF807FFF8040C08001800003E0004C78B
:10272000800503C80600F8040038040018000008FB
:1027300004000807FFF807FFF8040008000008007D
:102740000008000008000008000008000018000051
:102750006000000004000807FFF807800807FC007D
:10276000007FC00003F80007C0007800078008075A
:10277000FFF807FFF804000804000807FFF8070047
:102780000803C00000E000003800001E0000070041
:102790000001C00400F007FFF80400000000000082
:1027A0007F8001FFE0038070060018040008040029
:1027B0000806001803003001FFE0007F80000000E1
:1027C00004000807FFF807FFF804040804040004E5
:1027D0000400040400040400060C0003F80001F0E7
:1027E00000000000000000007F8001FFE003807017
:1027F0000600880400880400C806003C03003E016F
:10280000FFE6007F8400000004000807FFF807FFD0
:10281000F8040808040800040C00040F00040BC0AE
:102820000610F003F03801E0080000080000000185
:10283000E0F803F030063010041808041808040CFF
:1028400008040C080206180207F00781E0000000E7
:1028500001800006000004000004000004000807D6
:10286000FFF807FFF8040008040000040000060059
:102870000001800004000007FFE007FFF0040018DB
:10288000000008000008000008000008000008041C
:10289000001007FFE004000004000006000007E04D
:1028A0000007FE00041FE00001F80000380001E00E
:1028B000043E0007C00006000004000004000007FA
:1028C000E00007FFC0041FF80007C007F80007FF7B
:1028D00080043FF80007C004F8000700000400006F
:1028E00000000004000806001807C07805F1C800C1
:1028F0003E00001F800463E80780F806001804000B
:102900000800000004000006000007800007E0083F
:10291000047C08001FF80007F800180804E0080706
:10292000000006000004000000000001000806008E
:10293000380400F80403E8040F08047C0805F008D4
:1029400007C0080700180400600000000000000035
:1029500000000000000000000000003FFFFE20001B
:1029600002200002200002200002200002000000DD
:1029700000000000000008000007000000C0000088
:1029800038000006000001C000003000000E00000A
:1029900001000000000000000000200002200002F2
:1029A0002000022000022000023FFFFE0000000085
:1029B0000000000000000000000000000000000017
:1029C000000800001000003000002000003000006F
:1029D00010000008000000000000000000000100DE
:1029E00000010000010000010000010000010000E2
:1029F00001000001000001000001000001000001D1
:102A00000000000000000000002000002000001076
:102A100000001000000000000000000000000000A6
:102A2000000000000000000000F00019F8001B1872
:102A3000002208002608002408002410003FF800A7
:102A40001FF800000800001800000004000007FF45
:102A5000F80FFFF0001818001008002008002008E8
:102A6000003018001FF0000FC00000000000000040
:102A700007C0001FF00018300020080020080020C8
:102A800008003C08001C100000600000000000006E
:102A90000000000007C0001FF000381800200800E8
:102AA000200800200804101007FFF80FFFF00000B6
:102AB000100000000000000000000007C0001FF030
:102AC00000123000221800220800220800320800FC
:102AD0001E10000E2000000000000000200000205A
:102AE0000800200801FFF803FFF80620080420086A
:102AF0000420080720000300000000000000000080
:102B0000000E000E6E001FF30031B10020B1002056
:102B1000B1003191001F13002E1E00200E00300066
:102B200000000004000807FFF80FFFF8001008007D
:102B30002000002000002008003FF8001FF80000DF
:102B4000080000000000000000000020080020082D
:102B5000002008063FF8063FF800000800000800C3
:102B6000000800000000000000000000000000005D
:102B700003000003002001002001002003063FFEA7
:102B8000063FFC0000000000000000000000000400
:102B9000000807FFF80FFFF8000188000300002F6E
:102BA000C00038F8002038002008000008000000AD
:102BB00000000000000004000804000804000807EA
:102BC000FFF80FFFF80000080000080000080000F0
:102BD00000000000002008003FF8003FF800100847
:102BE000002000003FF8003FF8001008002000001F
:102BF0003FF8003FF8000008000000002008003FF8
:102C0000F8003FF800100800100000200000200825
:102C1000003FF8001FF8000008000000000000005E
:102C200007C0000FF0001830003008002008002016
:102C300008003008001830000FF00007C000000046
:102C4000000000002001003FFF003FFF00101100C6
:102C50002009002008002008003038001FF0000F75
:102C6000C00000000000000007C0001FF00038187E
:102C7000002008002008002009001011001FFF009C
:102C80003FFF000001000000002008002008002095
:102C900008003FF8003FF80008080010080020086E
:102CA00000200000300000300000000000000000A4
:102CB0000000000C78001E180033080023080021D3
:102CC000080021880021980030F0003860000000E2
:102CD00000000000200000200000200000FFF003A2
:102CE000FFF8002008002008002008000030000045
:102CF00000000000000000002000003FF0007FF80E
:102D0000000018000008000008002010003FF80034
:102D10007FF00000100000000000000020000030E4
:102D200000003C00003F800023F0000078000070AD
:102D3000002380003C000030000020000020000044
:102D40003C00003FE00023F80000E0002700003EC8
:102D500000003FE00021F80001E0003E00002000FC
:102D6000000000002008002008003838003E6800FD
:102D700027800003C8002CF80038380020180020F5
:102D800008000000000000002000003003003C01AB
:102D9000003F830023EC000070002380003C000013
:102DA00020000020000000000000000000000038AB
:102DB000080020380020F80023E8002F88003E0893
:102DC000003808002018000070000000000000001B
:102DD00000000000000000000000000008000014D7
:102DE000001FF7FC30000620000200000000000079
:102DF00000000000000000000000000000000000D3
:102E00000000FFFFFF0000000000000000000000C5
:102E1000000000000000000000002000023000065A
:102E20001FF7FC0014000008000000000000000074
:102E3000000000000000000000000018000060001A
:102E400000400000400000200000100000080000CA
:102E50000400000400000C0000100000020000004C
:102E6000802E0008000000204C000000280100080F
:102E7000CC2E00084C000020344E00004401000815
:102E80000000000001020304010203040607080910
:102E9000020406080000000000000000000000001E
:102EA00000A24A0400000000000000000102030428
:102EB00006070809000000008D150008B915000874
:0C2EC000600800206044002000000000BA
:04000005080000ED02
:00000001FF
