:020000040800F2
:10000000780A002089010008D504000825040008AA
:1000100071040008610200080D30000800000000B3
:10002000000000000000000000000000952E000805
:100030006502000800000000712E0008A92F0008CA
:10004000A3010008A3010008A3010008A301000800
:10005000A3010008A3010008A3010008A3010008F0
:10006000A3010008A3010008A3010008A3010008E0
:10007000A3010008A3010008A3010008A3010008D0
:10008000A3010008A3010008A3010008A3010008C0
:10009000A3010008A3010008A3010008A3010008B0
:1000A000A3010008A3010008A3010008A3010008A0
:1000B000A3010008A3010008A3010008A301000890
:1000C000A3010008A3010008A3010008A301000880
:1000D000A3010008A3010008A3010008A301000870
:1000E000A3010008A3010008A301000800F002F822
:1000F00000F03AF80AA090E8000C82448344AAF188
:100100000107DA4501D100F02FF8AFF2090EBAE885
:100110000F0013F0010F18BFFB1A43F0010318473B
:10012000C0470000E0470000103A24BF78C878C1FB
:10013000FAD8520724BF30C830C144BF04680C60ED
:10014000704700000023002400250026103A28BF35
:1001500078C1FBD8520728BF30C148BF0B60704739
:100160001FB51FBD10B510BD00F044F81146FFF7D4
:10017000F7FF03F0F1FA00F062F803B4FFF7F2FFC3
:1001800003BC00F067F800000948804709480047B1
:10019000FEE7FEE7FEE7FEE7FEE7FEE7FEE7FEE737
:1001A000FEE7FEE704480549054A064B7047000094
:1001B000AD2F0008ED00000878040020780A002028
:1001C000780600207806002070477047704710B509
:1001D00000F008F8006810BD10B5044600F002F801
:1001E000046010BD004870471804002000487047A4
:1001F000180400207546FFF7F9FFAE460500694672
:10020000534620F00700854618B020B5FFF7CAFF17
:10021000BDE820404FF000064FF000074FF0000807
:100220004FF0000B21F00701AC46ACE8C009ACE888
:10023000C009ACE8C009ACE8C0098D46704710B5EC
:100240000446AFF300802046BDE81040FFF795BF9D
:100250007047000001491820ABBEFEE726000200EF
:1002600000BFFEE770471CB501201E233C221F2162
:1002700000903F2002F0E0FC01201E233C221F21C1
:1002800000903F2002F0FAFA012014231E221F21C1
:1002900000903F2001F07AFE0120B42114231E2299
:1002A000CDE900101F213F2002F038FC0120B421CD
:1002B00014231E22CDE900101F213F2002F096FCDE
:1002C0000120B42114231E22CDE900101F213F205C
:1002D00002F04AFC01201E233C221F2100903F20F7
:1002E00002F0DAFC01201E233C221F2100903F2057
:1002F00002F075FB01201E233C221F2100903F20AD
:1003000002F0B8FB1CBD2DE9F04102460025002695
:10031000002000230024002791F803C00CF00F05F3
:1003200091F803C00CF0100CBCF1000F03D091F851
:1003300002C04CEA050591F800C0BCF1000F31D0B5
:10034000146800202BE04FF0010C0CFA00F3B1F818
:1003500000C00CEA03069E4220D183004FF00F0C30
:100360000CFA03F7BC4305FA03FC4CEA040491F8C9
:1003700003C0BCF1280F06D14FF0010C0CFA00FCB1
:10038000C2F814C00AE091F803C0BCF1480F05D1CF
:100390004FF0010C0CFA00FCC2F810C0401C0828F9
:1003A000D1D31460B1F800C0BCF1FF0F34DD546844
:1003B00000202EE000F1080C4FF0010808FA0CF3C1
:1003C000B1F800C00CEA03069E4221D183004FF031
:1003D0000F0C0CFA03F7BC4305FA03FC4CEA0404C7
:1003E00091F803C0BCF1280F05D100F1080C08FA00
:1003F0000CF8C2F8148091F803C0BCF1480F07D183
:1004000000F1080C4FF0010808FA0CF8C2F810804F
:10041000401C0828CED35460BDE8F081416170478C
:100420000161704700BFFEE7F8B506460D46144669
:100430000121304602F01EFDADF8004010208DF87D
:10044000030003208DF8020069462846FFF75BFF92
:1004500021462846FFF7E4FFF8BD000010B54FF431
:10046000005202491020FFF7DFFF10BD00100140CD
:1004700000BFFEE708B50121042002F0FBFCB0201C
:10048000ADF8000010208DF8030003208DF8020065
:1004900069460E48FFF737FFB0210C48FFF7C0FF51
:1004A0000121082002F0E6FC0320ADF80000102036
:1004B0008DF8030003208DF8020069460448FFF719
:1004C00022FF03210248FFF7ABFF08BD00080140EF
:1004D000000C01407047000070B500240CE00025BE
:1004E00006E00020074901EBC5010855681CC5B2AC
:1004F000802DF6DB601CC4B2082CF0DB01F0B2FCEE
:1005000070BD0000180000202DE9F84105460E4698
:1005100017469846079C33463A463146284600948B
:1005200000F08EFA43463A4641462846009400F0D1
:1005300087FA43462A4631462846009400F080FA5E
:1005400043463A4631463846009400F079FABDE811
:10055000F88100002DE9F04F8DB081460E4614461B
:100560001D46DDF858A04FF0000B04EBD471A9EB49
:100570006101002927D54BF0010B204603F008FC50
:10058000CDE90601484603F003FCCDE90401284605
:1005900003F0FEFB00227B4BCDE9000103F048FC99
:1005A000CDE90201DDE9042303F042FC0746DDE961
:1005B000062303F021FACDE9080103F0A5FBC5B23B
:1005C0004FEA4960040E05EBD571A6EB61010029E5
:1005D00026D54BF0040B284603F0DAFBCDE90601E3
:1005E000700003F0BEFBCDE90201204603F0D0FB12
:1005F00007460022634B03F01BFCCDE90001DDE957
:10060000022303F015FCCDE90401DDE9062303F024
:10061000F3F9CDE9080103F077FBC4B27006050ECB
:1006200004EBD47109EB610180292BDB4BF0020B49
:10063000284603F0ADFBCDE90601C9F18001480071
:1006400003F08FFB07468846284603F0A1FB0022F3
:100650004C4BCDE9000103F0EBFB3A464346CDE9B4
:10066000020103F0E5FBCDE90401DDE9062303F017
:10067000C3F9CDE9080103F047FBC5B2C9F1000099
:100680004006040E05EBD57106EB610140292ADB1B
:100690004BF0080B204603F07BFBCDE90601C6F1C9
:1006A0004001480003F05DFBCDE90201204603F064
:1006B0006FFB07460022334B03F0BAFBCDE9000184
:1006C000DDE9022303F0B4FBCDE90401DDE90623F3
:1006D00003F092F9CDE9080103F016FBC4B2C6F1AC
:1006E00040004006050E204604EBD071A9EB6101E5
:1006F000C9B28DF82C10284605EBD071A6EB61012C
:10070000C9B28DF82D10204604EBD07109EB6101C0
:10071000C9B28DF82810284605EBD07106EB6101AF
:10072000C9B28DF82910CDF800A09DF829309DF8A8
:10073000282019469DF82C0000F082F9CDF800A081
:100740009DF82D309DF8282019469DF82C0000F0CA
:1007500077F9CDF800A09DF82D309DF82C209DF85C
:100760002910104600F06CF9CDF800A09DF82D304E
:100770009DF828209DF82910104600F061F90DB071
:10078000BDE8F08F0000F03F2DE9F04F95B0064630
:100790000F4615461C46DDE91E890020149060B204
:1007A0008DF85100604203F0DCFA0022A24BCDE943
:1007B000080103F065F8CDE90C0105FB05F003F035
:1007C000D0FACDE90A01DDE90C2303F031FBCDE9D4
:1007D000100104FB04F003F0C4FACDE90E01DDE9D9
:1007E000102303F04DF8CDE9120103F017F883460A
:1007F000CDE900899DF95100C3199DF95000821976
:100800003946304600F08EFA49E00021584603F0A0
:10081000E9FD15D804FB04F19DF950205200D21CCB
:1008200001FB02F003F0B2FD5946139003F020FDE6
:1008300083469DF85000401C40B28DF8500022E0E5
:1008400004FB04F19DF950205200D21C514305FBDA
:1008500005F29DF951305B00C3F1020302FB031066
:1008600003F094FD5946139003F002FD83469DF872
:100870005000401C40B28DF850009DF85100401EC1
:1008800040B28DF85100CDE900899DF95100C3199E
:100890009DF9500082193946304600F043FA9DF91F
:1008A000510003F05EFA0022644BCDE90A0103F027
:1008B000C9FBCDE90E0105FB05F003F052FACDE9C5
:1008C0000C01DDE90E2303F0B3FACDE9120104FBBC
:1008D00004F19DF95020521C01FB02F003F041FA93
:1008E000CDE91001DDE9122303F066FA8DD305FB93
:1008F00005F1614301FB04F003F033FACDE9100187
:1009000005FB05F19DF95120521E51439DF95120DF
:10091000521E01FB02F003F024FACDE90C019DF90F
:10092000500003F01EFA0022444BCDE9040102F00E
:10093000A7FFCDE908019DF9500003F012FA00224B
:100940003E4BCDE9000102F09BFFCDE9040104FB21
:1009500004F003F006FACDE90201DDE9042303F017
:1009600067FACDE90601DDE9082303F061FACDE974
:100970000A01DDE90C2302F083FFCDE90E01DDE978
:10098000102303F05FFBCDE9120102F047FF82461E
:100990004AE00021504603F025FD23D804FB04F172
:1009A0009DF950205200921C514305FB05F29DF920
:1009B00051305B00C3F1030302FB031003F0E6FCBC
:1009C0005146139003F054FC82469DF85000401CA1
:1009D00040B28DF850009DF85100401E40B28DF895
:1009E000510015E005FB05F19DF951205200C2F1BF
:1009F000030201FB02F003F0C9FC5146139003F01F
:100A000037FC82469DF85100401E40B28DF85100DF
:100A1000CDE900899DF95100C3199DF95000821953
:100A20003946304600F07EF99DF951000028B0DCCF
:100A300015B0BDE8F08F00000000D03F0000E03F9F
:100A40002DE9FF4F04460D4690469946A8EB040653
:100A5000A9EB050700200390824607BB002E07DAAA
:100A6000704206B284EA080488EA040884EA0804AA
:100A700010E0BDF80E202A44D1B2BDF80C2022446B
:100A8000D0B20D9A00F01AF9BDF80C00401C00B26B
:100A9000ADF80C00BDF90C00B042EADD0BE106BB7D
:100AA000002F07DA784207B285EA090589EA0509C5
:100AB00085EA090510E0BDF80E202A44D1B2BDF840
:100AC0000C202244D0B20D9A00F0F8F8BDF80E00C8
:100AD000401C00B2ADF80E00BDF90E00B842EADDD0
:100AE000E9E0002E04DD002F02DD4AF0010A2FE0CC
:100AF000002E0ADD002F08DA4AF0020A784207B217
:100B0000C9EB450000F0FF0922E0002E14DA002FA7
:100B100012DA4AF0040A704206B2784207B284EA56
:100B2000080488EA040884EA080485EA090589EAD1
:100B3000050985EA09050BE0002E09DA002F07DD1B
:100B40004AF0080A704206B2C8EB440000F0FF0801
:100B5000BE4217DA4AF0100A8DF800808DF8019035
:100B6000601B9DF80110084400F0FF086042284413
:100B70009DF80010084400F0FF09A8EB0406A9EB5B
:100B8000050700BF780000B20290B81B400000B219
:100B90000190C6EB47000FFA80FBBDF80E202A44F7
:100BA000D1B2BDF80C202244D0B20D9A00F086F8E4
:100BB000BDF80C00401C00B2ADF80C0076E0BBF1B3
:100BC000000F04DA029858440FFA80FB09E0BDF8E0
:100BD0000E00401C00B2ADF80E00019858440FFA08
:100BE00080FB0AF00F00012806D0022820D004283C
:100BF00003D0082852D136E000BF0AF0100058B1E7
:100C0000BDF80C202A44D1B2BDF80E202244D0B247
:100C10000D9A00F053F80AE0BDF80E202A44D1B234
:100C2000BDF80C202244D0B20D9A00F047F836E00F
:100C30000AF0100058B1BDF80C20AA1AD1B2BDF8C4
:100C40000E202244D0B20D9A00F038F80AE0BDF828
:100C50000E20AA1AD1B2BDF80C202244D0B20D9AAF
:100C600000F02CF81BE00AF0100058B1BDF80C2081
:100C70002A44D1B2BDF80E20A21AD0B20D9A00F0CB
:100C80001DF80AE0BDF80E202A44D1B2BDF80C20B0
:100C9000A21AD0B20D9A00F011F800E000BF00BF18
:100CA000BDF80C00401C00B2ADF80C00BDF90C0002
:100CB000B04284DD00BFBDE8FF8F0000F0B51446F0
:100CC00000267F2801DC3F2900DDF0BD0B46CF1751
:100CD00001EB5777FF10C7F10707FAB2CF1701EB07
:100CE0005777FF10A1EBC707FDB2C5F10707012336
:100CF000BB40DEB24CB10A4B03EBC0039B5C3343F9
:100D0000074F07EBC007BB5408E0054B03EBC003DC
:100D10009B5CB343024F07EBC007BB5400BFD4E753
:100D2000180000202DE9F04F8DB081460E46144684
:100D30001D46169803F02CF882467E4A7E4B03F03F
:100D400077F8074602F06AFD0C900C9803F064FAFD
:100D5000824602F013FD074602F060FD0B900C98EE
:100D600003F05AFA824602F087FC074602F056FD6D
:100D70000A90A4EB090004B2A81B05B2204603F0B8
:100D800005FB07460B9903F061FB0990204603F031
:100D9000FDFA07460A9903F059FB0890284603F02C
:100DA000F5FA07460B9903F051FB0790284603F02C
:100DB000EDFA07460A9903F049FB0690604203F0FA
:100DC000E5FA07460B9903F041FB0590604203F0FA
:100DD000DDFA07460A9903F039FB0490684203F0F4
:100DE000D5FA07460B9903F031FB0390684203F0F4
:100DF000CDFA07460A9903F029FB0290304603F02A
:100E0000DDFA83460699099803F032FA59460190B3
:100E100003F02EFA824603F099FAC7B2484603F06F
:100E2000CDFA8346DDE9071003F0DCFB594601905B
:100E300003F01EFA824603F089FA00F0FF083946F3
:100E40004046179AFFF73AFF304603F0B7FA834659
:100E50000299099803F00CFA5946019003F008FA38
:100E6000824603F073FA00F0FF08484603F0A6FA42
:100E700083460399089803F0B5FB5946019003F0A7
:100E8000F7F9824603F062FAC7B241463846179A2C
:100E9000FFF714FF304603F091FA83460299059854
:100EA00003F0E6F95946019003F0E2F9824603F0B7
:100EB0004DFAC7B2484603F081FA8346DDE90310D4
:100EC00003F090FB5946019003F0D2F9824603F0FB
:100ED0003DFA00F0FF0839464046179AFFF7EEFE4C
:100EE000304603F06BFA8346DDE9050103F0C0F9F3
:100EF0005946019003F0BCF9824603F027FAC7B2C5
:100F0000484603F05BFA83460799049803F06AFBAE
:100F10005946019003F0ACF9824603F017FA00F04D
:100F2000FF0839464046179AFFF7C8FE0DB0BDE8E6
:100F3000F08F0000E3A862C346DF913F2DE9F04740
:100F40008046894614461D46DDE9097A089EEA195D
:100F5000D1B2A219D0B25246FFF7B0FEC5EB49029A
:100F6000D21BD1B2A219D0B25246FFF7A7FEC5EBF1
:100F70004902D21BD1B2C4EB4802921BD0B25246F6
:100F8000FFF79CFEEA19D1B2C4EB4802921BD0B223
:100F90005246FFF793FEBDE8F08700000FB599B009
:100FA0001E9802F0F5FEFE4AFE4BCDE9020102F06A
:100FB0003FFFCDE9040102F031FC1890189803F0CE
:100FC0002BF9CDE9020102F0D9FBCDE9040102F0D1
:100FD00025FC1790189803F01FF9CDE9020102F0E3
:100FE0004BFBCDE9040102F019FC169019991B98EE
:100FF000401A049003F0CAF90590179903F026FAF5
:10100000159019991B98401A049003F0BFF90590A8
:10101000169903F01BFA14901A991C98401A049020
:1010200003F0B4F90590179903F010FA13901A9988
:101030001C98401A049003F0A9F90590169903F042
:1010400005FA129019991C9801441A98091A1998CE
:10105000081A049003F09AF90590179903F0F6F92D
:1010600011901C99199801441A98091A1998081A8C
:10107000049003F08BF90590169903F0E7F91090AE
:1010800019991B98411A1A980144081A049003F000
:101090007DF90590179903F0D9F90F9019991B98CC
:1010A000411A1A980144081A049003F06FF9059048
:1010B000169903F0CBF90E901B9841421998014400
:1010C0001A980144081A049003F060F905901799E2
:1010D00003F0BCF90D901B984142199801441A98ED
:1010E0000144081A049003F051F90590169903F091
:1010F000ADF90C901C984142199801441A9801448A
:101100001998081A049003F041F90590179903F013
:101110009DF90B901C984142199801441A9801447A
:101120001998081A049003F031F90590169903F004
:101130008DF90A901B984142199801440144081AFC
:10114000049003F023F90590179903F07FF90990B3
:101150001B984142199801440144081A049003F075
:1011600015F90590169903F071F908901C98414201
:101170001A9801440144081A049003F007F90590F5
:10118000179903F063F907901C9841421A9801449B
:101190000144081A049003F0F9F80590169903F039
:1011A00055F906901A9803F009F9029012991598CA
:1011B00003F05EF80190029903F05AF8039003F0EF
:1011C000C5F8C0B20590199803F0F8F80290DDE96F
:1011D000131003F007FA0190029903F049F8039005
:1011E00003F0B4F8C0B204901F9A0599FFF766FDAA
:1011F0001A9803F0E3F802900E99119803F038F86A
:101200000190029903F034F8039003F09FF8C0B204
:101210000590199803F0D2F80290DDE90F1003F061
:10122000E1F90190029903F023F8039003F08EF89E
:10123000C0B204901F9A0599FFF740FD1A9803F079
:10124000BDF802900C99119803F012F801900299E0
:1012500003F00EF8039003F079F8C0B205901998E6
:1012600003F0ACF802900D99109803F0BBF90190CF
:10127000029902F0FDFF039003F068F8C0B20490F9
:101280001F9A0599FFF71AFD1A9803F097F8029034
:101290000699159802F0ECFF0190029902F0E8FF20
:1012A000039003F053F8C0B20590199803F086F844
:1012B00002900799149803F095F90190029902F0B1
:1012C000D7FF039003F042F8C0B204901F9A05992B
:1012D000FFF7F4FC1A9803F071F802900699099848
:1012E00002F0C6FF0190029902F0C2FF039003F0E2
:1012F0002DF8C0B20590199803F060F80290DDE96E
:10130000071003F06FF90190029902F0B1FF03900A
:1013100003F01CF8C0B204901F9A0599FFF7CEFCA9
:101320001A9803F04BF80290DDE90B0102F0A0FFE0
:101330000190029902F09CFF039003F007F8C0B2FD
:101340000590199803F03AF802900D990A9803F065
:1013500049F90190029902F08BFF039002F0F6FF29
:10136000C0B204901F9A0599FFF7A8FC1A9803F0E1
:1013700025F802900E990B9802F07AFF01900299DD
:1013800002F076FF039002F0E1FFC0B205901998D9
:1013900003F014F802900F990A9803F023F903E080
:1013A000E3A862C346DF913F0190029902F060FF1B
:1013B000039002F0CBFFC0B204901F9A0599FFF78B
:1013C0007DFC1A9802F0FAFF02901299099802F037
:1013D0004FFF0190029902F04BFF039002F0B6FF1D
:1013E000C0B20590199802F0E9FF0290139908988D
:1013F00003F0F8F80190029902F03AFF039002F02E
:10140000A5FFC0B204901F9A0599FFF757FC1DB0C5
:1014100000BD2DE9F04704460D4616461F46DDE99E
:10142000099ADDF8208007EB0902D1B206EB080229
:10143000D0B25246FFF742FC321B2A444A44D1B292
:101440003A19521B4244D0B25246FFF737FC72425F
:1014500022442A44A2EB0902D1B23A19521B424457
:10146000D0B25246FFF72AFC7A422A442A44A2EB21
:101470000902D1B206EB0802D0B25246FFF71EFCB9
:101480007A422A442A44A2EB0902D1B2724222448F
:101490002244A2EB0802D0B25246FFF70FFC724280
:1014A00022442A44A2EB0902D1B27A4222442A44BD
:1014B000A2EB0802D0B25246FFF700FC321B2A44CE
:1014C0004A44D1B27A4222442A44A2EB0802D0B262
:1014D0005246FFF7F3FB07EB0902D1B272422244F6
:1014E0002244A2EB0802D0B25246FFF7E7FBBDE868
:1014F000F0872DE9F04F87B08046894615461E4695
:10150000DDE91047284605EBD071A8EB6101C9B2AF
:101510008DF81810304606EBD071A9EB6101C9B205
:101520008DF81910284605EBD07108EB6101C9B29E
:101530008DF81410304606EBD07109EB6101C9B289
:101540008DF81510294605EBD1725210A24204DB2A
:1015500006EBD0725210A2420BDAB54204DA2946E9
:1015600001EBD172521003E0304600EBD072521002
:10157000D4B200979DF815309DF814C0ACEB040C64
:101580000CF0FF0219469DF818C0A4440CF0FF00AF
:10159000FFF756FA00979DF819309DF814C0ACEB90
:1015A000040C0CF0FF0219469DF818C0A4440CF07E
:1015B000FF00FFF745FA00979DF819C0A4440CF00E
:1015C000FF039DF818209DF815C0ACEB040C0CF03F
:1015D000FF011046FFF734FA00979DF819C0A444A4
:1015E0000CF0FF039DF814209DF815C0ACEB040C23
:1015F0000CF0FF011046FFF723FA002004908DF84D
:101600001140B34606EBDB70C4EB6000C0B205EBE3
:10161000D571C4EB6101C9B2CDE90275CDE9001005
:101620009DF811004844C3B29DF810004044C2B276
:1016300049464046FFF7EDFEC4F101004FFA80FA3B
:1016400001208DF810003BE0BAF1000F07DA9DF899
:1016500010004000401C50444FFA80FA0FE09DF803
:101660001100401EC0B28DF811009DF810009DF8C9
:101670001110401A4000401C50444FFA80FAB34603
:1016800006EBDB70C4EB6000C0B205EBD571C4EBB8
:101690006101C9B2CDE90275CDE900109DF81100D4
:1016A0004844C3B29DF810004044C2B24946404687
:1016B000FFF7AFFE9DF81000401CC0B28DF810007F
:1016C0009DF810009DF811108842BDDD07B0BDE8FF
:1016D000F08F2DE9F04F87B08046894615461E46AB
:1016E000DDE91047284605EBD071A8EB6101C9B2CE
:1016F0008DF81810304606EBD071A9EB6101C9B224
:101700008DF81910284605EBD07108EB6101C9B2BC
:101710008DF81410304606EBD07109EB6101C9B2A7
:101720008DF81510294605EBD1725210A24204DB48
:1017300006EBD0725210A2420BDAB54204DA294607
:1017400001EBD172521003E0304600EBD072521020
:10175000D4B200979DF815309DF814209DF819100B
:101760009DF81800FEF7D0FE0FB9012000E0002020
:1017700000909DF819309DF818C0A4440CF0FF02A9
:1017800019469DF81800FFF75BF90FB9012000E03A
:10179000002000909DF819309DF814C0ACEB040CAB
:1017A0000CF0FF0219469DF81400FFF749F90FB934
:1017B000012000E0002000909DF815309DF818C031
:1017C000A4440CF0FF0219469DF81800FFF738F901
:1017D0000FB9012000E0002000909DF815309DF821
:1017E00014C0ACEB040C0CF0FF0219469DF8140079
:1017F000FFF726F90FB9012000E0002000909DF8C6
:1018000019C0A4440CF0FF039DF818209DF819108E
:101810001046FFF715F90FB9012000E000200090F5
:101820009DF815C0ACEB040C0CF0FF039DF81820DC
:101830009DF815101046FFF703F90FB9012000E0DD
:10184000002000909DF819C0A4440CF0FF039DF8FF
:1018500014209DF819101046FFF7F2F80FB9012077
:1018600000E0002000909DF815C0ACEB040C0CF0DB
:10187000FF039DF814209DF815101046FFF7E0F8BF
:10188000002004908DF81140B34606EBDB70C4EBEA
:101890006000C0B205EBD571C4EB6101C9B2CDE9FE
:1018A0000275CDE900109DF811004844C3B29DF8BF
:1018B00010004044C2B249464046FFF7AAFDC4F1B9
:1018C00001004FFA80FA01208DF810003BE0BAF1D8
:1018D000000F07DA9DF810004000401C50444FFAFA
:1018E00080FA0FE09DF81100401EC0B28DF8110083
:1018F0009DF810009DF81110401A4000401C504403
:101900004FFA80FAB34606EBDB70C4EB6000C0B25E
:1019100005EBD571C4EB6101C9B2CDE90275CDE922
:1019200000109DF811004844C3B29DF810004044D7
:10193000C2B249464046FFF76CFD9DF81000401CBE
:10194000C0B28DF810009DF810009DF8111088426B
:10195000BDDD07B0BDE8F08F2DE9F04F87B08046C0
:10196000894616461F46DDE91045304606EBD07124
:10197000A8EB6101C9B28DF81810384607EBD07199
:10198000A9EB6101C9B28DF81910304606EBD07190
:1019900008EB6101C9B28DF81410384607EBD0711D
:1019A00009EB6101C9B28DF8151000959DF815304D
:1019B0009DF814209DF819109DF81800FEF7A4FD5D
:1019C0000DB9012000E0002000909DF819309DF82D
:1019D00018C0A4440CF0FF0219469DF81800FFF748
:1019E0002FF80DB9012000E0002000909DF819307B
:1019F0009DF814C0ACEB040C0CF0FF0219469DF8E6
:101A00001400FFF71DF80DB9012000E00020009040
:101A10009DF815309DF818C0A4440CF0FF0219463B
:101A20009DF81800FFF70CF80DB9012000E0002028
:101A300000909DF815309DF814C0ACEB040C0CF030
:101A4000FF0219469DF81400FEF7FAFF0DB90120B8
:101A500000E0002000909DF819C0A4440CF0FF03A2
:101A60009DF818209DF819101046FEF7E9FF0DB9F2
:101A7000012000E0002000909DF815C0ACEB040CA4
:101A80000CF0FF039DF818209DF815101046FEF786
:101A9000D7FF0DB9012000E0002000909DF819C08B
:101AA000A4440CF0FF039DF814209DF81910104673
:101AB000FEF7C6FF0DB9012000E0002000909DF860
:101AC00015C0ACEB040C0CF0FF039DF814209DF83E
:101AD00015101046FEF7B4FF002004908DF8114059
:101AE000BB4607EBDB70C4EB6000C0B206EBD671FF
:101AF000C4EB6101C9B201AA61C200919DF8110055
:101B00004844C3B29DF810004044C2B24946404622
:101B1000FFF77FFCC4F101004FFA80FA01208DF835
:101B200010003AE0BAF1000F07DA9DF8100040000B
:101B3000401C50444FFA80FA0FE09DF81100401EFF
:101B4000C0B28DF811009DF810009DF81110401AD8
:101B50004000401C50444FFA80FABB4607EBDB7054
:101B6000C4EB6000C0B206EBD671C4EB6101C9B230
:101B700001AA61C200919DF811004844C3B29DF8CA
:101B800010004044C2B249464046FFF742FC9DF86F
:101B90001000401CC0B28DF810009DF810009DF898
:101BA00011108842BEDD07B0BDE8F08F2DE9F04F7F
:101BB00095B006460F4615461C46DDE91E890020F5
:101BC000149060B28DF85100604202F0CAF8002211
:101BD000A24BCDE9080101F053FECDE90C0105FB54
:101BE00005F002F0BEF8CDE90A01DDE90C2302F0B0
:101BF0001FF9CDE9100104FB04F002F0B2F8CDE9C1
:101C00000E01DDE9102301F03BFECDE9120101F0E8
:101C100005FE8346CDE900899DF95100C3199DF960
:101C20005000821939463046FFF7B8F949E00021E3
:101C3000584602F0D7FB15D804FB04F19DF950205B
:101C40005200D21C01FB02F002F0A0FB5946139097
:101C500002F00EFB83469DF85000401C40B28DF808
:101C6000500022E004FB04F19DF950205200D21CE8
:101C7000514305FB05F29DF951305B00C3F10203AE
:101C800002FB031002F082FB5946139002F0F0FAB7
:101C900083469DF85000401C40B28DF850009DF8DE
:101CA0005100401E40B28DF85100CDE900899DF9E8
:101CB0005100C3199DF95000821939463046FFF78B
:101CC0006DF99DF9510002F04CF80022644BCDE90A
:101CD0000A0102F0B7F9CDE90E0105FB05F002F0AB
:101CE00040F8CDE90C01DDE90E2302F0A1F8CDE9C1
:101CF000120104FB04F19DF95020521C01FB02F07B
:101D000002F02FF8CDE91001DDE9122302F054F8BA
:101D10008DD305FB05F1614301FB04F002F021F8CE
:101D2000CDE9100105FB05F19DF95120521E5143EB
:101D30009DF95120521E01FB02F002F012F8CDE98C
:101D40000C019DF9500002F00CF80022444BCDE943
:101D5000040101F095FDCDE908019DF9500002F064
:101D600000F800223E4BCDE9000101F089FDCDE9EC
:101D7000040104FB04F001F0F4FFCDE90201DDE908
:101D8000042302F055F8CDE90601DDE9082302F04D
:101D90004FF8CDE90A01DDE90C2301F071FDCDE931
:101DA0000E01DDE9102302F04DF9CDE9120101F039
:101DB00035FD82464AE00021504602F013FB23D84D
:101DC00004FB04F19DF950205200921C514305FB85
:101DD00005F29DF951305B00C3F1030302FB0310D0
:101DE00002F0D4FA5146139002F042FA82469DF86E
:101DF0005000401C40B28DF850009DF85100401E2C
:101E000040B28DF8510015E005FB05F19DF9512018
:101E10005200C2F1030201FB02F002F0B7FA514690
:101E2000139002F025FA82469DF85100401E40B200
:101E30008DF85100CDE900899DF95100C3199DF934
:101E40005000821939463046FFF7A8F89DF9510035
:101E50000028B0DC15B0BDE8F08F00000000D03FD6
:101E60000000E03F70B500241CE004F1B001C8B2EE
:101E7000002100F0C3FF0021084600F0BFFF002151
:101E8000102000F0BBFF002508E0084901EBC50168
:101E9000085D012100F0B2FF681CC5B2802DF4DBA3
:101EA000601CC4B2082CE0DB70BD000018000020EC
:101EB00010B5FEF7DFFA10BD10B5FFF7F9FF0021EE
:101EC000AE2000F09BFF0021D52000F097FF0021FD
:101ED000502000F093FF0021A82000F08FFF002188
:101EE0003F2000F08BFF0021D32000F087FF00216E
:101EF000084600F083FF0021402000F07FFF002112
:101F00008D2000F07BFF0021142000F077FF0021DE
:101F1000202000F073FF0021022000F06FFF00215D
:101F2000A12000F06BFF0021C02000F067FF00211E
:101F3000DA2000F063FF0021122000F05FFF002193
:101F4000812000F05BFF0021EF2000F057FF00210F
:101F5000D92000F053FF0021F12000F04FFF0021B5
:101F6000DB2000F04BFF0021302000F047FF002174
:101F7000A42000F043FF0021A62000F03FFF002135
:101F8000AF2000F03BFFFEF7A7FA10BD0FB59BB0E6
:101F900000201A901990FCE300208DF86000199839
:101FA00040B28DF861001E98404201F0DAFE002236
:101FB000FE4BCDE90A0101F063FCCDE90E011D984D
:101FC00040430B9001F0CDFECDE90C01DDE90E237D
:101FD00001F02EFFCDE912011E9840430F9001F051
:101FE000C0FECDE91001DDE9122301F049FCCDE985
:101FF000140101F013FC1790199A1E99891AC9B29D
:102000001A9B1D9AD21AD2B22098CDE900210290D3
:102010009DF861101C980844C0B215909DF860109E
:102020001B980844C0B214900246159BDDE91B01C1
:10203000FEF784FF5CE00021179802F0D3F915D871
:102040001E9840439DF960104900C91C48431490F4
:1020500002F09CF91590179902F00AF917909DF873
:102060006000401C40B28DF8600023E01E984043A1
:102070009DF960104900C91C41431D9840439DF9DA
:1020800061205200C2F1020200FB0210149002F023
:102090007DF91590179902F0EBF817909DF8600004
:1020A000401C40B28DF860009DF86100401E40B2B7
:1020B0008DF86100199A1E98801AC0B21A9B1D9A59
:1020C000D21AD2B22099CDE9002002919DF8611078
:1020D0001C980844C0B215909DF860101B980844E5
:1020E000C0B214900246159BDDE91B01FEF726FFE6
:1020F0009DF961000B9001F034FE0022AC4BCDE95C
:102100000C0101F09FFFCDE910011D9840430D9097
:1021100001F027FECDE90E01DDE9102301F088FE74
:10212000CDE914011E9840439DF96010491C4843B5
:10213000119001F016FECDE91201DDE9142301F042
:102140003BFEFFF478AF1D9840431E994843484337
:102150000F9001F006FECDE912011D9840439DF954
:102160006110491E48439DF96110491E48430B9078
:1021700001F0F7FDCDE90E019DF96000059001F039
:10218000F0FD00228A4BCDE9060101F079FBCDE993
:102190000A019DF96000019001F0E3FD0022844BEB
:1021A000CDE9020101F06CFBCDE906011E98404328
:1021B000039001F0D6FDCDE90401DDE9062301F02D
:1021C00037FECDE90801DDE90A2301F031FECDE952
:1021D0000C01DDE90E2301F053FBCDE91001DDE92F
:1021E000122301F02FFFCDE9140101F017FB169027
:1021F0005DE00021169802F0F5F824D81E984043BF
:102200009DF960104900891C41431D9840439DF988
:1022100061205200C2F1030200FB0210149002F090
:10222000B5F81590169902F023F816909DF8600005
:10223000401C40B28DF860009DF86100401E40B225
:102240008DF8610015E01D9840439DF9611049002B
:10225000C1F103014843149002F098F815901699C3
:1022600002F006F816909DF86100401E40B28DF80D
:102270006100199A1E98801AC0B21A9B1D9AD21A30
:10228000D2B22099CDE9002002919DF861101C98EE
:102290000844C0B215909DF860101B980844C0B265
:1022A00014900246159BDDE91B01FEF747FE9DF9E0
:1022B000610000289DDC209800901E991C98014424
:1022C0001998081AC0B216901D991B9801441A98C3
:1022D000081AC0B215901E991C9801441998081A42
:1022E000C0B214901D991B98411A1A980844C0B2A4
:1022F000139014A90EC9FEF7A3FB209800901E9915
:102300001C98411A19980844C0B216901D991B9840
:1023100001441A98081AC0B215901E991C98411AC7
:1023200019980844C0B214901B991D98091A1A985C
:102330000844C0B2139014A90EC9FEF781FB20987F
:1023400000901E991C98411A19980844C0B2169022
:102350001D991B98411A1A980844C0B215901E99ED
:102360001C9801441998081AC0B214901D991B9822
:10237000411A1A980844C0B2139014A90EC9FEF766
:102380005FFB209800901E991C98411A19980844E8
:10239000C0B216901D991B9801441A98081AC0B231
:1023A00015901E991C980144199803E00000D03F35
:1023B0000000E03F081AC0B214901D991B98014418
:1023C0001A98081AC0B2139014A90EC9FEF738FB68
:1023D000FFF748FD209808B9012000E00020009098
:1023E0001E991C9801441998081AC0B216901D999C
:1023F0001B9801441A98081AC0B215901E991C988F
:1024000001441998081AC0B214901D991B98411ADA
:102410001A980844C0B2139014A90EC9FEF710FB15
:10242000209808B9012000E0002000901E991C9817
:10243000411A19980844C0B216901D991B9801447E
:102440001A98081AC0B215901E991C98411A19982A
:102450000844C0B214901D991B98411A1A98084458
:10246000C0B2139014A90EC9FEF7EAFA209808B971
:10247000012000E0002000901E991C98411A199834
:102480000844C0B216901D991B98411A1A98084426
:10249000C0B215901E991C9801441998081AC0B230
:1024A00014901D991B98411A1A980844C0B21390B1
:1024B00014A90EC9FEF7C4FA209808B9012000E05B
:1024C000002000901E991C98411A19980844C0B227
:1024D00016901D991B9801441A98081AC0B21590BD
:1024E0001E991C9801441998081AC0B214901D999D
:1024F0001B9801441A98081AC0B2139014A90EC967
:10250000FEF79EFA00208DF86000199840B28DF811
:1025100061001E98404201F024FC0022D54BCDE919
:102520000A0101F0ADF9CDE90E011D9840430B9071
:1025300001F017FCCDE90C01DDE90E2301F078FC78
:10254000CDE912011E9840430F9001F00AFCCDE93D
:102550001001DDE9122301F093F9CDE9140101F036
:102560005DF91790209808B9012300E000231E9917
:102570001998081AC0B21A9A1D99891AC9B2CDE9D8
:10258000010300919DF861101C980844C0B2159099
:102590009DF860101B980844C0B214900246159B29
:1025A000DDE91B01FEF7CAFC60E00021179801F08D
:1025B00019FF15D81E9840439DF960104900C91CA9
:1025C0004843149001F0E2FE1590179901F050FE77
:1025D00017909DF86000401C40B28DF8600023E029
:1025E0001E9840439DF960104900C91C41431D9845
:1025F00040439DF961205200C2F1020200FB02102B
:10260000149001F0C3FE1590179901F031FE179058
:102610009DF86000401C40B28DF860009DF861009C
:10262000401E40B28DF86100209808B9012300E0F7
:10263000002319991E98401AC0B21A9A1D99891A36
:10264000C9B2CDE9010300919DF861101C980844BE
:10265000C0B215909DF860101B980844C0B2149049
:102660000246159BDDE91B01FEF768FC9DF9610040
:102670000B9001F076FB00227F4BCDE90C0101F0BD
:10268000E1FCCDE910011D9840430D9001F069FB7C
:10269000CDE90E01DDE9102301F0CAFBCDE91401FB
:1026A0001E9840439DF96010491C4843119001F069
:1026B00058FBCDE91201DDE9142301F07DFBFFF4A5
:1026C00074AF1D9840431E99484348430F9001F052
:1026D00048FBCDE912011D9840439DF96110491E48
:1026E00048439DF96110491E48430B9001F039FBA6
:1026F000CDE90E019DF96000059001F032FB00224A
:102700005D4BCDE9060101F0BBF8CDE90A019DF969
:102710006000019001F025FB0022574BCDE902013A
:1027200001F0AEF8CDE906011E984043039001F098
:1027300018FBCDE90401DDE9062301F079FBCDE9C1
:102740000801DDE90A2301F073FBCDE90C01DDE9A5
:102750000E2301F095F8CDE91001DDE9122301F017
:1027600071FCCDE9140101F059F8169063E00021E5
:10277000169801F037FE26D81E9840439DF9601048
:102780004900891C41431D9840439DF96120520036
:1027900000E064E0C2F1030200FB0210149001F0BB
:1027A000F5FD1590169901F063FD16909DF86000F7
:1027B000401C40B28DF860009DF86100401E40B2A0
:1027C0008DF8610015E01D9840439DF961104900A6
:1027D000C1F103014843149001F0D8FD15901699FA
:1027E00001F046FD16909DF86100401E40B28DF844
:1027F0006100209808B9012300E0002319991E9870
:10280000401AC0B21A9A1D99891AC9B2CDE90103BA
:1028100000919DF861101C980844C0B215909DF875
:1028200060101B980844C0B214900246159BDDE965
:102830001B01FEF783FB9DF96100002897DC1D99C1
:102840001A98884203DA1A98401CC0B21A901D994F
:102850001998884203DA1998401CC0B219901D9942
:102860001A988842FFF698AB1E9919988842F9DBAE
:102870001FB000BD0000D03F0000E03F2DE9FF4F3A
:1028800083B090469946109DC84501DC012000E0C8
:1028900000200646C84501DA404600E04846824628
:1028A000C84501DD404600E048468346002417E065
:1028B0004B464246CDE90045DDE90301FEF719FE2E
:1028C000FFF7D0FA0DB9012000E000204B46424648
:1028D000CDE90040DDE90301FEF70BFE601CC4B248
:1028E0000AEBDA71B4EB610FE2DBABF10100C7B2C6
:1028F00027E0CDE900450EB1384600E048460346E2
:102900000EB1404600E038460246DDE90301FEF71D
:10291000F0FDFFF7A7FA0DB9012000E00020CDE996
:1029200000400EB1384600E0484603460EB140462E
:1029300000E038460246DDE90301FEF7DAFD781EC5
:10294000C7B20AEBDA71B7EB610FD2DC27E0CDE951
:1029500000450EB1384600E0484603460EB14046F9
:1029600000E038460246DDE90301FEF7C2FDFFF74D
:1029700079FA0DB9012000E00020CDE900400EB148
:10298000384600E0484603460EB1404600E038466F
:102990000246DDE90301FEF7ACFD781CC7B25F45D6
:1029A000D5DB17E04B464246CDE90045DDE90301A2
:1029B000FEF79FFDFFF756FA0DB9012000E0002059
:1029C0004B464246CDE90040DDE90301FEF791FDAB
:1029D000601EC4B2002CE5DC07B0BDE8F08F2DE925
:1029E000FC4781468A4616461F460A9DBE4201DACA
:1029F000304600E038468046002417E03B46324629
:102A000051464846CDE90045FEF773FDFFF72AFA27
:102A10000DB9012000E000203B4632465146CDE989
:102A200000404846FEF765FD601CC4B208EBD87153
:102A3000B4EB610FE2DB601EC4B217E03B463246E6
:102A400051464846CDE90045FEF753FDFFF70AFA27
:102A50000DB9012000E000203B4632465146CDE949
:102A600000404846FEF745FD601EC4B2002CE5DC80
:102A7000BDE8FC872DE9FC478046894616461F467F
:102A80000A9DBE4201DA304600E038468246002404
:102A900017E03B46324649464046CDE90045FEF741
:102AA0005BFFFFF7DFF90DB9012000E000203B4696
:102AB00032464946CDE900404046FEF74DFF601CD6
:102AC000C4B25445E5DB601EC4B217E03B46324653
:102AD00049464046CDE90045FEF73EFFFFF7C2F903
:102AE0000DB9012000E000203B4632464946CDE9C1
:102AF00000404046FEF730FF601EC4B2002CE5DC0B
:102B00000DB9012000E000203B4632464946CDE9A0
:102B100000404046FEF720FFBDE8FC872DE9FC475A
:102B200006460F4690469946DDE90AA5002417E0BF
:102B30004B46424639463046CDE90045FDF724FE76
:102B4000FFF790F90DB9012000E000204B46424606
:102B50003946CDE900403046FDF716FE601C84B2D0
:102B60005445E5DBBDE8FC872DE9FF4F83B0904677
:102B70001E46DDE910A94FF0010BA8EB0600C7B215
:102B8000002400252DE014B94FF0010B03E0B442FE
:102B900001D14FF0000BBBF1000F04D0781CC7B27D
:102BA000601CC4B203E0781EC7B2601EC4B22346E4
:102BB0003A46CDE90059DDE90301FEF7F7FFFFF7DB
:102BC00051F9B9F1000F01D1012000E000202346A6
:102BD0003A46CDE90050DDE90301FEF7E7FF681C46
:102BE00085B25545CFDB07B0BDE8F08F2DE9FC4736
:102BF00006460F4690469946DDE90AA5002417E0EF
:102C00004B46424639463046CDE90045FEF7CEFFF9
:102C1000FFF728F90DB9012000E000204B4642469D
:102C20003946CDE900403046FEF7C0FF601C84B253
:102C30005445E5DBBDE8FC872DE9F84F81468A461F
:102C400016461F46DDF828807F243F251EE0B4424B
:102C500001DD601EC4B2BD4201DD681EC5B22B4657
:102C6000224651464846CDF80080FDF773FCFFF739
:102C7000F9F8B8F1000F01D1012000E000202B4647
:102C80002246514600904846FDF764FCB44201DDFF
:102C9000BD42DCDCBDE8F88F2DE9FF4F83B09046E4
:102CA0009946109DC84501DC012000E00020064641
:102CB000C84501DA404600E048468246C84501DD85
:102CC000404600E048468346002417E04B46424613
:102CD000CDE90045DDE90301FEF7FBFCFFF7C2F893
:102CE0000DB9012000E000204B464246CDE90040EE
:102CF000DDE90301FEF7EDFC601CC4B20AEBDA71FA
:102D0000B4EB610FE2DBABF10100C7B227E0CDE924
:102D100000450EB1384600E0484603460EB1404635
:102D200000E038460246DDE90301FEF7D2FCFFF77A
:102D300099F80DB9012000E00020CDE900400EB166
:102D4000384600E0484603460EB1404600E03846AB
:102D50000246DDE90301FEF7BCFC781EC7B20AEBB0
:102D6000DA71B7EB610FD2DC27E0CDE900450EB197
:102D7000384600E0484603460EB1404600E038467B
:102D80000246DDE90301FEF7A4FCFFF76BF80DB97D
:102D9000012000E00020CDE900400EB1384600E0FF
:102DA000484603460EB1404600E038460246DDE99B
:102DB0000301FEF78EFC781CC7B25F45D5DB17E038
:102DC0004B464246CDE90045DDE90301FEF781FCB3
:102DD000FFF748F80DB9012000E000204B464246BD
:102DE000CDE90040DDE90301FEF773FC601EC4B2CB
:102DF000002CE5DC07B0BDE8F08F000070B504469C
:102E00000E4626B102211848FDF70AFB03E0022115
:102E10001548FDF703FB10211448FDF7FFFA0025C4
:102E200017E020211148FDF7F9FA04F0800020B1E5
:102E300080210E48FDF7F4FA03E080210B48FDF7EE
:102E4000EDFA20210948FDF7EBFA6006040E681C34
:102E5000C5B2082DE5DB10210448FDF7E1FA022197
:102E60000148FDF7DDFA70BD000C0140000801408B
:102E70007047000029B1064A92690243044B9A61E7
:102E800004E0034A92698243014B9A617047000053
:102E900000100240704710B500F002F810BD0000AD
:102EA0000CB50020019000903348006840F4803059
:102EB0003149086000BF3048006800F400300090DD
:102EC0000198401C0190009818B90198B0F5A06FC6
:102ED000F1D12948006800F4003010B101200090C1
:102EE00001E0002000900098012843D123480068A9
:102EF00040F01000214908600846006820F00300F7
:102F000008600846006840F0020008601A484068FF
:102F1000194948600846406848600846406840F4DF
:102F2000806048600846406820F47C10486008468D
:102F3000406840F4E81048600846006840F080703F
:102F4000086000BF0C48006800F000700028F9D04D
:102F50000948406820F00300074948600846406877
:102F600040F00200486000BF0348406800F00C00D9
:102F70000828F9D10CBD00000010024000200240DA
:102F8000042808D14FF0E021096941F004014FF015
:102F9000E022116107E04FF0E021096921F004010E
:102FA0004FF0E022116170477047000010B51348E0
:102FB000006840F001001149086008464068104967
:102FC00008400E494860084600680E4908400B4911
:102FD00008600846006820F48020086008464068C1
:102FE00020F4FE0048604FF41F008860FFF753FF95
:102FF0004FF000600449086010BD0000001002405E
:103000000000FFF8FFFFF6FE08ED00E000BFFEE75E
:10301000490050EAC12018BF04204A0D18BF40F0F3
:10302000010040F2FF72B2EB515F08BF40F00200B6
:10303000012808BF052070472DE9F74F144694B0CA
:103040000021C4E902111599079121F00045C949F1
:103050008D4206DC1599C4E9000117B00020BDE8D7
:10306000F08FC549DFF814A3A9423CDD0799C44E8F
:103070000029C44FC44A1599534619DD00F0E2FFF8
:10308000554506D0C14AC24B00F0DCFFC4E900013F
:103090000AE04FF0D352BE4B00F0D4FF32463B461D
:1030A00000F0D0FFC4E9000117B00120BDE8F08FA7
:1030B00000F0E6FB554506D0B44AB54B00F0E0FB06
:1030C000C4E900010AE04FF0D352B14B00F0D8FB45
:1030D00032463B4600F0D4FBC4E9000117B04FF084
:1030E000FF30BDE8F08FAB49A942159978DB21F09C
:1030F000004183468846A84AA84B00F099FE00226A
:10310000A74B00F0BDFB00F0CFFD099000F029FEB9
:1031100006460F469C4A534600F08AFE43465A46EE
:1031200000F084FF80468A46984A994B30463946DB
:1031300000F07EFE2A0D01250B924246534600F018
:1031400075FF032DC4E9000139D00B98C1F30A5172
:10315000401A05EB45111139814230DA9148C346D6
:10316000784400EB0510CDF80CA00C90D0E90023BA
:103170003046394600F05CFE02460B46049106904C
:103180005846039900F05EFF80468A4602460B4689
:103190005846039900F056FF049B069A00F052FF30
:1031A00083460C9803913946D0E90223304600F05B
:1031B0003FFE5A46039B00F045FF6D1CBDE7079894
:1031C0000028A2BF099817B0BDE8F08F616881F0B0
:1031D00000416160099817B04042BDE8F08FFFE7F9
:1031E00084461598C1F31301C0F30A50A0F2F530DC
:1031F0004FEA601800F01F06C6F12000139000206F
:103200000690079041F4801E05206D4676B1664A0F
:1032100008EB00017A4452F8213002EB8101B340FF
:103220004A68139922FA01F1194305E05F4908EB56
:103230000002794451F82210A1FB0E27A1FB0C13C8
:103240001A449A4234BF0123002303EB070A05EB1B
:103250008003D3E901B70F448F4234BF012100211D
:1032600093448B4411B1934502D903E0934501D2B5
:10327000012100E00021C3E901B7514445F82010C5
:10328000011EA0F10100C1DC0298059F00F1005071
:10329000800F12900298DDE90356800000F061FD76
:1032A000834628460D9100F073FD6FF01D0201F07A
:1032B00040FACDE90E01304600F06AFD6FF03D02A4
:1032C00001F037FA80468A46384600F061FD6FF01B
:1032D0005D0201F02EFA074642465346119100F076
:1032E000CFFADDE90E2300F0CBFA5A460D9B00F031
:1032F000C7FA00250E465A4628460D9B00F0A2FE4E
:10330000DDE90E2300F09EFE4246534600F09AFE91
:103310003A46119B00F08AFEDFF898A0244A5346F3
:1033200000F086FD07468846234A244B314628464E
:1033300000F07EFD3A46434600F0A2FA0746884672
:103340004FF0A84253463146284600F071FD3A46F8
:10335000434600F095FA159A12F0004F04D0129AE5
:1033600081F0004152421292C4E90001129817B054
:10337000BDE8F08FFB21E93F7CD90240FB21F93FFA
:103380007370032E8A19A33B000040543163621A04
:1033900061B4D03DFB21394183C8C96D305FE43F42
:1033A0000000E03F8C16000008160000EA1500003F
:1033B000182D4454FB21F93D3326A611460B113C30
:1033C0002DE9FF4D21F0004807460C46B8F1795F22
:1033D00008DA00F069FC002801BF0020324904B07F
:1033E000BDE8F08D3A4623461046194600F020FD10
:1033F000054602462D480E460B460621784400F04D
:103400005DF82A46334600F013FDDDE902238246CB
:103410008B463846214600F00BFD04460F465246C7
:103420005B462846314600F003FD22463B4600F04D
:1034300009FE07468A464FF0FF322846314601F022
:1034400078F91B4A90450ADA3A46534600F0FAFDED
:1034500004B00022BDE8F04D134B00F0E7BD154A63
:103460004245A8BFA8F500154FF00004B8BF124DA3
:1034700022462B4600F0E6FD0646884622462B46AD
:103480000020094900F0DEFD04460D463A46534649
:103490003046414600F0D6FD04B022462B46BDE83A
:1034A000F04D00F0C3BD00000000F03FC01300006D
:1034B0003333D33F0000E93F0000D23F2DE9F04114
:1034C0004F1E00EBC7010446D1E9000115461E4618
:1034D00037F006020DD02A46334600F0A9FC7F1EC5
:1034E00004EBC703D3E9002300F0CAF937F0060262
:1034F000F1D1022F25D0042F13D0062F18BFBDE81D
:10350000F0812A46334600F093FCD4E90A2300F008
:10351000B7F92A46334600F08BFCD4E9082300F0C3
:10352000AFF92A46334600F083FCD4E9062300F0C5
:10353000A7F92A46334600F07BFCD4E9042300F0C7
:103540009FF92A46334600F073FCD4E9022300F0C9
:1035500097F92A46334600F06BFCD4E90023BDE816
:10356000F04100F08DB900002DE9FF4D054621F036
:10357000004084B00C46B0F1795F0BDA2846FFF7C3
:1035800047FD042808BF00F06FF8284608B0214620
:10359000BDE8F08D2A460B46104600F049FC064671
:1035A0000F462A46234600F043FC804626488A46BA
:1035B00032463B4605217844FFF780FF834610984A
:1035C000029160B3214A224B4046514600F030FC44
:1035D000CDE900015A4640465146029B00F028FCC6
:1035E00082468846DDE906014FF0FF3201F0A1F87E
:1035F0005246434600F026FD32463B4600F018FC9A
:10360000DDE9062300F01EFDDDE9002300F01AFDD0
:1036100008B02A462346BDE8F04D00F007BD0B4632
:103620005A463046394600F003FC084A084B00F081
:1036300027F94246534600F0FBFB08B02A462346D2
:10364000BDE8F04D00F01CB9FE120000495555557B
:103650005555C5BF012201F06CB800221346104633
:10366000114600F0C9B90000024A0020110701F01C
:1036700060B8000001FDFFFF00B5244B21F00042BF
:1036800087B09A42DCBF0022134629DD204B9A42C4
:1036900008D140B94FF00100FCF79EFDFFF7DDFFB8
:1036A00007B000BD03DBFFF7D5FF07B000BD02AADE
:1036B000FFF7C2FC10F0030104BF0DF1080C9CE8F9
:1036C0000F000DD0012001290ED0022914D00DF1D8
:1036D000080C00909CE80F00FFF746FF07B000BD04
:1036E000FFF76EFE07B000BD0DF1080C00909CE8DE
:1036F0000F00FFF739FF05E00DF1080C9CE80F0003
:10370000FFF75EFE07B081F0004100BDFB21E93FFD
:103710000000F07F10B56FF00400FFF731FC0A489D
:1037200000680A49B0FBF1F00949087008460078C2
:1037300000EB4001C1EBC0104FF6FF7101EAC00081
:103740000449088010BD00000400002000127A0027
:103750000000002002000020FFF7DCFFFCF77EFEE7
:10376000FEF7AAFBFCF7B8FE00200349086001E061
:10377000FCF779FDFCE70000B401224200B5254BBF
:1037800021F0004287B09A4203DC002213460092E7
:103790002BE0214B9A4208D140B94FF00100FCF7D1
:1037A0001BFDFFF75AFF07B000BD03DBFFF752FF19
:1037B00007B000BD02AAFFF73FFC10F003014FF075
:1037C00001000DD0012914D002291AD00DF1080CE6
:1037D0009CE80F00FFF7F4FD07B081F0004100BD49
:1037E0000DF1080C00909CE80F00FFF7BDFE07B03C
:1037F00000BD0DF1080C9CE80F00FFF7E1FD07B0DC
:1038000000BD0DF1080C00909CE80F00FFF7ACFE26
:10381000E2E70000FB21E93F0000F07F21F00042D9
:10382000A2F16052B2F5801F01F0004328BFD2F12F
:103830007F6C0BD95FEA001C43EAC20242EB507076
:1038400018BF704728BF20F001007047B2F5801FF5
:10385000BCBF184670474FEA410C1CF5001F02D24E
:10386000084600F0BABE70B500F08CFB000000897D
:10387000FFF7F6BF4FF00040A0F580007047000052
:1038800010B591EA030F48BF83F0004300F1E283D3
:10389000841A71EB030C05D2121943EB0C03001BC5
:1038A00061EB0C01DFF824E14FEA1154A4EB135C47
:1038B0001EEA430F18BF9EEA445F73D023EA0E034B
:1038C000DCF1200E21EA045143F4801332D322FAB2
:1038D0000CFE10EB0E0023FA0CFE41EB0E01CCF1B6
:1038E000200E03FA0EFE10EB0E0051F10001B1F5AF
:1038F000801FCCF1200E32D201EB045112FA0EF2ED
:10390000BDE8104058BF7047401C38BF5FEA420214
:1039100018BF7047002814BF20F0010041F10001DA
:103920004FEA410313F5001F38BF7047A1F1C041B2
:1039300000F076BB012A43EB0302ACF1200CDCF172
:103940001F0E32BF4FF0000E23FA0CF310EB0300F2
:1039500041EB0451B4EB115FD0D0A1EB045101F560
:10396000801149085FEA300001EB04510ED350F199
:10397000000038BF12FA0EFE08D1BDE81040C9E7BA
:10398000401C38BF5FEA4202CAD1C3E7BDE810401D
:103990004FEA410313F5001F38BF7047A1F1C04142
:1039A00000F03EBB9EEA445F08D011EA5E0FBDE81E
:1039B000104004BF01F0004100207047BDE81040F6
:1039C00070B500F0DFFA00BF64FBBE3E0000E0FF10
:1039D00002494FF0000000F07ABE00BF0000F87FFF
:1039E000491058BFC1F140415B1058BFC3F140437B
:1039F0008B42EFF3008070472DE9C04130B4DFF80F
:103A0000A0C23CEA111418BF3CEA131400F0EC8089
:103A100081EA03051CEA111444EAD57418BF1CEAB4
:103A2000131500F0C780A4EB05044FF0004545EAEC
:103A3000C12145EAC32341EA505143EA525304F1FC
:103A40007F74994204F500344FEAC0204FEAC22245
:103A500008BF904200F09C804FEA13650FF24016B9
:103A6000765D4FEA134506FB05F7C7F1807706FB45
:103A700007F74FEAD737A7FB03687642C8F58038C7
:103A8000A7FB06CE38BFA8F1010807FB08E64FF0F8
:103A9000000EA6FB028CE6FB03CEDCF1000CCEF19F
:103AA000004E38BFAEF1010EA6FB0C584FF00007D8
:103AB0004FF00005E6FB0E87A1FB08C6A0FB07CE72
:103AC00016EB0E0645F10005E1FB076515F1E04E2A
:103AD0007EBFA4F580345FEA46066D4116F180078B
:103AE00045F100054FEA17274FEA066647EA0567E2
:103AF000A6F1DE46B6F1805F4FEA15251FD938469C
:103B000024F0010C05EBC471BCF1FE6F01EB0C114C
:103B100002D8F0BCBDE8008124425CBF01F5801EE4
:103B20009EEAC47F02D4F0BCBDE80081244238D4B0
:103B3000F0BCA1F1C041BDE8004100F071BA4FEA0C
:103B4000D22242EA43524FEAD323A7FB02864FEA2E
:103B5000D02040EA415007FB03661EEA0E0F4FEAF1
:103B6000D12105FB026658BFA6EB0056B6EB005606
:103B70004FEA520E4EEAC37E18EB0E0E56EB530E72
:103B8000BDD518EB02085E417F1C55F10005B6E774
:103B90004FF480154FF000074FF000064FF000087B
:103BA000ADE7F0BC4FF0000001F1C04101F0004171
:103BB000BDE8008111EA0C1F0CEA131500D00CE0DF
:103BC00013EA0C1F00F025804FF00000F0BC81EAE2
:103BD000030101F00041BDE80081F0BCBDE80041F7
:103BE00081EA030100F01CBAF0BCBDE8004170B5E9
:103BF00000F0C8F9097EFC3E00F007B881EA030135
:103C00004FF0000001F00041704781EA030100F02D
:103C100007BAF0BCBDE800414FF0000021497047F1
:103C2000FFFDFBF9F7F5F4F2F0EEEDEBE9E8E6E481
:103C3000E3E1E0DEDDDBDAD8D7D5D4D3D1D0CFCD08
:103C4000CCCBCAC8C7C6C5C4C2C1C0BFBEBDBCBB41
:103C5000BAB9B8B7B6B5B4B3B2B1B0AFAEADACAB3C
:103C6000AAA9A8A8A7A6A5A4A3A3A2A1A09F9F9E16
:103C70009D9C9C9B9A9999989797969595949393C8
:103C8000929191908F8F8E8E8D8C8C8B8B8A89895F
:103C900088888787868585848483838282818180E2
:103CA0000000FF070000F87F4FEA41034FEA53533B
:103CB000A3F58063D3F11E03C8BFD3F1210C0CDD43
:103CC0004FF0004242EAC12242EA505232FA03FC6B
:103CD0008CEAE17CACEBE1707047102BC4BF002094
:103CE000704703F5787CBCF1FF3F04D06FF00042D1
:103CF00082EA2100704770B500F044F949922480AF
:103D000000207047F2E700004FEA1153A3F58063EB
:103D1000D3F11E03A8BFD3F1200C08DB4FF0004203
:103D200042EAC12252EA505232FA03F07047094285
:103D30000BD4102BC4BF0020704703F5787CBCF176
:103D4000FF3F05D04FF0FF3070474FF00000704745
:103D500070B500F017F900BF499224800020704729
:103D6000F0E710F0004248BF4042B0FA80F310FA8A
:103D700003F10AD0C3F11D0303F580634FEA4150FC
:103D800002EB035202EBD12170474FF00000704765
:103D9000B0FA80F310FA03F10AD0C3F11D0303F562
:103DA00080634FEA41504FEA035202EBD121704742
:103DB0004FF000007047000051EA030C17D41CF5C7
:103DC000801F58BFBCF5801F00F10680994218BFC4
:103DD000704708BF9042704707D711F5801F58BF42
:103DE00013F5801F19D499427047894270471CF51A
:103DF000801F08D5BCF5801FF7D58B4218BF7047D0
:103E000008BF824270474FF4001C1CEB410F38BFC3
:103E10001CEB430F01D28B42704770B500F0B2F833
:103E2000922449004FF000514FF08053FFF7D8BD66
:103E3000DFF848C170B51CEA111E1EBF1CEA13153D
:103E40009EEA0C0F95EA0C0F00F06F8081EA0304E4
:103E500023EA4C134EEAD47E21EA4C1141F480113E
:103E600043F48013AE44A1FB024CA0FB0365AEF10A
:103E70007F7E361955EB0C05A1FB034C4CF100037A
:103E8000A0FB021C16EB0C06654153F1000309422E
:103E900018BF46F0010613F4007F0BD14FEA03313F
:103EA0004FEA0530340341EA155140EA16506FF0ED
:103EB00003020AE04FEAC3214FEAC520F40241EAB7
:103EC000555140EA56506FF0020202EB2E4201EBD0
:103ED000025585EACE710AD05FEA440C18BF24F07F
:103EE000004450F1000041F1000120EAD47040F29A
:103EF000FE7C624500D270BDA84214BF4FF08044E2
:103F00004FF04044002E08BF0024BEF1806FA8BFD0
:103F1000A1F1C041BDE8704080F282804FF0000006
:103F200001F1C04101F0004170479EEA0C0F0CEA1C
:103F3000131518BF95EA0C0F06D04FF0000081EA68
:103F4000030E0EF0004170BD00F01CF88900013E28
:103F500000F007B800F009B84FEA430C5FEA5C5C78
:103F600008D081EA030100F05BB84FEA410C5FEA38
:103F70005C5CF6D14FF00000014970470000FF077C
:103F80000000F87F0EF1020E2EF0030E5EF8046BB7
:103F9000364205D4012A43EB030515F5001F12D85C
:103FA000012841EB010C1CF5001F0CD80ED14FEA83
:103FB000D17C15F5001F0CEB4C0C0CF1020C08BF6A
:103FC0004CEBD37C04E04FF0080C01E04FEAD37CCB
:103FD0000CEB4C0526FA05F606F00706B6F1040CC4
:103FE00006D20EEB860CBDE870404CF0010C604729
:103FF000DFE80CF0090B02024FF000414FF0000027
:10400000A1F5002170BD19461046012851EB0104AD
:1040100018BFD4F5001484BF002001F0004170BD2A
:104020000808A0F500114FEA3101704791EA030F2B
:1040300010B581F000413FF52BAC83F0004300F058
:1040400009B8000010B591EA030F48BF83F00043A0
:104050003FF51EAC841A71EB030C07D212198CF0D9
:10406000004C43EB0C03001B61EB0C01DFF8A4E1F7
:104070004FEA1154A4EB135C1EEA430F18BF9EEAEB
:10408000445F00F0B08023EA6E03524221EA0451FB
:10409000C3EB6E0338BF5B1EDCF1200E25D322FA82
:1040A0000CFE10EB0E0043FA0CFE41EB0E01CCF1BE
:1040B000200E03FA0EFE10EB0E0051F10001CCF1C0
:1040C000200E29D412FA0EF201EB0451BDE8104083
:1040D00058BF7047401C1CBFB2F1004F704700280A
:1040E0000CBF491C20F00100704712EB020E43EB9D
:1040F000030218BF4FF0010E4EEA4202ACF1200C51
:10410000DCF11E0E54D943FA0CFE10EB0E0051F1F7
:10411000FF31CCF11E0ED5D50EF1010E12FA0EFEB6
:10412000404141EB010101EB445C5FEA5C5C10D96A
:1041300010EBDE7001EB045138BFBEF1004FBDE85B
:10414000104018BF704700280CBF491C20F0010028
:10415000704730D24FEAD42C11F5001124F40064DA
:104160001BD0B1FA81F20B3AA41AA41ED2F120039B
:10417000914030FA03F31943904001EBCC71002CCD
:1041800001EB0451BDE81040A8BF704701F1C041E8
:104190004FF0000001F000417047B0FA80F310FAD0
:1041A00003F100D110BDE41A173C4805C90AE4E741
:1041B00001EB045110BD491001EB0451BDE8104062
:1041C0004FEA300002E04FF0000170474A0008BF9C
:1041D0000042F8D0B2F5001F28BF704701F000413F
:1041E0004FF0000070479EEA445F07D011EA5E0F6F
:1041F000BDE8104004BF002100207047BDE810401A
:1042000070B5FFF7BFFE00BF40DFF63E83F0004110
:10421000104670470000E0FF43004FEAD30C4FEA1E
:104220003C0C43401FBF40070CF1605113F0FE4FA0
:1042300070471CF0006F03D100200CF00041704764
:104240000CF0004343EA507010B540EACC0000F097
:104250007EF900BF000000924FEA0001FFF7E0BEC8
:104260004FF000414FF00000A1F500217047000021
:1042700090EA010F48BF81F0004100F1BA81421A73
:104280003CBF801A89184FEAD0524FF07F4C1CEA8D
:10429000410FA2EBD15318BF9CEA026F00F03B80A4
:1042A0004FF0004C4CEA00204CEA012121FA03FCBB
:1042B00010EB0C0C1ED202F1FF325FEA1C2040EB27
:1042C000C25038BF70471CF07F0F4FEA400C18BF38
:1042D000BCF17F4F38BF7047C3F12003994008BF3E
:1042E00020F00100BCF17F4F38BF7047A0F1C04003
:1042F00000F073B94FEA3C00000A40EBC25028BFFF
:104300001CF0FF0F4FEA400CE6D018BFBCF17F4F06
:1043100038BF7047EAE79CEA026F05D010EA5C0FED
:1043200008BF00F00040704710B500F010F900BF62
:1043300064FBBE3E401058BFC0F14040491058BF1A
:10434000C1F140418142EFF300807047C10DD1F1CE
:104350009E0206DB4FEA002343F0004323FA02F0FB
:104360007047004207D54FEA4001B1F1FE4F02D23B
:104370004FF00000704710B500F0E9F84992248032
:10438000002070476FEA20007047000010F00041E5
:1043900048BF4042B0FA80F310FA03F2C3F19D0324
:1043A0000BD051EAC35101EB1220530638BF7047BE
:1043B00000F1010008BF20F001007047B0FA80F35F
:1043C00010FA03F2C3F19D030AD0D90501EB1220C4
:1043D000530638BF704700F1010008BF20F001000C
:1043E0007047000050EA010C00F113801CF5000F2B
:1043F00058BFBCF5000F01D48842704707D710F5AD
:10440000000F58BF11F5000F15D48842704789423C
:1044100070471CF5000F04D5BCF5000FF7D581429D
:1044200070474FF0807C1CEB400F38BF1CEB410FF6
:1044300001D28142704710B500F089F892244900FA
:104440004FF000504FF08051FFF774BF4FF47F0CD6
:104450001CEAD0121EBF1CEAD11392EA0C0F93EA99
:104460000C0F00F0478090EA010F48BF42F48072C1
:104470004FF0004C4CEA00204CEA012102EB030211
:10448000A0FB0113A2F50002002918BF43F00103AD
:104490005B0028BF4FEA330342EB22425FEA132C52
:1044A0004CEBC2502EBFBCEB436FB2F57C0F704794
:1044B0004FEA036CBCF1004F08BF20F00100B2F5D9
:1044C0007C0F38BF70470BD582F0FF0212F5803F9A
:1044D000C8BF704700F1C040D8BF00F0004070472F
:1044E00000F5000C5FEA4C0C48BF7047B0F1C040CB
:1044F00000F073B890EA010F0CEAD11348BF42F400
:104500008072624538BF634504D280EA010000F042
:104510000040704710B500F01AF800BF8900013E56
:1045200000F007B800F009B85FEA410C5FEA1C6CC4
:1045300008D080EA010000F050B85FEA400C5FEA62
:104540001C6CF6D14FF00040A0F5800070470EF1D2
:10455000020E2EF0030E5EF8044B244204D44FEA00
:104560004102B2F17F4F11D84FEA4003B3F17F4FC0
:104570000CD80ED14FEAD07CB2F17F4F0CEB4C0C33
:104580000CF1020C08BF4CEBD17C04E04FF0080C9E
:1045900001E04FEAD17C0CEB4C0324FA03F404F065
:1045A0000704B4F1040C06D20EEB840CBDE81040F5
:1045B0004CF0010C6047DFE80CF0070802024FF0F6
:1045C0000040A0F5800010BD0846420018BFD2F19F
:1045D000807288BF00F0004010BDFF2141EAD0503A
:1045E000C005704790EA010F48BF81F000413FF5D8
:1045F00046AE421A04D882F00042A0EB02001144F9
:104600004FEAD0524FF07F4C1CEA410FA2EBD1533E
:1046100018BF9CEA026F4AD04FF0004C4CEA0020D1
:104620004CEA012121FA03FCB0EB0C0C0FD412F080
:10463000FE0F36D05FEA4C001DD5001240EBC25091
:1046400038BF70471CF03F0F18BF70470BE0A2F156
:1046500001025FEA1C2040EBC25038BF70471CF0DB
:104660007F0F18BF7047C3F12003994014BF401E4D
:1046700020F00100704780084FEA122308BF7047FE
:10468000B0FA80FCA2EB0C02CCF1280C60FA0CF022
:1046900093EA122F04BF00EBC25070474FEAC37079
:1046A0007047130A5FEADC1008BF7047F6E79CEA20
:1046B000026F04D010EA5C0F08BF0020704710B5ED
:1046C000FFF745FF40DFF63E81F0004070470CF0F9
:1046D0000F03092B08BF082000F059800A2B0BD0CC
:1046E000082B18BF704708BF1CF0400F0AD04FF0CE
:1046F00000004FF0000170471CF0400F18BF4FF052
:10470000004070471CF0100F08D020F0704300F0FC
:104710007F4242EAD3014FEA4370704700F06040A5
:1047200021F07F4242EA000201F07F4040EA7270CD
:1047300070474FF0FF0C4CF4E06C1CEA11531CBFA7
:104740009CEA030C9445C2BFDA4201EB0251704768
:10475000002B0DD0BCF1000F0FD0002A01F000415A
:10476000A4BF41F0E04141F07F614FF0000070478D
:1047700001F000414FF00000704750EA01334FF064
:104780009B0C18BF4CF0806C7FF422A970471CF47E
:10479000801F11D01CF4E02F03D06FEACC31490008
:1047A00070474FF04050EFF3008222F0704242EA2F
:1047B000000282F3008870474FF00000704700004D
:1047C0004C5555555555A53F7751C1166CC156BF2F
:1047D0009015CB19A001FA3EAD529C804F7E92BE3F
:1047E000C4B1B4BD9EEE213ED43888BEE9FAA8BD5E
:1047F00000004054FB21F93F3163621A61B4D03D9F
:104800000000601A61B4D03D7370032E8A19A33B77
:104810000000002E8A19A33BC14920259A837B39C9
:1048200000000000000000006E83F9A22915444E2C
:10483000D15727FCC0DD34F5999562DB4190433CAC
:10484000AB6351FE61C5BBDE3A6E24B7E0D24D4288
:10485000EA2E49061C92D1091CEB1DFE3EA729B188
:10486000F53582E88444BB2E26709CE9417E5FB416
:1048700039D69139F43953838B5F849C3B28F9BD39
:10488000FF97F81F0F9805DE8B112FEF1F6D0A5A47
:10489000CF7E366DB709CB27663F464F2DEA5F9E28
:1048A000C7BA27757BF1E5EBF739073DEA92528AE3
:1048B000B15FFB6B085D8D1FA6F810111111813FD0
:1048C000D561C119A0012ABF7DFEB157E31DC73EC6
:1048D000EB9C2B8AE6E55ABE7CD5CF5A3AD9E53D0A
:1048E000004900080000002018000000280100080E
:1048F0001849000818000020600A00004401000860
:104900000000000000A24A040000000000000000B7
:08491000010203040607080977
:04000005080000ED02
:00000001FF
