:020000040800F2
:10000000780A002089010008190400086903000823
:10001000B5030008450200087D0F0008000000003D
:10002000000000000000000000000000050E0008B5
:100030004902000800000000E10D0008190F000847
:10004000A3010008A3010008A3010008A301000800
:10005000A3010008A3010008A3010008A3010008F0
:10006000A3010008A3010008A3010008A3010008E0
:10007000A3010008A3010008A3010008A3010008D0
:10008000A3010008A3010008A3010008A3010008C0
:10009000A3010008A3010008A3010008A3010008B0
:1000A000A3010008A3010008A3010008A3010008A0
:1000B000A3010008A3010008A3010008A301000890
:1000C000A3010008A3010008A3010008A301000880
:1000D000A3010008A3010008A3010008A301000870
:1000E000A3010008A3010008A301000800F002F822
:1000F00000F03AF80AA090E8000C82448344AAF188
:100100000107DA4501D100F02FF8AFF2090EBAE885
:100110000F0013F0010F18BFFB1A43F0010318473B
:10012000CC0E0000EC0E0000103A24BF78C878C155
:10013000FAD8520724BF30C830C144BF04680C60ED
:10014000704700000023002400250026103A28BF35
:1001500078C1FBD8520728BF30C148BF0B60704739
:100160001FB51FBD10B510BD00F036F81146FFF7E2
:10017000F7FF00F027FF00F054F803B4FFF7F2FF99
:1001800003BC00F059F800000948804709480047BF
:10019000FEE7FEE7FEE7FEE7FEE7FEE7FEE7FEE737
:1001A000FEE7FEE704480549054A064B7047000094
:1001B0001D0F0008ED00000878040020780A0020D8
:1001C00078060020780600207047704770470000CE
:1001D00000487047180400207546FFF7F9FFAE4647
:1001E00005006946534620F00700854618B020B543
:1001F000FFF7D8FFBDE820404FF000064FF00007A2
:100200004FF000084FF0000B21F00701AC46ACE8BE
:10021000C009ACE8C009ACE8C009ACE8C0098D462B
:10022000704710B50446AFF300802046BDE810408B
:10023000FFF7A3BF7047000001491820ABBEFEE7DF
:100240002600020000BFFEE770472DE9F04102469C
:1002500000250026002000230024002791F803C079
:100260000CF00F0591F803C00CF0100CBCF1000F5E
:1002700003D091F802C04CEA050591F800C0BCF12A
:10028000000F31D0146800202BE04FF0010C0CFA65
:1002900000F3B1F800C00CEA03069E4220D18300AF
:1002A0004FF00F0C0CFA03F7BC4305FA03FC4CEAC1
:1002B000040491F803C0BCF1280F06D14FF0010CE3
:1002C0000CFA00FCC2F814C00AE091F803C0BCF1BB
:1002D000480F05D14FF0010C0CFA00FCC2F810C019
:1002E000401C0828D1D31460B1F800C0BCF1FF0F46
:1002F00034DD546800202EE000F1080C4FF00108B6
:1003000008FA0CF3B1F800C00CEA03069E4221D1B2
:1003100083004FF00F0C0CFA03F7BC4305FA03FC03
:100320004CEA040491F803C0BCF1280F05D100F198
:10033000080C08FA0CF8C2F8148091F803C0BCF15C
:10034000480F07D100F1080C4FF0010808FA0CF82B
:10035000C2F81080401C0828CED35460BDE8F0815C
:10036000416170470161704700BFFEE7F8B506467E
:100370000D4614460121304600F034FDADF8004032
:1003800010208DF8030003208DF8020069462846EE
:10039000FFF75BFF21462846FFF7E4FFF8BD0000AA
:1003A00010B54FF4005202491020FFF7DFFF10BDD7
:1003B0000010014000BFFEE708B50121042000F055
:1003C00011FDB020ADF8000010208DF803000320CF
:1003D0008DF8020069460E48FFF737FFB0210C4840
:1003E000FFF7C0FF0121082000F0FCFC0320ADF85E
:1003F000000010208DF8030003208DF802006946EC
:100400000448FFF722FF03210248FFF7ABFF08BDB6
:1004100000080140000C01407047000070B5002446
:100420000CE0002506E00020074901EBC501085556
:10043000681CC5B2802DF6DB601CC4B2082CF0DB52
:1004400000F04EFB70BD0000180000202DE9F841BF
:1004500005460E4617469846079C33463A463146AF
:100460002846009400F017F843463A46414628468D
:10047000009400F010F843462A463146284600947E
:1004800000F009F843463A4631463846009400F0F9
:1004900002F8BDE8F8812DE9FF4F04460D4690466D
:1004A0009946A8EB0406A9EB0507002003908246B5
:1004B00007BB002E07DA704206B284EA080488EA15
:1004C000040884EA080410E09DF80D202A44D1B203
:1004D0009DF80C202244D0B20D9A00F019F99DF835
:1004E0000C00401C40B28DF80C009DF90C00B0428D
:1004F000EADD0BE106BB002F07DA784207B285EA96
:10050000090589EA050985EA090510E09DF80D202D
:100510002A44D1B29DF80C202244D0B20D9A00F0AA
:10052000F7F89DF80D00401C40B28DF80D009DF9C4
:100530000D00B842EADDE9E0002E04DD002F02DD07
:100540004AF0010A2FE0002E0ADD002F08DA4AF0F7
:10055000020A784207B2C9EB450000F0FF0922E029
:10056000002E14DA002F12DA4AF0040A704206B2A2
:10057000784207B284EA080488EA040884EA080496
:1005800085EA090589EA050985EA09050BE0002ED7
:1005900009DA002F07DD4AF0080A704206B2C8EBFC
:1005A000440000F0FF08BE4217DA4AF0100A8DF846
:1005B00000808DF80190601B9DF80110084400F048
:1005C000FF08604228449DF80010084400F0FF092D
:1005D000A8EB0406A9EB050700BF780000B2029063
:1005E000B81B400000B20190C6EB47000FFA80FB39
:1005F0009DF80D202A44D1B29DF80C202244D0B29F
:100600000D9A00F085F89DF80C00401C40B28DF862
:100610000C0076E0BBF1000F04DA029858440FFAA0
:1006200080FB09E09DF80D00401C40B28DF80D00E4
:10063000019858440FFA80FB0AF00F00012806D0F9
:10064000022820D0042803D0082852D136E000BF69
:100650000AF0100058B19DF80C202A44D1B29DF840
:100660000D202244D0B20D9A00F052F80AE09DF815
:100670000D202A44D1B29DF80C202244D0B20D9A0C
:1006800000F046F836E00AF0100058B19DF80C2052
:10069000AA1AD1B29DF80D202244D0B20D9A00F0D2
:1006A00037F80AE09DF80D20AA1AD1B29DF80C2067
:1006B0002244D0B20D9A00F02BF81BE00AF0100093
:1006C00058B19DF80C202A44D1B29DF80D20A21AF1
:1006D000D0B20D9A00F01CF80AE09DF80D202A44D3
:1006E000D1B29DF80C20A21AD0B20D9A00F010F8E9
:1006F00000E000BF00BF9DF80C00401C40B28DF828
:100700000C009DF90C00B04284DD00BFBDE8FF8FF6
:10071000F0B5144600267F2801DC3F2900DDF0BD3E
:100720000B46CF1701EB5777FF10C7F10707FAB257
:10073000CF1701EB5777FF10A1EBC707FDB2C5F14B
:1007400007070123BB40DEB24CB10A4B03EBC003E9
:100750009B5C3343074F07EBC007BB5408E0054BD6
:1007600003EBC0039B5CB343024F07EBC007BB54D2
:1007700000BFD4E7180000202DE9F04704460D46DD
:1007800016461F46DDE9099ADDF8208007EB0902CD
:10079000D1B206EB0802D0B25246FFF7B9FF321BC6
:1007A0002A444A44D1B23A19521B4244D0B252466A
:1007B000FFF7AEFF724222442A44A2EB0902D1B2F3
:1007C0003A19521B4244D0B25246FFF7A1FF7A4277
:1007D0002A442A44A2EB0902D1B206EB0802D0B2A5
:1007E0005246FFF795FF7A422A442A44A2EB0902B7
:1007F000D1B2724222442244A2EB0802D0B2524645
:10080000FFF786FF724222442A44A2EB0902D1B2CA
:100810007A4222442A44A2EB0802D0B25246FFF7A1
:1008200077FF321B2A444A44D1B27A4222442A44F6
:10083000A2EB0802D0B25246FFF76AFF07EB0902AB
:10084000D1B2724222442244A2EB0802D0B25246F4
:10085000FFF75EFFBDE8F0872DE9F04F87B08046D7
:10086000894615461E46DDE91047284605EBD0713E
:10087000A8EB6101C9B28DF81810304606EBD071B3
:10088000A9EB6101C9B28DF81910284605EBD071AA
:1008900008EB6101C9B28DF81410304606EBD07137
:1008A00009EB6101C9B28DF81510294605EBD1722B
:1008B0005210A24204DB06EBD0725210A2420BDAB5
:1008C000B54204DA294601EBD172521003E03046FA
:1008D00000EBD0725210D4B200979DF815309DF8FD
:1008E00014209DF819109DF81800FFF7AFFD0FB9FF
:1008F000012000E0002000909DF819309DF818C0FC
:10090000A4440CF0FF0219469DF81800FFF7C3FD40
:100910000FB9012000E0002000909DF819309DF8EB
:1009200014C0ACEB040C0CF0FF0219469DF8140047
:10093000FFF7B1FD0FB9012000E0002000909DF805
:1009400015309DF818C0A4440CF0FF0219469DF81C
:100950001800FFF7A0FD0FB9012000E00020009073
:100960009DF815309DF814C0ACEB040C0CF0FF02A0
:1009700019469DF81400FFF78EFD0FB9012000E025
:10098000002000909DF819C0A4440CF0FF039DF8CE
:1009900018209DF819101046FFF77DFD0FB90120B2
:1009A00000E0002000909DF815C0ACEB040C0CF0AA
:1009B000FF039DF818209DF815101046FFF76BFDFA
:1009C0000FB9012000E0002000909DF819C0A44458
:1009D0000CF0FF039DF814209DF819101046FFF746
:1009E0005AFD0FB9012000E0002000909DF815C0CD
:1009F000ACEB040C0CF0FF039DF814209DF81510CF
:100A00001046FFF748FD002004908DF81140B346D2
:100A100006EBDB70C4EB6000C0B205EBD571C4EB34
:100A20006101C9B2CDE90275CDE900109DF8110050
:100A30004844C3B29DF810004044C2B24946404603
:100A4000FFF79AFEC4F101004FFA80FA01208DF8F9
:100A500010003BE0BAF1000F07DA9DF810004000EB
:100A6000401C50444FFA80FA0FE09DF81100401EE0
:100A7000C0B28DF811009DF810009DF81110401AB9
:100A80004000401C50444FFA80FAB34606EBDB703E
:100A9000C4EB6000C0B205EBD571C4EB6101C9B213
:100AA000CDE90275CDE900109DF811004844C3B2AC
:100AB0009DF810004044C2B249464046FFF75CFE34
:100AC0009DF81000401CC0B28DF810009DF8100079
:100AD0009DF811108842BDDD07B0BDE8F08F000021
:100AE00070B500241CE004F1B001C8B2002100F090
:100AF0003DF90021084600F039F90021102000F0EE
:100B000035F9002508E0084901EBC501085D012120
:100B100000F02CF9681CC5B2802DF4DB601CC4B257
:100B2000082CE0DB70BD00001800002010B5FFF7B6
:100B300043FC10BD10B5FFF7F9FF0021AE2000F017
:100B400015F90021D52000F011F90021502000F006
:100B50000DF90021A82000F009F900213F2000F044
:100B600005F90021D32000F001F90021084600F02A
:100B7000FDF80021402000F0F9F800218D2000F060
:100B8000F5F80021142000F0F1F80021202000F0F9
:100B9000EDF80021022000F0E9F80021A12000F08A
:100BA000E5F80021C02000F0E1F80021DA2000F093
:100BB000DDF80021122000F0D9F80021812000F09A
:100BC000D5F80021EF2000F0D1F80021D92000F065
:100BD000CDF80021F12000F0C9F80021DB2000F061
:100BE000C5F80021302000F0C1F80021A42000F059
:100BF000BDF80021A62000F0B9F80021AF2000F0D8
:100C0000B5F8FFF70BFC10BD2DE9FF4F83B0904600
:100C10009946109DC84501DC012000E000200646F1
:100C2000C84501DA404600E048468246C84501DD35
:100C3000404600E048468346002417E04B464246C3
:100C4000CDE90045DDE90301FFF706FEFFF748FFA8
:100C50000DB9012000E000204B464246CDE900409E
:100C6000DDE90301FFF7F8FD601CC4B20AEBDA719D
:100C7000B4EB610FE2DBABF10100C7B227E0CDE9D5
:100C800000450EB1384600E0484603460EB14046E6
:100C900000E038460246DDE90301FFF7DDFDFFF71E
:100CA0001FFF0DB9012000E00020CDE900400EB18A
:100CB000384600E0484603460EB1404600E038465C
:100CC0000246DDE90301FFF7C7FD781EC7B20AEB54
:100CD000DA71B7EB610FD2DC27E0CDE900450EB148
:100CE000384600E0484603460EB1404600E038462C
:100CF0000246DDE90301FFF7AFFDFFF7F1FE0DB995
:100D0000012000E00020CDE900400EB1384600E0AF
:100D1000484603460EB1404600E038460246DDE94B
:100D20000301FFF799FD781CC7B25F45D5DB17E0DB
:100D30004B464246CDE90045DDE90301FFF78CFD56
:100D4000FFF7CEFE0DB9012000E000204B464246E1
:100D5000CDE90040DDE90301FFF77EFD601EC4B26E
:100D6000002CE5DC07B0BDE8F08F000070B504464C
:100D70000E4626B102211848FFF7F4FA03E00221DB
:100D80001548FFF7EDFA10211448FFF7E9FA00259E
:100D900017E020211148FFF7E3FA04F0800020B1AA
:100DA00080210E48FFF7DEFA03E080210B48FFF7B1
:100DB000D7FA20210948FFF7D5FA6006040E681C0F
:100DC000C5B2082DE5DB10210448FFF7CBFA02215C
:100DD0000148FFF7C7FA70BD000C01400008014050
:100DE0007047000029B1064A92690243044B9A6198
:100DF00004E0034A92698243014B9A617047000004
:100E000000100240704710B500F002F810BD00005D
:100E10000CB50020019000903348006840F4803009
:100E20003149086000BF3048006800F4003000908D
:100E30000198401C0190009818B90198B0F5A06F76
:100E4000F1D12948006800F4003010B10120009071
:100E500001E0002000900098012843D12348006859
:100E600040F01000214908600846006820F00300A7
:100E700008600846006840F0020008601A484068B0
:100E8000194948600846406848600846406840F490
:100E9000806048600846406820F47C10486008463E
:100EA000406840F4E81048600846006840F08070F0
:100EB000086000BF0C48006800F000700028F9D0FE
:100EC0000948406820F00300074948600846406828
:100ED00040F00200486000BF0348406800F00C008A
:100EE0000828F9D10CBD000000100240002002408B
:100EF000042808D14FF0E021096941F004014FF0C6
:100F0000E022116107E04FF0E021096921F00401BE
:100F10004FF0E022116170477047000010B5134890
:100F2000006840F001001149086008464068104917
:100F300008400E494860084600680E4908400B49C1
:100F400008600846006820F4802008600846406871
:100F500020F4FE0048604FF41F008860FFF753FF45
:100F60004FF000600449086010BD0000001002400E
:100F70000000FFF8FFFFF6FE08ED00E000BFFEE70F
:100F800010B56FF00400FFF7B3FF0A4800680A4984
:100F9000B0FBF1F0094908700846007800EB400109
:100FA000C1EBC0104FF6FF7101EAC0000449088090
:100FB00010BD00000400002000127A000000002094
:100FC0000200002008B5FFF7DBFFFFF7E9F9FFF7A4
:100FD000B1FDFFF723FA07E001201E233C221F2169
:100FE00000903F20FFF710FEF6E700000C1000080D
:100FF000000000201800000028010008241000084C
:1010000018000020600A00004401000800000000F1
:1010100000A24A04000000000000000001020304D6
:0410200006070809AE
:04000005080000ED02
:00000001FF
